{"contracts/SocialReputation.sol":{"SocialReputation":{"abi":[{"inputs":[{"internalType":"contract IERC20","name":"_loanToken","type":"address"}],"stateMutability":"nonpayable","type":"constructor"},{"anonymous":false,"inputs":[{"indexed":true,"internalType":"address","name":"caller","type":"address"},{"indexed":false,"internalType":"bool","name":"allowed","type":"bool"}],"name":"AuthorizedCaller","type":"event"},{"anonymous":false,"inputs":[{"indexed":true,"internalType":"address","name":"borrower","type":"address"},{"indexed":false,"internalType":"uint256","name":"amount","type":"uint256"}],"name":"Borrowed","type":"event"},{"anonymous":false,"inputs":[{"indexed":true,"internalType":"address","name":"endorser","type":"address"},{"indexed":true,"internalType":"address","name":"target","type":"address"}],"name":"Endorsed","type":"event"},{"anonymous":false,"inputs":[{"indexed":true,"internalType":"address","name":"from","type":"address"},{"indexed":true,"internalType":"address","name":"to","type":"address"},{"indexed":false,"internalType":"address","name":"token","type":"address"},{"indexed":false,"internalType":"uint256","name":"amount","type":"uint256"}],"name":"PaymentReported","type":"event"},{"anonymous":false,"inputs":[{"indexed":true,"internalType":"address","name":"from","type":"address"},{"indexed":false,"internalType":"uint256","name":"amount","type":"uint256"},{"indexed":false,"internalType":"uint256","name":"sharesMinted","type":"uint256"}],"name":"PoolFunded","type":"event"},{"anonymous":false,"inputs":[{"indexed":true,"internalType":"address","name":"to","type":"address"},{"indexed":false,"internalType":"uint256","name":"amount","type":"uint256"},{"indexed":false,"internalType":"uint256","name":"sharesBurned","type":"uint256"}],"name":"PoolWithdrawn","type":"event"},{"anonymous":false,"inputs":[{"indexed":true,"internalType":"address","name":"borrower","type":"address"},{"indexed":false,"internalType":"uint256","name":"amount","type":"uint256"}],"name":"Repaid","type":"event"},{"anonymous":false,"inputs":[{"indexed":true,"internalType":"address","name":"endorser","type":"address"},{"indexed":true,"internalType":"address","name":"target","type":"address"}],"name":"Unendorsed","type":"event"},{"inputs":[],"name":"admin","outputs":[{"internalType":"address","name":"","type":"address"}],"stateMutability":"view","type":"function"},{"inputs":[{"internalType":"uint256","name":"amount","type":"uint256"}],"name":"borrow","outputs":[],"stateMutability":"nonpayable","type":"function"},{"inputs":[],"name":"currentEpoch","outputs":[{"internalType":"uint256","name":"","type":"uint256"}],"stateMutability":"view","type":"function"},{"inputs":[{"internalType":"address","name":"target","type":"address"}],"name":"endorse","outputs":[],"stateMutability":"nonpayable","type":"function"},{"inputs":[{"internalType":"uint256","name":"amount","type":"uint256"}],"name":"fundPool","outputs":[],"stateMutability":"nonpayable","type":"function"},{"inputs":[{"internalType":"address","name":"","type":"address"}],"name":"fundingBonus","outputs":[{"internalType":"uint256","name":"","type":"uint256"}],"stateMutability":"view","type":"function"},{"inputs":[{"internalType":"address","name":"","type":"address"}],"name":"fundingBonusEpoch","outputs":[{"internalType":"uint256","name":"","type":"uint256"}],"stateMutability":"view","type":"function"},{"inputs":[{"internalType":"address","name":"user","type":"address"}],"name":"getScore","outputs":[{"internalType":"uint256","name":"","type":"uint256"}],"stateMutability":"view","type":"function"},{"inputs":[{"internalType":"address","name":"user","type":"address"}],"name":"getUserStakeValue","outputs":[{"internalType":"uint256","name":"","type":"uint256"}],"stateMutability":"view","type":"function"},{"inputs":[],"name":"interestBps","outputs":[{"internalType":"uint256","name":"","type":"uint256"}],"stateMutability":"view","type":"function"},{"inputs":[{"internalType":"address","name":"","type":"address"}],"name":"isAuthorizedCaller","outputs":[{"internalType":"bool","name":"","type":"bool"}],"stateMutability":"view","type":"function"},{"inputs":[],"name":"loanToken","outputs":[{"internalType":"contract IERC20","name":"","type":"address"}],"stateMutability":"view","type":"function"},{"inputs":[{"internalType":"address","name":"user","type":"address"}],"name":"maxBorrowable","outputs":[{"internalType":"uint256","name":"","type":"uint256"}],"stateMutability":"view","type":"function"},{"inputs":[{"internalType":"address","name":"","type":"address"}],"name":"metricsEpoch","outputs":[{"internalType":"uint256","name":"","type":"uint256"}],"stateMutability":"view","type":"function"},{"inputs":[{"internalType":"address","name":"","type":"address"}],"name":"outstandingDebt","outputs":[{"internalType":"uint256","name":"","type":"uint256"}],"stateMutability":"view","type":"function"},{"inputs":[{"internalType":"uint256","name":"amount","type":"uint256"}],"name":"repay","outputs":[],"stateMutability":"nonpayable","type":"function"},{"inputs":[{"internalType":"address","name":"from","type":"address"},{"internalType":"address","name":"to","type":"address"},{"internalType":"address","name":"token","type":"address"},{"internalType":"uint256","name":"amountNormalized1e18","type":"uint256"}],"name":"reportPayment","outputs":[],"stateMutability":"nonpayable","type":"function"},{"inputs":[],"name":"resetAllReputation","outputs":[],"stateMutability":"nonpayable","type":"function"},{"inputs":[],"name":"selfEndorse","outputs":[],"stateMutability":"nonpayable","type":"function"},{"inputs":[{"internalType":"address","name":"caller","type":"address"},{"internalType":"bool","name":"allowed","type":"bool"}],"name":"setAuthorizedCaller","outputs":[],"stateMutability":"nonpayable","type":"function"},{"inputs":[],"name":"totalPool","outputs":[{"internalType":"uint256","name":"","type":"uint256"}],"stateMutability":"view","type":"function"},{"inputs":[],"name":"totalShares","outputs":[{"internalType":"uint256","name":"","type":"uint256"}],"stateMutability":"view","type":"function"},{"inputs":[{"internalType":"address","name":"target","type":"address"}],"name":"unendorse","outputs":[],"stateMutability":"nonpayable","type":"function"},{"inputs":[{"internalType":"address","name":"","type":"address"}],"name":"userShares","outputs":[{"internalType":"uint256","name":"","type":"uint256"}],"stateMutability":"view","type":"function"},{"inputs":[{"internalType":"uint256","name":"amount","type":"uint256"}],"name":"withdrawAmount","outputs":[],"stateMutability":"nonpayable","type":"function"},{"inputs":[{"internalType":"uint256","name":"shares","type":"uint256"}],"name":"withdrawShares","outputs":[],"stateMutability":"nonpayable","type":"function"}],"evm":{"bytecode":{"linkReferences":{},"object":"60c0604052600160005560c860085534801561001a57600080fd5b5060405161192c38038061192c8339810160408190526100399161004e565b336080526001600160a01b031660a05261007e565b60006020828403121561006057600080fd5b81516001600160a01b038116811461007757600080fd5b9392505050565b60805160a0516118516100db600039600081816101ad0152818161054f015281816107460152818161090901528181610b570152818161100e01526112d90152600081816103d701528181610a300152610aa001526118516000f3fe608060405234801561001057600080fd5b506004361061018e5760003560e01c806376671808116100de578063c5ebeaec11610097578063da3a5f7211610071578063da3a5f7214610396578063de69b3aa146103a9578063ecfb49a3146103c9578063f851a440146103d257600080fd5b8063c5ebeaec1461035d578063d100dab314610370578063d47875d01461038357600080fd5b806376671808146102e65780637a11cf5b146102ef578063846b36c6146103025780638c1c3cc714610322578063b5a60cc41461032a578063c06cc7d41461034a57600080fd5b8063371fd8e61161014b578063454bbd2911610125578063454bbd291461027a57806353696eb81461028d57806359d14b41146102a05780636ea5511f146102d357600080fd5b8063371fd8e6146102565780633a98ef3914610269578063431e216e1461027257600080fd5b80630562b9f71461019357806306d37817146101a857806319810f3c146101ec57806320b9c82a146101ff57806329de13711461022d57806331bf830f14610236575b600080fd5b6101a66101a136600461154a565b6103f9565b005b6101cf7f000000000000000000000000000000000000000000000000000000000000000081565b6040516001600160a01b0390911681526020015b60405180910390f35b6101a66101fa36600461154a565b610620565b61021f61020d36600461157f565b60076020526000908152604090205481565b6040519081526020016101e3565b61021f60085481565b61021f61024436600461157f565b60036020526000908152604090205481565b6101a661026436600461154a565b61080f565b61021f60055481565b6101a6610a25565b6101a66102883660046115a8565b610a95565b61021f61029b36600461157f565b610b52565b6102c36102ae36600461157f565b60016020526000908152604090205460ff1681565b60405190151581526020016101e3565b6101a66102e136600461157f565b610c23565b61021f60005481565b61021f6102fd36600461157f565b610d0a565b61021f61031036600461157f565b600a6020526000908152604090205481565b6101a6610d57565b61021f61033836600461157f565b60096020526000908152604090205481565b6101a66103583660046115df565b610e33565b6101a661036b36600461154a565b610f25565b6101a661037e36600461157f565b6110d1565b61021f61039136600461157f565b6111ae565b6101a66103a436600461154a565b611294565b61021f6103b736600461157f565b60066020526000908152604090205481565b61021f60045481565b6101cf7f000000000000000000000000000000000000000000000000000000000000000081565b600081116104225760405162461bcd60e51b81526004016104199061162a565b60405180910390fd5b600060045411801561043657506000600554115b61046a5760405162461bcd60e51b8152602060048201526005602482015264656d70747960d81b6044820152606401610419565b60006004546005548361047d9190611662565b6104879190611679565b90506000811180156104a85750336000908152600660205260409020548111155b6104dd5760405162461bcd60e51b815260206004820152600660248201526573686172657360d01b6044820152606401610419565b33600090815260066020526040812080548392906104fc90849061169b565b925050819055508060056000828254610515919061169b565b92505081905550816004600082825461052e919061169b565b909155505060405163a9059cbb60e01b8152336004820152602481018390527f00000000000000000000000000000000000000000000000000000000000000006001600160a01b03169063a9059cbb906044016020604051808303816000875af11580156105a0573d6000803e3d6000fd5b505050506040513d601f19601f820116820180604052508101906105c491906116ae565b6105e05760405162461bcd60e51b8152600401610419906116cb565b604080518381526020810183905233917f4e263f66e088b39f0d0855a71de61fdd97a363015db80b9b27791e61c1feb32391015b60405180910390a25050565b60008111801561063f5750336000908152600660205260409020548111155b6106745760405162461bcd60e51b815260206004820152600660248201526573686172657360d01b6044820152606401610419565b6000600554116106b25760405162461bcd60e51b81526020600482015260096024820152686e6f2073686172657360b81b6044820152606401610419565b6000600554600454836106c59190611662565b6106cf9190611679565b336000908152600660205260408120805492935084929091906106f390849061169b565b92505081905550816005600082825461070c919061169b565b925050819055508060046000828254610725919061169b565b909155505060405163a9059cbb60e01b8152336004820152602481018290527f00000000000000000000000000000000000000000000000000000000000000006001600160a01b03169063a9059cbb906044016020604051808303816000875af1158015610797573d6000803e3d6000fd5b505050506040513d601f19601f820116820180604052508101906107bb91906116ae565b6107d75760405162461bcd60e51b8152600401610419906116cb565b604080518281526020810184905233917f4e263f66e088b39f0d0855a71de61fdd97a363015db80b9b27791e61c1feb3239101610614565b6000811161082f5760405162461bcd60e51b81526004016104199061162a565b33600090815260076020526040902054806108765760405162461bcd60e51b81526020600482015260076024820152661b9bc81919589d60ca1b6044820152606401610419565b6000612710600854836108899190611662565b6108939190611679565b61089d90836116f2565b9050808310156108e45760405162461bcd60e51b8152602060048201526012602482015271696e73756666696369656e7420726570617960701b6044820152606401610419565b6040516323b872dd60e01b8152336004820152306024820152604481018490526000907f00000000000000000000000000000000000000000000000000000000000000006001600160a01b0316906323b872dd906064016020604051808303816000875af115801561095a573d6000803e3d6000fd5b505050506040513d601f19601f8201168201806040525081019061097e91906116ae565b9050806109c15760405162461bcd60e51b81526020600482015260116024820152701d1c985b9cd9995c919c9bdb4819985a5b607a1b6044820152606401610419565b336000908152600760205260408120819055600480548692906109e59084906116f2565b909155505060405184815233907f0516911bcc3a0a7412a44601057c0a0a1ec628bde049a84284bc4288665344889060200160405180910390a250505050565b336001600160a01b037f00000000000000000000000000000000000000000000000000000000000000001614610a8a5760405162461bcd60e51b815260206004820152600a60248201526927b7363c9030b236b4b760b11b6044820152606401610419565b600080546001019055565b336001600160a01b037f00000000000000000000000000000000000000000000000000000000000000001614610afa5760405162461bcd60e51b815260206004820152600a60248201526927b7363c9030b236b4b760b11b6044820152606401610419565b6001600160a01b038216600081815260016020908152604091829020805460ff191685151590811790915591519182527fb266b84e4ebe1ce46621cd60b98a479f375f552e5ef00830edebdfef8c7727819101610614565b6000807f00000000000000000000000000000000000000000000000000000000000000006001600160a01b031663313ce5676040518163ffffffff1660e01b8152600401602060405180830381865afa158015610bb3573d6000803e3d6000fd5b505050506040513d601f19601f82011682018060405250810190610bd79190611705565b905060006064610be883600a61180c565b610bf1866111ae565b610bfb9190611662565b610c059190611679565b9050600454811115610c1c57505060045492915050565b9392505050565b610c2c816114e9565b6001600160a01b0381166000908152600260209081526040808320835484526004810183528184203385529092529091205460ff1615610ca15760405162461bcd60e51b815260206004820152601060248201526f105b1c9958591e48195b991bdc9cd95960821b6044820152606401610419565b6000805481526004820160209081526040808320338085529252808320805460ff191660019081179091556003850180549091019055516001600160a01b038516927f23bca93d1f21ae32b587bcfa6c4c3310685b7d09d5a18b30f748e0af6d7ee0fb91a35050565b6000600554600003610d1e57506000919050565b6005546004546001600160a01b038416600090815260066020526040902054610d479190611662565b610d519190611679565b92915050565b610d60336114e9565b336000818152600260209081526040808320835484526004810183528184209484529390915290205460ff1615610dd15760405162461bcd60e51b8152602060048201526015602482015274105b1c9958591e481cd95b198b595b991bdc9cd959605a1b6044820152606401610419565b6000805481526004820160209081526040808320338085529252808320805460ff19166001908117909155600385018054909101905551909182917f23bca93d1f21ae32b587bcfa6c4c3310685b7d09d5a18b30f748e0af6d7ee0fb9190a350565b3360009081526001602052604090205460ff16610e835760405162461bcd60e51b815260206004820152600e60248201526d139bdd08185d5d1a1bdc9a5e995960921b6044820152606401610419565b610e8c846114e9565b610e95836114e9565b6001600160a01b038481166000818152600260208181526040808420898716808652948290208154600190810183558082018054909101905581850180548a0190559384018054890190558151968916875291860187905290949193917fbb9a3e9ac9f016f7bc97843a50400e2c550e4c875a845b4aa82cc3c39f8dcff1910160405180910390a3505050505050565b3360009081526007602052604090205415610f705760405162461bcd60e51b815260206004820152600b60248201526a446562742065786973747360a81b6044820152606401610419565b6000610f7b33610b52565b9050600082118015610f8d5750808211155b610fc95760405162461bcd60e51b815260206004820152600d60248201526c195e18d959591cc81b1a5b5a5d609a1b6044820152606401610419565b33600090815260076020526040812083905560048054849290610fed90849061169b565b909155505060405163a9059cbb60e01b8152336004820152602481018390527f00000000000000000000000000000000000000000000000000000000000000006001600160a01b03169063a9059cbb906044016020604051808303816000875af115801561105f573d6000803e3d6000fd5b505050506040513d601f19601f8201168201806040525081019061108391906116ae565b61109f5760405162461bcd60e51b8152600401610419906116cb565b60405182815233907fac59582e5396aca512fa873a2047e7f4c80f8f55d4a06cb34a78a0187f62719f90602001610614565b6110da816114e9565b6001600160a01b0381166000908152600260209081526040808320835484526004810183528184203385529092529091205460ff1661114a5760405162461bcd60e51b815260206004820152600c60248201526b139bdd08195b991bdc9cd95960a21b6044820152606401610419565b6000805481526004820160209081526040808320338085529252808320805460ff19169055600384018054600019019055516001600160a01b038516927f97394cbfef09957a2f2c87de5c38650f389066007313a045cfbe05e0599c48df91a35050565b600080546001600160a01b03831682526003602052604082205482919003611251576001600160a01b0383166000908152600260208190526040909120908101546112039068056bc75e2d6310000090611679565b600382015461121390600a611662565b60018084015461122291611662565b835461122f906002611662565b61123991906116f2565b61124391906116f2565b61124d91906116f2565b9150505b600080546001600160a01b0385168252600a60205260409091205403610d51576001600160a01b038316600090815260096020526040902054610c1c90826116f2565b600081116112b45760405162461bcd60e51b81526004016104199061162a565b6040516323b872dd60e01b8152336004820152306024820152604481018290526000907f00000000000000000000000000000000000000000000000000000000000000006001600160a01b0316906323b872dd906064016020604051808303816000875af115801561132a573d6000803e3d6000fd5b505050506040513d601f19601f8201168201806040525081019061134e91906116ae565b9050806113915760405162461bcd60e51b81526020600482015260116024820152701d1c985b9cd9995c919c9bdb4819985a5b607a1b6044820152606401610419565b6000600554600014806113a45750600454155b156113b05750816113cd565b6004546005546113c09085611662565b6113ca9190611679565b90505b600081116114085760405162461bcd60e51b815260206004820152600860248201526707368617265733d360c41b6044820152606401610419565b826004600082825461141a91906116f2565b92505081905550806005600082825461143391906116f2565b909155505033600090815260066020526040812080548392906114579084906116f2565b909155505060008054338252600a60205260409091205414611494573360009081526009602090815260408083208390558254600a909252909120555b336000818152600960209081526040918290208054601401905581518681529081018490527fce66f10ae4269ec7bfd83e4659aed202bd4efb93d241bae453642969c2f079d3910160405180910390a2505050565b600080546001600160a01b0383168252600360205260409091205414611547576001600160a01b0381166000908152600260208181526040808420848155600181018590559283018490556003928301849055835492909152909120555b50565b60006020828403121561155c57600080fd5b5035919050565b80356001600160a01b038116811461157a57600080fd5b919050565b60006020828403121561159157600080fd5b610c1c82611563565b801515811461154757600080fd5b600080604083850312156115bb57600080fd5b6115c483611563565b915060208301356115d48161159a565b809150509250929050565b600080600080608085870312156115f557600080fd5b6115fe85611563565b935061160c60208601611563565b925061161a60408601611563565b9396929550929360600135925050565b6020808252600890820152670616d6f756e743d360c41b604082015260600190565b634e487b7160e01b600052601160045260246000fd5b8082028115828204841417610d5157610d5161164c565b60008261169657634e487b7160e01b600052601260045260246000fd5b500490565b81810381811115610d5157610d5161164c565b6000602082840312156116c057600080fd5b8151610c1c8161159a565b6020808252600d908201526c1d1c985b9cd9995c8819985a5b609a1b604082015260600190565b80820180821115610d5157610d5161164c565b60006020828403121561171757600080fd5b815160ff81168114610c1c57600080fd5b600181815b808511156117635781600019048211156117495761174961164c565b8085161561175657918102915b93841c939080029061172d565b509250929050565b60008261177a57506001610d51565b8161178757506000610d51565b816001811461179d57600281146117a7576117c3565b6001915050610d51565b60ff8411156117b8576117b861164c565b50506001821b610d51565b5060208310610133831016604e8410600b84101617156117e6575081810a610d51565b6117f08383611728565b80600019048211156118045761180461164c565b029392505050565b6000610c1c60ff84168361176b56fea26469706673582212206fe8c3a5b5bd11e72fe0865bcded783143575c4dffc2b614315c69ec924f82c464736f6c63430008180033","opcodes":"PUSH1 0xC0 PUSH1 0x40 MSTORE PUSH1 0x1 PUSH1 0x0 SSTORE PUSH1 0xC8 PUSH1 0x8 SSTORE CALLVALUE DUP1 ISZERO PUSH2 0x1A JUMPI PUSH1 0x0 DUP1 REVERT JUMPDEST POP PUSH1 0x40 MLOAD PUSH2 0x192C CODESIZE SUB DUP1 PUSH2 0x192C DUP4 CODECOPY DUP2 ADD PUSH1 0x40 DUP2 SWAP1 MSTORE PUSH2 0x39 SWAP2 PUSH2 0x4E JUMP JUMPDEST CALLER PUSH1 0x80 MSTORE PUSH1 0x1 PUSH1 0x1 PUSH1 0xA0 SHL SUB AND PUSH1 0xA0 MSTORE PUSH2 0x7E JUMP JUMPDEST PUSH1 0x0 PUSH1 0x20 DUP3 DUP5 SUB SLT ISZERO PUSH2 0x60 JUMPI PUSH1 0x0 DUP1 REVERT JUMPDEST DUP2 MLOAD PUSH1 0x1 PUSH1 0x1 PUSH1 0xA0 SHL SUB DUP2 AND DUP2 EQ PUSH2 0x77 JUMPI PUSH1 0x0 DUP1 REVERT JUMPDEST SWAP4 SWAP3 POP POP POP JUMP JUMPDEST PUSH1 0x80 MLOAD PUSH1 0xA0 MLOAD PUSH2 0x1851 PUSH2 0xDB PUSH1 0x0 CODECOPY PUSH1 0x0 DUP2 DUP2 PUSH2 0x1AD ADD MSTORE DUP2 DUP2 PUSH2 0x54F ADD MSTORE DUP2 DUP2 PUSH2 0x746 ADD MSTORE DUP2 DUP2 PUSH2 0x909 ADD MSTORE DUP2 DUP2 PUSH2 0xB57 ADD MSTORE DUP2 DUP2 PUSH2 0x100E ADD MSTORE PUSH2 0x12D9 ADD MSTORE PUSH1 0x0 DUP2 DUP2 PUSH2 0x3D7 ADD MSTORE DUP2 DUP2 PUSH2 0xA30 ADD MSTORE PUSH2 0xAA0 ADD MSTORE PUSH2 0x1851 PUSH1 0x0 RETURN INVALID PUSH1 0x80 PUSH1 0x40 MSTORE CALLVALUE DUP1 ISZERO PUSH2 0x10 JUMPI PUSH1 0x0 DUP1 REVERT JUMPDEST POP PUSH1 0x4 CALLDATASIZE LT PUSH2 0x18E JUMPI PUSH1 0x0 CALLDATALOAD PUSH1 0xE0 SHR DUP1 PUSH4 0x76671808 GT PUSH2 0xDE JUMPI DUP1 PUSH4 0xC5EBEAEC GT PUSH2 0x97 JUMPI DUP1 PUSH4 0xDA3A5F72 GT PUSH2 0x71 JUMPI DUP1 PUSH4 0xDA3A5F72 EQ PUSH2 0x396 JUMPI DUP1 PUSH4 0xDE69B3AA EQ PUSH2 0x3A9 JUMPI DUP1 PUSH4 0xECFB49A3 EQ PUSH2 0x3C9 JUMPI DUP1 PUSH4 0xF851A440 EQ PUSH2 0x3D2 JUMPI PUSH1 0x0 DUP1 REVERT JUMPDEST DUP1 PUSH4 0xC5EBEAEC EQ PUSH2 0x35D JUMPI DUP1 PUSH4 0xD100DAB3 EQ PUSH2 0x370 JUMPI DUP1 PUSH4 0xD47875D0 EQ PUSH2 0x383 JUMPI PUSH1 0x0 DUP1 REVERT JUMPDEST DUP1 PUSH4 0x76671808 EQ PUSH2 0x2E6 JUMPI DUP1 PUSH4 0x7A11CF5B EQ PUSH2 0x2EF JUMPI DUP1 PUSH4 0x846B36C6 EQ PUSH2 0x302 JUMPI DUP1 PUSH4 0x8C1C3CC7 EQ PUSH2 0x322 JUMPI DUP1 PUSH4 0xB5A60CC4 EQ PUSH2 0x32A JUMPI DUP1 PUSH4 0xC06CC7D4 EQ PUSH2 0x34A JUMPI PUSH1 0x0 DUP1 REVERT JUMPDEST DUP1 PUSH4 0x371FD8E6 GT PUSH2 0x14B JUMPI DUP1 PUSH4 0x454BBD29 GT PUSH2 0x125 JUMPI DUP1 PUSH4 0x454BBD29 EQ PUSH2 0x27A JUMPI DUP1 PUSH4 0x53696EB8 EQ PUSH2 0x28D JUMPI DUP1 PUSH4 0x59D14B41 EQ PUSH2 0x2A0 JUMPI DUP1 PUSH4 0x6EA5511F EQ PUSH2 0x2D3 JUMPI PUSH1 0x0 DUP1 REVERT JUMPDEST DUP1 PUSH4 0x371FD8E6 EQ PUSH2 0x256 JUMPI DUP1 PUSH4 0x3A98EF39 EQ PUSH2 0x269 JUMPI DUP1 PUSH4 0x431E216E EQ PUSH2 0x272 JUMPI PUSH1 0x0 DUP1 REVERT JUMPDEST DUP1 PUSH4 0x562B9F7 EQ PUSH2 0x193 JUMPI DUP1 PUSH4 0x6D37817 EQ PUSH2 0x1A8 JUMPI DUP1 PUSH4 0x19810F3C EQ PUSH2 0x1EC JUMPI DUP1 PUSH4 0x20B9C82A EQ PUSH2 0x1FF JUMPI DUP1 PUSH4 0x29DE1371 EQ PUSH2 0x22D JUMPI DUP1 PUSH4 0x31BF830F EQ PUSH2 0x236 JUMPI JUMPDEST PUSH1 0x0 DUP1 REVERT JUMPDEST PUSH2 0x1A6 PUSH2 0x1A1 CALLDATASIZE PUSH1 0x4 PUSH2 0x154A JUMP JUMPDEST PUSH2 0x3F9 JUMP JUMPDEST STOP JUMPDEST PUSH2 0x1CF PUSH32 0x0 DUP2 JUMP JUMPDEST PUSH1 0x40 MLOAD PUSH1 0x1 PUSH1 0x1 PUSH1 0xA0 SHL SUB SWAP1 SWAP2 AND DUP2 MSTORE PUSH1 0x20 ADD JUMPDEST PUSH1 0x40 MLOAD DUP1 SWAP2 SUB SWAP1 RETURN JUMPDEST PUSH2 0x1A6 PUSH2 0x1FA CALLDATASIZE PUSH1 0x4 PUSH2 0x154A JUMP JUMPDEST PUSH2 0x620 JUMP JUMPDEST PUSH2 0x21F PUSH2 0x20D CALLDATASIZE PUSH1 0x4 PUSH2 0x157F JUMP JUMPDEST PUSH1 0x7 PUSH1 0x20 MSTORE PUSH1 0x0 SWAP1 DUP2 MSTORE PUSH1 0x40 SWAP1 KECCAK256 SLOAD DUP2 JUMP JUMPDEST PUSH1 0x40 MLOAD SWAP1 DUP2 MSTORE PUSH1 0x20 ADD PUSH2 0x1E3 JUMP JUMPDEST PUSH2 0x21F PUSH1 0x8 SLOAD DUP2 JUMP JUMPDEST PUSH2 0x21F PUSH2 0x244 CALLDATASIZE PUSH1 0x4 PUSH2 0x157F JUMP JUMPDEST PUSH1 0x3 PUSH1 0x20 MSTORE PUSH1 0x0 SWAP1 DUP2 MSTORE PUSH1 0x40 SWAP1 KECCAK256 SLOAD DUP2 JUMP JUMPDEST PUSH2 0x1A6 PUSH2 0x264 CALLDATASIZE PUSH1 0x4 PUSH2 0x154A JUMP JUMPDEST PUSH2 0x80F JUMP JUMPDEST PUSH2 0x21F PUSH1 0x5 SLOAD DUP2 JUMP JUMPDEST PUSH2 0x1A6 PUSH2 0xA25 JUMP JUMPDEST PUSH2 0x1A6 PUSH2 0x288 CALLDATASIZE PUSH1 0x4 PUSH2 0x15A8 JUMP JUMPDEST PUSH2 0xA95 JUMP JUMPDEST PUSH2 0x21F PUSH2 0x29B CALLDATASIZE PUSH1 0x4 PUSH2 0x157F JUMP JUMPDEST PUSH2 0xB52 JUMP JUMPDEST PUSH2 0x2C3 PUSH2 0x2AE CALLDATASIZE PUSH1 0x4 PUSH2 0x157F JUMP JUMPDEST PUSH1 0x1 PUSH1 0x20 MSTORE PUSH1 0x0 SWAP1 DUP2 MSTORE PUSH1 0x40 SWAP1 KECCAK256 SLOAD PUSH1 0xFF AND DUP2 JUMP JUMPDEST PUSH1 0x40 MLOAD SWAP1 ISZERO ISZERO DUP2 MSTORE PUSH1 0x20 ADD PUSH2 0x1E3 JUMP JUMPDEST PUSH2 0x1A6 PUSH2 0x2E1 CALLDATASIZE PUSH1 0x4 PUSH2 0x157F JUMP JUMPDEST PUSH2 0xC23 JUMP JUMPDEST PUSH2 0x21F PUSH1 0x0 SLOAD DUP2 JUMP JUMPDEST PUSH2 0x21F PUSH2 0x2FD CALLDATASIZE PUSH1 0x4 PUSH2 0x157F JUMP JUMPDEST PUSH2 0xD0A JUMP JUMPDEST PUSH2 0x21F PUSH2 0x310 CALLDATASIZE PUSH1 0x4 PUSH2 0x157F JUMP JUMPDEST PUSH1 0xA PUSH1 0x20 MSTORE PUSH1 0x0 SWAP1 DUP2 MSTORE PUSH1 0x40 SWAP1 KECCAK256 SLOAD DUP2 JUMP JUMPDEST PUSH2 0x1A6 PUSH2 0xD57 JUMP JUMPDEST PUSH2 0x21F PUSH2 0x338 CALLDATASIZE PUSH1 0x4 PUSH2 0x157F JUMP JUMPDEST PUSH1 0x9 PUSH1 0x20 MSTORE PUSH1 0x0 SWAP1 DUP2 MSTORE PUSH1 0x40 SWAP1 KECCAK256 SLOAD DUP2 JUMP JUMPDEST PUSH2 0x1A6 PUSH2 0x358 CALLDATASIZE PUSH1 0x4 PUSH2 0x15DF JUMP JUMPDEST PUSH2 0xE33 JUMP JUMPDEST PUSH2 0x1A6 PUSH2 0x36B CALLDATASIZE PUSH1 0x4 PUSH2 0x154A JUMP JUMPDEST PUSH2 0xF25 JUMP JUMPDEST PUSH2 0x1A6 PUSH2 0x37E CALLDATASIZE PUSH1 0x4 PUSH2 0x157F JUMP JUMPDEST PUSH2 0x10D1 JUMP JUMPDEST PUSH2 0x21F PUSH2 0x391 CALLDATASIZE PUSH1 0x4 PUSH2 0x157F JUMP JUMPDEST PUSH2 0x11AE JUMP JUMPDEST PUSH2 0x1A6 PUSH2 0x3A4 CALLDATASIZE PUSH1 0x4 PUSH2 0x154A JUMP JUMPDEST PUSH2 0x1294 JUMP JUMPDEST PUSH2 0x21F PUSH2 0x3B7 CALLDATASIZE PUSH1 0x4 PUSH2 0x157F JUMP JUMPDEST PUSH1 0x6 PUSH1 0x20 MSTORE PUSH1 0x0 SWAP1 DUP2 MSTORE PUSH1 0x40 SWAP1 KECCAK256 SLOAD DUP2 JUMP JUMPDEST PUSH2 0x21F PUSH1 0x4 SLOAD DUP2 JUMP JUMPDEST PUSH2 0x1CF PUSH32 0x0 DUP2 JUMP JUMPDEST PUSH1 0x0 DUP2 GT PUSH2 0x422 JUMPI PUSH1 0x40 MLOAD PUSH3 0x461BCD PUSH1 0xE5 SHL DUP2 MSTORE PUSH1 0x4 ADD PUSH2 0x419 SWAP1 PUSH2 0x162A JUMP JUMPDEST PUSH1 0x40 MLOAD DUP1 SWAP2 SUB SWAP1 REVERT JUMPDEST PUSH1 0x0 PUSH1 0x4 SLOAD GT DUP1 ISZERO PUSH2 0x436 JUMPI POP PUSH1 0x0 PUSH1 0x5 SLOAD GT JUMPDEST PUSH2 0x46A JUMPI PUSH1 0x40 MLOAD PUSH3 0x461BCD PUSH1 0xE5 SHL DUP2 MSTORE PUSH1 0x20 PUSH1 0x4 DUP3 ADD MSTORE PUSH1 0x5 PUSH1 0x24 DUP3 ADD MSTORE PUSH5 0x656D707479 PUSH1 0xD8 SHL PUSH1 0x44 DUP3 ADD MSTORE PUSH1 0x64 ADD PUSH2 0x419 JUMP JUMPDEST PUSH1 0x0 PUSH1 0x4 SLOAD PUSH1 0x5 SLOAD DUP4 PUSH2 0x47D SWAP2 SWAP1 PUSH2 0x1662 JUMP JUMPDEST PUSH2 0x487 SWAP2 SWAP1 PUSH2 0x1679 JUMP JUMPDEST SWAP1 POP PUSH1 0x0 DUP2 GT DUP1 ISZERO PUSH2 0x4A8 JUMPI POP CALLER PUSH1 0x0 SWAP1 DUP2 MSTORE PUSH1 0x6 PUSH1 0x20 MSTORE PUSH1 0x40 SWAP1 KECCAK256 SLOAD DUP2 GT ISZERO JUMPDEST PUSH2 0x4DD JUMPI PUSH1 0x40 MLOAD PUSH3 0x461BCD PUSH1 0xE5 SHL DUP2 MSTORE PUSH1 0x20 PUSH1 0x4 DUP3 ADD MSTORE PUSH1 0x6 PUSH1 0x24 DUP3 ADD MSTORE PUSH6 0x736861726573 PUSH1 0xD0 SHL PUSH1 0x44 DUP3 ADD MSTORE PUSH1 0x64 ADD PUSH2 0x419 JUMP JUMPDEST CALLER PUSH1 0x0 SWAP1 DUP2 MSTORE PUSH1 0x6 PUSH1 0x20 MSTORE PUSH1 0x40 DUP2 KECCAK256 DUP1 SLOAD DUP4 SWAP3 SWAP1 PUSH2 0x4FC SWAP1 DUP5 SWAP1 PUSH2 0x169B JUMP JUMPDEST SWAP3 POP POP DUP2 SWAP1 SSTORE POP DUP1 PUSH1 0x5 PUSH1 0x0 DUP3 DUP3 SLOAD PUSH2 0x515 SWAP2 SWAP1 PUSH2 0x169B JUMP JUMPDEST SWAP3 POP POP DUP2 SWAP1 SSTORE POP DUP2 PUSH1 0x4 PUSH1 0x0 DUP3 DUP3 SLOAD PUSH2 0x52E SWAP2 SWAP1 PUSH2 0x169B JUMP JUMPDEST SWAP1 SWAP2 SSTORE POP POP PUSH1 0x40 MLOAD PUSH4 0xA9059CBB PUSH1 0xE0 SHL DUP2 MSTORE CALLER PUSH1 0x4 DUP3 ADD MSTORE PUSH1 0x24 DUP2 ADD DUP4 SWAP1 MSTORE PUSH32 0x0 PUSH1 0x1 PUSH1 0x1 PUSH1 0xA0 SHL SUB AND SWAP1 PUSH4 0xA9059CBB SWAP1 PUSH1 0x44 ADD PUSH1 0x20 PUSH1 0x40 MLOAD DUP1 DUP4 SUB DUP2 PUSH1 0x0 DUP8 GAS CALL ISZERO DUP1 ISZERO PUSH2 0x5A0 JUMPI RETURNDATASIZE PUSH1 0x0 DUP1 RETURNDATACOPY RETURNDATASIZE PUSH1 0x0 REVERT JUMPDEST POP POP POP POP PUSH1 0x40 MLOAD RETURNDATASIZE PUSH1 0x1F NOT PUSH1 0x1F DUP3 ADD AND DUP3 ADD DUP1 PUSH1 0x40 MSTORE POP DUP2 ADD SWAP1 PUSH2 0x5C4 SWAP2 SWAP1 PUSH2 0x16AE JUMP JUMPDEST PUSH2 0x5E0 JUMPI PUSH1 0x40 MLOAD PUSH3 0x461BCD PUSH1 0xE5 SHL DUP2 MSTORE PUSH1 0x4 ADD PUSH2 0x419 SWAP1 PUSH2 0x16CB JUMP JUMPDEST PUSH1 0x40 DUP1 MLOAD DUP4 DUP2 MSTORE PUSH1 0x20 DUP2 ADD DUP4 SWAP1 MSTORE CALLER SWAP2 PUSH32 0x4E263F66E088B39F0D0855A71DE61FDD97A363015DB80B9B27791E61C1FEB323 SWAP2 ADD JUMPDEST PUSH1 0x40 MLOAD DUP1 SWAP2 SUB SWAP1 LOG2 POP POP JUMP JUMPDEST PUSH1 0x0 DUP2 GT DUP1 ISZERO PUSH2 0x63F JUMPI POP CALLER PUSH1 0x0 SWAP1 DUP2 MSTORE PUSH1 0x6 PUSH1 0x20 MSTORE PUSH1 0x40 SWAP1 KECCAK256 SLOAD DUP2 GT ISZERO JUMPDEST PUSH2 0x674 JUMPI PUSH1 0x40 MLOAD PUSH3 0x461BCD PUSH1 0xE5 SHL DUP2 MSTORE PUSH1 0x20 PUSH1 0x4 DUP3 ADD MSTORE PUSH1 0x6 PUSH1 0x24 DUP3 ADD MSTORE PUSH6 0x736861726573 PUSH1 0xD0 SHL PUSH1 0x44 DUP3 ADD MSTORE PUSH1 0x64 ADD PUSH2 0x419 JUMP JUMPDEST PUSH1 0x0 PUSH1 0x5 SLOAD GT PUSH2 0x6B2 JUMPI PUSH1 0x40 MLOAD PUSH3 0x461BCD PUSH1 0xE5 SHL DUP2 MSTORE PUSH1 0x20 PUSH1 0x4 DUP3 ADD MSTORE PUSH1 0x9 PUSH1 0x24 DUP3 ADD MSTORE PUSH9 0x6E6F20736861726573 PUSH1 0xB8 SHL PUSH1 0x44 DUP3 ADD MSTORE PUSH1 0x64 ADD PUSH2 0x419 JUMP JUMPDEST PUSH1 0x0 PUSH1 0x5 SLOAD PUSH1 0x4 SLOAD DUP4 PUSH2 0x6C5 SWAP2 SWAP1 PUSH2 0x1662 JUMP JUMPDEST PUSH2 0x6CF SWAP2 SWAP1 PUSH2 0x1679 JUMP JUMPDEST CALLER PUSH1 0x0 SWAP1 DUP2 MSTORE PUSH1 0x6 PUSH1 0x20 MSTORE PUSH1 0x40 DUP2 KECCAK256 DUP1 SLOAD SWAP3 SWAP4 POP DUP5 SWAP3 SWAP1 SWAP2 SWAP1 PUSH2 0x6F3 SWAP1 DUP5 SWAP1 PUSH2 0x169B JUMP JUMPDEST SWAP3 POP POP DUP2 SWAP1 SSTORE POP DUP2 PUSH1 0x5 PUSH1 0x0 DUP3 DUP3 SLOAD PUSH2 0x70C SWAP2 SWAP1 PUSH2 0x169B JUMP JUMPDEST SWAP3 POP POP DUP2 SWAP1 SSTORE POP DUP1 PUSH1 0x4 PUSH1 0x0 DUP3 DUP3 SLOAD PUSH2 0x725 SWAP2 SWAP1 PUSH2 0x169B JUMP JUMPDEST SWAP1 SWAP2 SSTORE POP POP PUSH1 0x40 MLOAD PUSH4 0xA9059CBB PUSH1 0xE0 SHL DUP2 MSTORE CALLER PUSH1 0x4 DUP3 ADD MSTORE PUSH1 0x24 DUP2 ADD DUP3 SWAP1 MSTORE PUSH32 0x0 PUSH1 0x1 PUSH1 0x1 PUSH1 0xA0 SHL SUB AND SWAP1 PUSH4 0xA9059CBB SWAP1 PUSH1 0x44 ADD PUSH1 0x20 PUSH1 0x40 MLOAD DUP1 DUP4 SUB DUP2 PUSH1 0x0 DUP8 GAS CALL ISZERO DUP1 ISZERO PUSH2 0x797 JUMPI RETURNDATASIZE PUSH1 0x0 DUP1 RETURNDATACOPY RETURNDATASIZE PUSH1 0x0 REVERT JUMPDEST POP POP POP POP PUSH1 0x40 MLOAD RETURNDATASIZE PUSH1 0x1F NOT PUSH1 0x1F DUP3 ADD AND DUP3 ADD DUP1 PUSH1 0x40 MSTORE POP DUP2 ADD SWAP1 PUSH2 0x7BB SWAP2 SWAP1 PUSH2 0x16AE JUMP JUMPDEST PUSH2 0x7D7 JUMPI PUSH1 0x40 MLOAD PUSH3 0x461BCD PUSH1 0xE5 SHL DUP2 MSTORE PUSH1 0x4 ADD PUSH2 0x419 SWAP1 PUSH2 0x16CB JUMP JUMPDEST PUSH1 0x40 DUP1 MLOAD DUP3 DUP2 MSTORE PUSH1 0x20 DUP2 ADD DUP5 SWAP1 MSTORE CALLER SWAP2 PUSH32 0x4E263F66E088B39F0D0855A71DE61FDD97A363015DB80B9B27791E61C1FEB323 SWAP2 ADD PUSH2 0x614 JUMP JUMPDEST PUSH1 0x0 DUP2 GT PUSH2 0x82F JUMPI PUSH1 0x40 MLOAD PUSH3 0x461BCD PUSH1 0xE5 SHL DUP2 MSTORE PUSH1 0x4 ADD PUSH2 0x419 SWAP1 PUSH2 0x162A JUMP JUMPDEST CALLER PUSH1 0x0 SWAP1 DUP2 MSTORE PUSH1 0x7 PUSH1 0x20 MSTORE PUSH1 0x40 SWAP1 KECCAK256 SLOAD DUP1 PUSH2 0x876 JUMPI PUSH1 0x40 MLOAD PUSH3 0x461BCD PUSH1 0xE5 SHL DUP2 MSTORE PUSH1 0x20 PUSH1 0x4 DUP3 ADD MSTORE PUSH1 0x7 PUSH1 0x24 DUP3 ADD MSTORE PUSH7 0x1B9BC81919589D PUSH1 0xCA SHL PUSH1 0x44 DUP3 ADD MSTORE PUSH1 0x64 ADD PUSH2 0x419 JUMP JUMPDEST PUSH1 0x0 PUSH2 0x2710 PUSH1 0x8 SLOAD DUP4 PUSH2 0x889 SWAP2 SWAP1 PUSH2 0x1662 JUMP JUMPDEST PUSH2 0x893 SWAP2 SWAP1 PUSH2 0x1679 JUMP JUMPDEST PUSH2 0x89D SWAP1 DUP4 PUSH2 0x16F2 JUMP JUMPDEST SWAP1 POP DUP1 DUP4 LT ISZERO PUSH2 0x8E4 JUMPI PUSH1 0x40 MLOAD PUSH3 0x461BCD PUSH1 0xE5 SHL DUP2 MSTORE PUSH1 0x20 PUSH1 0x4 DUP3 ADD MSTORE PUSH1 0x12 PUSH1 0x24 DUP3 ADD MSTORE PUSH18 0x696E73756666696369656E74207265706179 PUSH1 0x70 SHL PUSH1 0x44 DUP3 ADD MSTORE PUSH1 0x64 ADD PUSH2 0x419 JUMP JUMPDEST PUSH1 0x40 MLOAD PUSH4 0x23B872DD PUSH1 0xE0 SHL DUP2 MSTORE CALLER PUSH1 0x4 DUP3 ADD MSTORE ADDRESS PUSH1 0x24 DUP3 ADD MSTORE PUSH1 0x44 DUP2 ADD DUP5 SWAP1 MSTORE PUSH1 0x0 SWAP1 PUSH32 0x0 PUSH1 0x1 PUSH1 0x1 PUSH1 0xA0 SHL SUB AND SWAP1 PUSH4 0x23B872DD SWAP1 PUSH1 0x64 ADD PUSH1 0x20 PUSH1 0x40 MLOAD DUP1 DUP4 SUB DUP2 PUSH1 0x0 DUP8 GAS CALL ISZERO DUP1 ISZERO PUSH2 0x95A JUMPI RETURNDATASIZE PUSH1 0x0 DUP1 RETURNDATACOPY RETURNDATASIZE PUSH1 0x0 REVERT JUMPDEST POP POP POP POP PUSH1 0x40 MLOAD RETURNDATASIZE PUSH1 0x1F NOT PUSH1 0x1F DUP3 ADD AND DUP3 ADD DUP1 PUSH1 0x40 MSTORE POP DUP2 ADD SWAP1 PUSH2 0x97E SWAP2 SWAP1 PUSH2 0x16AE JUMP JUMPDEST SWAP1 POP DUP1 PUSH2 0x9C1 JUMPI PUSH1 0x40 MLOAD PUSH3 0x461BCD PUSH1 0xE5 SHL DUP2 MSTORE PUSH1 0x20 PUSH1 0x4 DUP3 ADD MSTORE PUSH1 0x11 PUSH1 0x24 DUP3 ADD MSTORE PUSH17 0x1D1C985B9CD9995C919C9BDB4819985A5B PUSH1 0x7A SHL PUSH1 0x44 DUP3 ADD MSTORE PUSH1 0x64 ADD PUSH2 0x419 JUMP JUMPDEST CALLER PUSH1 0x0 SWAP1 DUP2 MSTORE PUSH1 0x7 PUSH1 0x20 MSTORE PUSH1 0x40 DUP2 KECCAK256 DUP2 SWAP1 SSTORE PUSH1 0x4 DUP1 SLOAD DUP7 SWAP3 SWAP1 PUSH2 0x9E5 SWAP1 DUP5 SWAP1 PUSH2 0x16F2 JUMP JUMPDEST SWAP1 SWAP2 SSTORE POP POP PUSH1 0x40 MLOAD DUP5 DUP2 MSTORE CALLER SWAP1 PUSH32 0x516911BCC3A0A7412A44601057C0A0A1EC628BDE049A84284BC428866534488 SWAP1 PUSH1 0x20 ADD PUSH1 0x40 MLOAD DUP1 SWAP2 SUB SWAP1 LOG2 POP POP POP POP JUMP JUMPDEST CALLER PUSH1 0x1 PUSH1 0x1 PUSH1 0xA0 SHL SUB PUSH32 0x0 AND EQ PUSH2 0xA8A JUMPI PUSH1 0x40 MLOAD PUSH3 0x461BCD PUSH1 0xE5 SHL DUP2 MSTORE PUSH1 0x20 PUSH1 0x4 DUP3 ADD MSTORE PUSH1 0xA PUSH1 0x24 DUP3 ADD MSTORE PUSH10 0x27B7363C9030B236B4B7 PUSH1 0xB1 SHL PUSH1 0x44 DUP3 ADD MSTORE PUSH1 0x64 ADD PUSH2 0x419 JUMP JUMPDEST PUSH1 0x0 DUP1 SLOAD PUSH1 0x1 ADD SWAP1 SSTORE JUMP JUMPDEST CALLER PUSH1 0x1 PUSH1 0x1 PUSH1 0xA0 SHL SUB PUSH32 0x0 AND EQ PUSH2 0xAFA JUMPI PUSH1 0x40 MLOAD PUSH3 0x461BCD PUSH1 0xE5 SHL DUP2 MSTORE PUSH1 0x20 PUSH1 0x4 DUP3 ADD MSTORE PUSH1 0xA PUSH1 0x24 DUP3 ADD MSTORE PUSH10 0x27B7363C9030B236B4B7 PUSH1 0xB1 SHL PUSH1 0x44 DUP3 ADD MSTORE PUSH1 0x64 ADD PUSH2 0x419 JUMP JUMPDEST PUSH1 0x1 PUSH1 0x1 PUSH1 0xA0 SHL SUB DUP3 AND PUSH1 0x0 DUP2 DUP2 MSTORE PUSH1 0x1 PUSH1 0x20 SWAP1 DUP2 MSTORE PUSH1 0x40 SWAP2 DUP3 SWAP1 KECCAK256 DUP1 SLOAD PUSH1 0xFF NOT AND DUP6 ISZERO ISZERO SWAP1 DUP2 OR SWAP1 SWAP2 SSTORE SWAP2 MLOAD SWAP2 DUP3 MSTORE PUSH32 0xB266B84E4EBE1CE46621CD60B98A479F375F552E5EF00830EDEBDFEF8C772781 SWAP2 ADD PUSH2 0x614 JUMP JUMPDEST PUSH1 0x0 DUP1 PUSH32 0x0 PUSH1 0x1 PUSH1 0x1 PUSH1 0xA0 SHL SUB AND PUSH4 0x313CE567 PUSH1 0x40 MLOAD DUP2 PUSH4 0xFFFFFFFF AND PUSH1 0xE0 SHL DUP2 MSTORE PUSH1 0x4 ADD PUSH1 0x20 PUSH1 0x40 MLOAD DUP1 DUP4 SUB DUP2 DUP7 GAS STATICCALL ISZERO DUP1 ISZERO PUSH2 0xBB3 JUMPI RETURNDATASIZE PUSH1 0x0 DUP1 RETURNDATACOPY RETURNDATASIZE PUSH1 0x0 REVERT JUMPDEST POP POP POP POP PUSH1 0x40 MLOAD RETURNDATASIZE PUSH1 0x1F NOT PUSH1 0x1F DUP3 ADD AND DUP3 ADD DUP1 PUSH1 0x40 MSTORE POP DUP2 ADD SWAP1 PUSH2 0xBD7 SWAP2 SWAP1 PUSH2 0x1705 JUMP JUMPDEST SWAP1 POP PUSH1 0x0 PUSH1 0x64 PUSH2 0xBE8 DUP4 PUSH1 0xA PUSH2 0x180C JUMP JUMPDEST PUSH2 0xBF1 DUP7 PUSH2 0x11AE JUMP JUMPDEST PUSH2 0xBFB SWAP2 SWAP1 PUSH2 0x1662 JUMP JUMPDEST PUSH2 0xC05 SWAP2 SWAP1 PUSH2 0x1679 JUMP JUMPDEST SWAP1 POP PUSH1 0x4 SLOAD DUP2 GT ISZERO PUSH2 0xC1C JUMPI POP POP PUSH1 0x4 SLOAD SWAP3 SWAP2 POP POP JUMP JUMPDEST SWAP4 SWAP3 POP POP POP JUMP JUMPDEST PUSH2 0xC2C DUP2 PUSH2 0x14E9 JUMP JUMPDEST PUSH1 0x1 PUSH1 0x1 PUSH1 0xA0 SHL SUB DUP2 AND PUSH1 0x0 SWAP1 DUP2 MSTORE PUSH1 0x2 PUSH1 0x20 SWAP1 DUP2 MSTORE PUSH1 0x40 DUP1 DUP4 KECCAK256 DUP4 SLOAD DUP5 MSTORE PUSH1 0x4 DUP2 ADD DUP4 MSTORE DUP2 DUP5 KECCAK256 CALLER DUP6 MSTORE SWAP1 SWAP3 MSTORE SWAP1 SWAP2 KECCAK256 SLOAD PUSH1 0xFF AND ISZERO PUSH2 0xCA1 JUMPI PUSH1 0x40 MLOAD PUSH3 0x461BCD PUSH1 0xE5 SHL DUP2 MSTORE PUSH1 0x20 PUSH1 0x4 DUP3 ADD MSTORE PUSH1 0x10 PUSH1 0x24 DUP3 ADD MSTORE PUSH16 0x105B1C9958591E48195B991BDC9CD959 PUSH1 0x82 SHL PUSH1 0x44 DUP3 ADD MSTORE PUSH1 0x64 ADD PUSH2 0x419 JUMP JUMPDEST PUSH1 0x0 DUP1 SLOAD DUP2 MSTORE PUSH1 0x4 DUP3 ADD PUSH1 0x20 SWAP1 DUP2 MSTORE PUSH1 0x40 DUP1 DUP4 KECCAK256 CALLER DUP1 DUP6 MSTORE SWAP3 MSTORE DUP1 DUP4 KECCAK256 DUP1 SLOAD PUSH1 0xFF NOT AND PUSH1 0x1 SWAP1 DUP2 OR SWAP1 SWAP2 SSTORE PUSH1 0x3 DUP6 ADD DUP1 SLOAD SWAP1 SWAP2 ADD SWAP1 SSTORE MLOAD PUSH1 0x1 PUSH1 0x1 PUSH1 0xA0 SHL SUB DUP6 AND SWAP3 PUSH32 0x23BCA93D1F21AE32B587BCFA6C4C3310685B7D09D5A18B30F748E0AF6D7EE0FB SWAP2 LOG3 POP POP JUMP JUMPDEST PUSH1 0x0 PUSH1 0x5 SLOAD PUSH1 0x0 SUB PUSH2 0xD1E JUMPI POP PUSH1 0x0 SWAP2 SWAP1 POP JUMP JUMPDEST PUSH1 0x5 SLOAD PUSH1 0x4 SLOAD PUSH1 0x1 PUSH1 0x1 PUSH1 0xA0 SHL SUB DUP5 AND PUSH1 0x0 SWAP1 DUP2 MSTORE PUSH1 0x6 PUSH1 0x20 MSTORE PUSH1 0x40 SWAP1 KECCAK256 SLOAD PUSH2 0xD47 SWAP2 SWAP1 PUSH2 0x1662 JUMP JUMPDEST PUSH2 0xD51 SWAP2 SWAP1 PUSH2 0x1679 JUMP JUMPDEST SWAP3 SWAP2 POP POP JUMP JUMPDEST PUSH2 0xD60 CALLER PUSH2 0x14E9 JUMP JUMPDEST CALLER PUSH1 0x0 DUP2 DUP2 MSTORE PUSH1 0x2 PUSH1 0x20 SWAP1 DUP2 MSTORE PUSH1 0x40 DUP1 DUP4 KECCAK256 DUP4 SLOAD DUP5 MSTORE PUSH1 0x4 DUP2 ADD DUP4 MSTORE DUP2 DUP5 KECCAK256 SWAP5 DUP5 MSTORE SWAP4 SWAP1 SWAP2 MSTORE SWAP1 KECCAK256 SLOAD PUSH1 0xFF AND ISZERO PUSH2 0xDD1 JUMPI PUSH1 0x40 MLOAD PUSH3 0x461BCD PUSH1 0xE5 SHL DUP2 MSTORE PUSH1 0x20 PUSH1 0x4 DUP3 ADD MSTORE PUSH1 0x15 PUSH1 0x24 DUP3 ADD MSTORE PUSH21 0x105B1C9958591E481CD95B198B595B991BDC9CD959 PUSH1 0x5A SHL PUSH1 0x44 DUP3 ADD MSTORE PUSH1 0x64 ADD PUSH2 0x419 JUMP JUMPDEST PUSH1 0x0 DUP1 SLOAD DUP2 MSTORE PUSH1 0x4 DUP3 ADD PUSH1 0x20 SWAP1 DUP2 MSTORE PUSH1 0x40 DUP1 DUP4 KECCAK256 CALLER DUP1 DUP6 MSTORE SWAP3 MSTORE DUP1 DUP4 KECCAK256 DUP1 SLOAD PUSH1 0xFF NOT AND PUSH1 0x1 SWAP1 DUP2 OR SWAP1 SWAP2 SSTORE PUSH1 0x3 DUP6 ADD DUP1 SLOAD SWAP1 SWAP2 ADD SWAP1 SSTORE MLOAD SWAP1 SWAP2 DUP3 SWAP2 PUSH32 0x23BCA93D1F21AE32B587BCFA6C4C3310685B7D09D5A18B30F748E0AF6D7EE0FB SWAP2 SWAP1 LOG3 POP JUMP JUMPDEST CALLER PUSH1 0x0 SWAP1 DUP2 MSTORE PUSH1 0x1 PUSH1 0x20 MSTORE PUSH1 0x40 SWAP1 KECCAK256 SLOAD PUSH1 0xFF AND PUSH2 0xE83 JUMPI PUSH1 0x40 MLOAD PUSH3 0x461BCD PUSH1 0xE5 SHL DUP2 MSTORE PUSH1 0x20 PUSH1 0x4 DUP3 ADD MSTORE PUSH1 0xE PUSH1 0x24 DUP3 ADD MSTORE PUSH14 0x139BDD08185D5D1A1BDC9A5E9959 PUSH1 0x92 SHL PUSH1 0x44 DUP3 ADD MSTORE PUSH1 0x64 ADD PUSH2 0x419 JUMP JUMPDEST PUSH2 0xE8C DUP5 PUSH2 0x14E9 JUMP JUMPDEST PUSH2 0xE95 DUP4 PUSH2 0x14E9 JUMP JUMPDEST PUSH1 0x1 PUSH1 0x1 PUSH1 0xA0 SHL SUB DUP5 DUP2 AND PUSH1 0x0 DUP2 DUP2 MSTORE PUSH1 0x2 PUSH1 0x20 DUP2 DUP2 MSTORE PUSH1 0x40 DUP1 DUP5 KECCAK256 DUP10 DUP8 AND DUP1 DUP7 MSTORE SWAP5 DUP3 SWAP1 KECCAK256 DUP2 SLOAD PUSH1 0x1 SWAP1 DUP2 ADD DUP4 SSTORE DUP1 DUP3 ADD DUP1 SLOAD SWAP1 SWAP2 ADD SWAP1 SSTORE DUP2 DUP6 ADD DUP1 SLOAD DUP11 ADD SWAP1 SSTORE SWAP4 DUP5 ADD DUP1 SLOAD DUP10 ADD SWAP1 SSTORE DUP2 MLOAD SWAP7 DUP10 AND DUP8 MSTORE SWAP2 DUP7 ADD DUP8 SWAP1 MSTORE SWAP1 SWAP5 SWAP2 SWAP4 SWAP2 PUSH32 0xBB9A3E9AC9F016F7BC97843A50400E2C550E4C875A845B4AA82CC3C39F8DCFF1 SWAP2 ADD PUSH1 0x40 MLOAD DUP1 SWAP2 SUB SWAP1 LOG3 POP POP POP POP POP POP JUMP JUMPDEST CALLER PUSH1 0x0 SWAP1 DUP2 MSTORE PUSH1 0x7 PUSH1 0x20 MSTORE PUSH1 0x40 SWAP1 KECCAK256 SLOAD ISZERO PUSH2 0xF70 JUMPI PUSH1 0x40 MLOAD PUSH3 0x461BCD PUSH1 0xE5 SHL DUP2 MSTORE PUSH1 0x20 PUSH1 0x4 DUP3 ADD MSTORE PUSH1 0xB PUSH1 0x24 DUP3 ADD MSTORE PUSH11 0x4465627420657869737473 PUSH1 0xA8 SHL PUSH1 0x44 DUP3 ADD MSTORE PUSH1 0x64 ADD PUSH2 0x419 JUMP JUMPDEST PUSH1 0x0 PUSH2 0xF7B CALLER PUSH2 0xB52 JUMP JUMPDEST SWAP1 POP PUSH1 0x0 DUP3 GT DUP1 ISZERO PUSH2 0xF8D JUMPI POP DUP1 DUP3 GT ISZERO JUMPDEST PUSH2 0xFC9 JUMPI PUSH1 0x40 MLOAD PUSH3 0x461BCD PUSH1 0xE5 SHL DUP2 MSTORE PUSH1 0x20 PUSH1 0x4 DUP3 ADD MSTORE PUSH1 0xD PUSH1 0x24 DUP3 ADD MSTORE PUSH13 0x195E18D959591CC81B1A5B5A5D PUSH1 0x9A SHL PUSH1 0x44 DUP3 ADD MSTORE PUSH1 0x64 ADD PUSH2 0x419 JUMP JUMPDEST CALLER PUSH1 0x0 SWAP1 DUP2 MSTORE PUSH1 0x7 PUSH1 0x20 MSTORE PUSH1 0x40 DUP2 KECCAK256 DUP4 SWAP1 SSTORE PUSH1 0x4 DUP1 SLOAD DUP5 SWAP3 SWAP1 PUSH2 0xFED SWAP1 DUP5 SWAP1 PUSH2 0x169B JUMP JUMPDEST SWAP1 SWAP2 SSTORE POP POP PUSH1 0x40 MLOAD PUSH4 0xA9059CBB PUSH1 0xE0 SHL DUP2 MSTORE CALLER PUSH1 0x4 DUP3 ADD MSTORE PUSH1 0x24 DUP2 ADD DUP4 SWAP1 MSTORE PUSH32 0x0 PUSH1 0x1 PUSH1 0x1 PUSH1 0xA0 SHL SUB AND SWAP1 PUSH4 0xA9059CBB SWAP1 PUSH1 0x44 ADD PUSH1 0x20 PUSH1 0x40 MLOAD DUP1 DUP4 SUB DUP2 PUSH1 0x0 DUP8 GAS CALL ISZERO DUP1 ISZERO PUSH2 0x105F JUMPI RETURNDATASIZE PUSH1 0x0 DUP1 RETURNDATACOPY RETURNDATASIZE PUSH1 0x0 REVERT JUMPDEST POP POP POP POP PUSH1 0x40 MLOAD RETURNDATASIZE PUSH1 0x1F NOT PUSH1 0x1F DUP3 ADD AND DUP3 ADD DUP1 PUSH1 0x40 MSTORE POP DUP2 ADD SWAP1 PUSH2 0x1083 SWAP2 SWAP1 PUSH2 0x16AE JUMP JUMPDEST PUSH2 0x109F JUMPI PUSH1 0x40 MLOAD PUSH3 0x461BCD PUSH1 0xE5 SHL DUP2 MSTORE PUSH1 0x4 ADD PUSH2 0x419 SWAP1 PUSH2 0x16CB JUMP JUMPDEST PUSH1 0x40 MLOAD DUP3 DUP2 MSTORE CALLER SWAP1 PUSH32 0xAC59582E5396ACA512FA873A2047E7F4C80F8F55D4A06CB34A78A0187F62719F SWAP1 PUSH1 0x20 ADD PUSH2 0x614 JUMP JUMPDEST PUSH2 0x10DA DUP2 PUSH2 0x14E9 JUMP JUMPDEST PUSH1 0x1 PUSH1 0x1 PUSH1 0xA0 SHL SUB DUP2 AND PUSH1 0x0 SWAP1 DUP2 MSTORE PUSH1 0x2 PUSH1 0x20 SWAP1 DUP2 MSTORE PUSH1 0x40 DUP1 DUP4 KECCAK256 DUP4 SLOAD DUP5 MSTORE PUSH1 0x4 DUP2 ADD DUP4 MSTORE DUP2 DUP5 KECCAK256 CALLER DUP6 MSTORE SWAP1 SWAP3 MSTORE SWAP1 SWAP2 KECCAK256 SLOAD PUSH1 0xFF AND PUSH2 0x114A JUMPI PUSH1 0x40 MLOAD PUSH3 0x461BCD PUSH1 0xE5 SHL DUP2 MSTORE PUSH1 0x20 PUSH1 0x4 DUP3 ADD MSTORE PUSH1 0xC PUSH1 0x24 DUP3 ADD MSTORE PUSH12 0x139BDD08195B991BDC9CD959 PUSH1 0xA2 SHL PUSH1 0x44 DUP3 ADD MSTORE PUSH1 0x64 ADD PUSH2 0x419 JUMP JUMPDEST PUSH1 0x0 DUP1 SLOAD DUP2 MSTORE PUSH1 0x4 DUP3 ADD PUSH1 0x20 SWAP1 DUP2 MSTORE PUSH1 0x40 DUP1 DUP4 KECCAK256 CALLER DUP1 DUP6 MSTORE SWAP3 MSTORE DUP1 DUP4 KECCAK256 DUP1 SLOAD PUSH1 0xFF NOT AND SWAP1 SSTORE PUSH1 0x3 DUP5 ADD DUP1 SLOAD PUSH1 0x0 NOT ADD SWAP1 SSTORE MLOAD PUSH1 0x1 PUSH1 0x1 PUSH1 0xA0 SHL SUB DUP6 AND SWAP3 PUSH32 0x97394CBFEF09957A2F2C87DE5C38650F389066007313A045CFBE05E0599C48DF SWAP2 LOG3 POP POP JUMP JUMPDEST PUSH1 0x0 DUP1 SLOAD PUSH1 0x1 PUSH1 0x1 PUSH1 0xA0 SHL SUB DUP4 AND DUP3 MSTORE PUSH1 0x3 PUSH1 0x20 MSTORE PUSH1 0x40 DUP3 KECCAK256 SLOAD DUP3 SWAP2 SWAP1 SUB PUSH2 0x1251 JUMPI PUSH1 0x1 PUSH1 0x1 PUSH1 0xA0 SHL SUB DUP4 AND PUSH1 0x0 SWAP1 DUP2 MSTORE PUSH1 0x2 PUSH1 0x20 DUP2 SWAP1 MSTORE PUSH1 0x40 SWAP1 SWAP2 KECCAK256 SWAP1 DUP2 ADD SLOAD PUSH2 0x1203 SWAP1 PUSH9 0x56BC75E2D63100000 SWAP1 PUSH2 0x1679 JUMP JUMPDEST PUSH1 0x3 DUP3 ADD SLOAD PUSH2 0x1213 SWAP1 PUSH1 0xA PUSH2 0x1662 JUMP JUMPDEST PUSH1 0x1 DUP1 DUP5 ADD SLOAD PUSH2 0x1222 SWAP2 PUSH2 0x1662 JUMP JUMPDEST DUP4 SLOAD PUSH2 0x122F SWAP1 PUSH1 0x2 PUSH2 0x1662 JUMP JUMPDEST PUSH2 0x1239 SWAP2 SWAP1 PUSH2 0x16F2 JUMP JUMPDEST PUSH2 0x1243 SWAP2 SWAP1 PUSH2 0x16F2 JUMP JUMPDEST PUSH2 0x124D SWAP2 SWAP1 PUSH2 0x16F2 JUMP JUMPDEST SWAP2 POP POP JUMPDEST PUSH1 0x0 DUP1 SLOAD PUSH1 0x1 PUSH1 0x1 PUSH1 0xA0 SHL SUB DUP6 AND DUP3 MSTORE PUSH1 0xA PUSH1 0x20 MSTORE PUSH1 0x40 SWAP1 SWAP2 KECCAK256 SLOAD SUB PUSH2 0xD51 JUMPI PUSH1 0x1 PUSH1 0x1 PUSH1 0xA0 SHL SUB DUP4 AND PUSH1 0x0 SWAP1 DUP2 MSTORE PUSH1 0x9 PUSH1 0x20 MSTORE PUSH1 0x40 SWAP1 KECCAK256 SLOAD PUSH2 0xC1C SWAP1 DUP3 PUSH2 0x16F2 JUMP JUMPDEST PUSH1 0x0 DUP2 GT PUSH2 0x12B4 JUMPI PUSH1 0x40 MLOAD PUSH3 0x461BCD PUSH1 0xE5 SHL DUP2 MSTORE PUSH1 0x4 ADD PUSH2 0x419 SWAP1 PUSH2 0x162A JUMP JUMPDEST PUSH1 0x40 MLOAD PUSH4 0x23B872DD PUSH1 0xE0 SHL DUP2 MSTORE CALLER PUSH1 0x4 DUP3 ADD MSTORE ADDRESS PUSH1 0x24 DUP3 ADD MSTORE PUSH1 0x44 DUP2 ADD DUP3 SWAP1 MSTORE PUSH1 0x0 SWAP1 PUSH32 0x0 PUSH1 0x1 PUSH1 0x1 PUSH1 0xA0 SHL SUB AND SWAP1 PUSH4 0x23B872DD SWAP1 PUSH1 0x64 ADD PUSH1 0x20 PUSH1 0x40 MLOAD DUP1 DUP4 SUB DUP2 PUSH1 0x0 DUP8 GAS CALL ISZERO DUP1 ISZERO PUSH2 0x132A JUMPI RETURNDATASIZE PUSH1 0x0 DUP1 RETURNDATACOPY RETURNDATASIZE PUSH1 0x0 REVERT JUMPDEST POP POP POP POP PUSH1 0x40 MLOAD RETURNDATASIZE PUSH1 0x1F NOT PUSH1 0x1F DUP3 ADD AND DUP3 ADD DUP1 PUSH1 0x40 MSTORE POP DUP2 ADD SWAP1 PUSH2 0x134E SWAP2 SWAP1 PUSH2 0x16AE JUMP JUMPDEST SWAP1 POP DUP1 PUSH2 0x1391 JUMPI PUSH1 0x40 MLOAD PUSH3 0x461BCD PUSH1 0xE5 SHL DUP2 MSTORE PUSH1 0x20 PUSH1 0x4 DUP3 ADD MSTORE PUSH1 0x11 PUSH1 0x24 DUP3 ADD MSTORE PUSH17 0x1D1C985B9CD9995C919C9BDB4819985A5B PUSH1 0x7A SHL PUSH1 0x44 DUP3 ADD MSTORE PUSH1 0x64 ADD PUSH2 0x419 JUMP JUMPDEST PUSH1 0x0 PUSH1 0x5 SLOAD PUSH1 0x0 EQ DUP1 PUSH2 0x13A4 JUMPI POP PUSH1 0x4 SLOAD ISZERO JUMPDEST ISZERO PUSH2 0x13B0 JUMPI POP DUP2 PUSH2 0x13CD JUMP JUMPDEST PUSH1 0x4 SLOAD PUSH1 0x5 SLOAD PUSH2 0x13C0 SWAP1 DUP6 PUSH2 0x1662 JUMP JUMPDEST PUSH2 0x13CA SWAP2 SWAP1 PUSH2 0x1679 JUMP JUMPDEST SWAP1 POP JUMPDEST PUSH1 0x0 DUP2 GT PUSH2 0x1408 JUMPI PUSH1 0x40 MLOAD PUSH3 0x461BCD PUSH1 0xE5 SHL DUP2 MSTORE PUSH1 0x20 PUSH1 0x4 DUP3 ADD MSTORE PUSH1 0x8 PUSH1 0x24 DUP3 ADD MSTORE PUSH8 0x7368617265733D3 PUSH1 0xC4 SHL PUSH1 0x44 DUP3 ADD MSTORE PUSH1 0x64 ADD PUSH2 0x419 JUMP JUMPDEST DUP3 PUSH1 0x4 PUSH1 0x0 DUP3 DUP3 SLOAD PUSH2 0x141A SWAP2 SWAP1 PUSH2 0x16F2 JUMP JUMPDEST SWAP3 POP POP DUP2 SWAP1 SSTORE POP DUP1 PUSH1 0x5 PUSH1 0x0 DUP3 DUP3 SLOAD PUSH2 0x1433 SWAP2 SWAP1 PUSH2 0x16F2 JUMP JUMPDEST SWAP1 SWAP2 SSTORE POP POP CALLER PUSH1 0x0 SWAP1 DUP2 MSTORE PUSH1 0x6 PUSH1 0x20 MSTORE PUSH1 0x40 DUP2 KECCAK256 DUP1 SLOAD DUP4 SWAP3 SWAP1 PUSH2 0x1457 SWAP1 DUP5 SWAP1 PUSH2 0x16F2 JUMP JUMPDEST SWAP1 SWAP2 SSTORE POP POP PUSH1 0x0 DUP1 SLOAD CALLER DUP3 MSTORE PUSH1 0xA PUSH1 0x20 MSTORE PUSH1 0x40 SWAP1 SWAP2 KECCAK256 SLOAD EQ PUSH2 0x1494 JUMPI CALLER PUSH1 0x0 SWAP1 DUP2 MSTORE PUSH1 0x9 PUSH1 0x20 SWAP1 DUP2 MSTORE PUSH1 0x40 DUP1 DUP4 KECCAK256 DUP4 SWAP1 SSTORE DUP3 SLOAD PUSH1 0xA SWAP1 SWAP3 MSTORE SWAP1 SWAP2 KECCAK256 SSTORE JUMPDEST CALLER PUSH1 0x0 DUP2 DUP2 MSTORE PUSH1 0x9 PUSH1 0x20 SWAP1 DUP2 MSTORE PUSH1 0x40 SWAP2 DUP3 SWAP1 KECCAK256 DUP1 SLOAD PUSH1 0x14 ADD SWAP1 SSTORE DUP2 MLOAD DUP7 DUP2 MSTORE SWAP1 DUP2 ADD DUP5 SWAP1 MSTORE PUSH32 0xCE66F10AE4269EC7BFD83E4659AED202BD4EFB93D241BAE453642969C2F079D3 SWAP2 ADD PUSH1 0x40 MLOAD DUP1 SWAP2 SUB SWAP1 LOG2 POP POP POP JUMP JUMPDEST PUSH1 0x0 DUP1 SLOAD PUSH1 0x1 PUSH1 0x1 PUSH1 0xA0 SHL SUB DUP4 AND DUP3 MSTORE PUSH1 0x3 PUSH1 0x20 MSTORE PUSH1 0x40 SWAP1 SWAP2 KECCAK256 SLOAD EQ PUSH2 0x1547 JUMPI PUSH1 0x1 PUSH1 0x1 PUSH1 0xA0 SHL SUB DUP2 AND PUSH1 0x0 SWAP1 DUP2 MSTORE PUSH1 0x2 PUSH1 0x20 DUP2 DUP2 MSTORE PUSH1 0x40 DUP1 DUP5 KECCAK256 DUP5 DUP2 SSTORE PUSH1 0x1 DUP2 ADD DUP6 SWAP1 SSTORE SWAP3 DUP4 ADD DUP5 SWAP1 SSTORE PUSH1 0x3 SWAP3 DUP4 ADD DUP5 SWAP1 SSTORE DUP4 SLOAD SWAP3 SWAP1 SWAP2 MSTORE SWAP1 SWAP2 KECCAK256 SSTORE JUMPDEST POP JUMP JUMPDEST PUSH1 0x0 PUSH1 0x20 DUP3 DUP5 SUB SLT ISZERO PUSH2 0x155C JUMPI PUSH1 0x0 DUP1 REVERT JUMPDEST POP CALLDATALOAD SWAP2 SWAP1 POP JUMP JUMPDEST DUP1 CALLDATALOAD PUSH1 0x1 PUSH1 0x1 PUSH1 0xA0 SHL SUB DUP2 AND DUP2 EQ PUSH2 0x157A JUMPI PUSH1 0x0 DUP1 REVERT JUMPDEST SWAP2 SWAP1 POP JUMP JUMPDEST PUSH1 0x0 PUSH1 0x20 DUP3 DUP5 SUB SLT ISZERO PUSH2 0x1591 JUMPI PUSH1 0x0 DUP1 REVERT JUMPDEST PUSH2 0xC1C DUP3 PUSH2 0x1563 JUMP JUMPDEST DUP1 ISZERO ISZERO DUP2 EQ PUSH2 0x1547 JUMPI PUSH1 0x0 DUP1 REVERT JUMPDEST PUSH1 0x0 DUP1 PUSH1 0x40 DUP4 DUP6 SUB SLT ISZERO PUSH2 0x15BB JUMPI PUSH1 0x0 DUP1 REVERT JUMPDEST PUSH2 0x15C4 DUP4 PUSH2 0x1563 JUMP JUMPDEST SWAP2 POP PUSH1 0x20 DUP4 ADD CALLDATALOAD PUSH2 0x15D4 DUP2 PUSH2 0x159A JUMP JUMPDEST DUP1 SWAP2 POP POP SWAP3 POP SWAP3 SWAP1 POP JUMP JUMPDEST PUSH1 0x0 DUP1 PUSH1 0x0 DUP1 PUSH1 0x80 DUP6 DUP8 SUB SLT ISZERO PUSH2 0x15F5 JUMPI PUSH1 0x0 DUP1 REVERT JUMPDEST PUSH2 0x15FE DUP6 PUSH2 0x1563 JUMP JUMPDEST SWAP4 POP PUSH2 0x160C PUSH1 0x20 DUP7 ADD PUSH2 0x1563 JUMP JUMPDEST SWAP3 POP PUSH2 0x161A PUSH1 0x40 DUP7 ADD PUSH2 0x1563 JUMP JUMPDEST SWAP4 SWAP7 SWAP3 SWAP6 POP SWAP3 SWAP4 PUSH1 0x60 ADD CALLDATALOAD SWAP3 POP POP JUMP JUMPDEST PUSH1 0x20 DUP1 DUP3 MSTORE PUSH1 0x8 SWAP1 DUP3 ADD MSTORE PUSH8 0x616D6F756E743D3 PUSH1 0xC4 SHL PUSH1 0x40 DUP3 ADD MSTORE PUSH1 0x60 ADD SWAP1 JUMP JUMPDEST PUSH4 0x4E487B71 PUSH1 0xE0 SHL PUSH1 0x0 MSTORE PUSH1 0x11 PUSH1 0x4 MSTORE PUSH1 0x24 PUSH1 0x0 REVERT JUMPDEST DUP1 DUP3 MUL DUP2 ISZERO DUP3 DUP3 DIV DUP5 EQ OR PUSH2 0xD51 JUMPI PUSH2 0xD51 PUSH2 0x164C JUMP JUMPDEST PUSH1 0x0 DUP3 PUSH2 0x1696 JUMPI PUSH4 0x4E487B71 PUSH1 0xE0 SHL PUSH1 0x0 MSTORE PUSH1 0x12 PUSH1 0x4 MSTORE PUSH1 0x24 PUSH1 0x0 REVERT JUMPDEST POP DIV SWAP1 JUMP JUMPDEST DUP2 DUP2 SUB DUP2 DUP2 GT ISZERO PUSH2 0xD51 JUMPI PUSH2 0xD51 PUSH2 0x164C JUMP JUMPDEST PUSH1 0x0 PUSH1 0x20 DUP3 DUP5 SUB SLT ISZERO PUSH2 0x16C0 JUMPI PUSH1 0x0 DUP1 REVERT JUMPDEST DUP2 MLOAD PUSH2 0xC1C DUP2 PUSH2 0x159A JUMP JUMPDEST PUSH1 0x20 DUP1 DUP3 MSTORE PUSH1 0xD SWAP1 DUP3 ADD MSTORE PUSH13 0x1D1C985B9CD9995C8819985A5B PUSH1 0x9A SHL PUSH1 0x40 DUP3 ADD MSTORE PUSH1 0x60 ADD SWAP1 JUMP JUMPDEST DUP1 DUP3 ADD DUP1 DUP3 GT ISZERO PUSH2 0xD51 JUMPI PUSH2 0xD51 PUSH2 0x164C JUMP JUMPDEST PUSH1 0x0 PUSH1 0x20 DUP3 DUP5 SUB SLT ISZERO PUSH2 0x1717 JUMPI PUSH1 0x0 DUP1 REVERT JUMPDEST DUP2 MLOAD PUSH1 0xFF DUP2 AND DUP2 EQ PUSH2 0xC1C JUMPI PUSH1 0x0 DUP1 REVERT JUMPDEST PUSH1 0x1 DUP2 DUP2 JUMPDEST DUP1 DUP6 GT ISZERO PUSH2 0x1763 JUMPI DUP2 PUSH1 0x0 NOT DIV DUP3 GT ISZERO PUSH2 0x1749 JUMPI PUSH2 0x1749 PUSH2 0x164C JUMP JUMPDEST DUP1 DUP6 AND ISZERO PUSH2 0x1756 JUMPI SWAP2 DUP2 MUL SWAP2 JUMPDEST SWAP4 DUP5 SHR SWAP4 SWAP1 DUP1 MUL SWAP1 PUSH2 0x172D JUMP JUMPDEST POP SWAP3 POP SWAP3 SWAP1 POP JUMP JUMPDEST PUSH1 0x0 DUP3 PUSH2 0x177A JUMPI POP PUSH1 0x1 PUSH2 0xD51 JUMP JUMPDEST DUP2 PUSH2 0x1787 JUMPI POP PUSH1 0x0 PUSH2 0xD51 JUMP JUMPDEST DUP2 PUSH1 0x1 DUP2 EQ PUSH2 0x179D JUMPI PUSH1 0x2 DUP2 EQ PUSH2 0x17A7 JUMPI PUSH2 0x17C3 JUMP JUMPDEST PUSH1 0x1 SWAP2 POP POP PUSH2 0xD51 JUMP JUMPDEST PUSH1 0xFF DUP5 GT ISZERO PUSH2 0x17B8 JUMPI PUSH2 0x17B8 PUSH2 0x164C JUMP JUMPDEST POP POP PUSH1 0x1 DUP3 SHL PUSH2 0xD51 JUMP JUMPDEST POP PUSH1 0x20 DUP4 LT PUSH2 0x133 DUP4 LT AND PUSH1 0x4E DUP5 LT PUSH1 0xB DUP5 LT AND OR ISZERO PUSH2 0x17E6 JUMPI POP DUP2 DUP2 EXP PUSH2 0xD51 JUMP JUMPDEST PUSH2 0x17F0 DUP4 DUP4 PUSH2 0x1728 JUMP JUMPDEST DUP1 PUSH1 0x0 NOT DIV DUP3 GT ISZERO PUSH2 0x1804 JUMPI PUSH2 0x1804 PUSH2 0x164C JUMP JUMPDEST MUL SWAP4 SWAP3 POP POP POP JUMP JUMPDEST PUSH1 0x0 PUSH2 0xC1C PUSH1 0xFF DUP5 AND DUP4 PUSH2 0x176B JUMP INVALID LOG2 PUSH5 0x6970667358 0x22 SLT KECCAK256 PUSH16 0xE8C3A5B5BD11E72FE0865BCDED783143 JUMPI TLOAD 0x4D SELFDESTRUCT 0xC2 0xB6 EQ BALANCE TLOAD PUSH10 0xEC924F82C464736F6C63 NUMBER STOP ADDMOD XOR STOP CALLER "},"methodIdentifiers":{"admin()":"f851a440","borrow(uint256)":"c5ebeaec","currentEpoch()":"76671808","endorse(address)":"6ea5511f","fundPool(uint256)":"da3a5f72","fundingBonus(address)":"b5a60cc4","fundingBonusEpoch(address)":"846b36c6","getScore(address)":"d47875d0","getUserStakeValue(address)":"7a11cf5b","interestBps()":"29de1371","isAuthorizedCaller(address)":"59d14b41","loanToken()":"06d37817","maxBorrowable(address)":"53696eb8","metricsEpoch(address)":"31bf830f","outstandingDebt(address)":"20b9c82a","repay(uint256)":"371fd8e6","reportPayment(address,address,address,uint256)":"c06cc7d4","resetAllReputation()":"431e216e","selfEndorse()":"8c1c3cc7","setAuthorizedCaller(address,bool)":"454bbd29","totalPool()":"ecfb49a3","totalShares()":"3a98ef39","unendorse(address)":"d100dab3","userShares(address)":"de69b3aa","withdrawAmount(uint256)":"0562b9f7","withdrawShares(uint256)":"19810f3c"}}}}}