{"contracts/EmergencyMode.sol":{"EmergencyMode":{"abi":[{"inputs":[],"stateMutability":"nonpayable","type":"constructor"},{"anonymous":false,"inputs":[{"indexed":true,"internalType":"address","name":"authority","type":"address"},{"indexed":false,"internalType":"bool","name":"allowed","type":"bool"}],"name":"AuthorityUpdated","type":"event"},{"anonymous":false,"inputs":[{"indexed":false,"internalType":"bool","name":"active","type":"bool"},{"indexed":false,"internalType":"uint256","name":"timestamp","type":"uint256"}],"name":"GlobalEmergencySet","type":"event"},{"anonymous":false,"inputs":[{"indexed":true,"internalType":"bytes32","name":"region","type":"bytes32"},{"indexed":false,"internalType":"bool","name":"active","type":"bool"},{"indexed":false,"internalType":"uint256","name":"timestamp","type":"uint256"}],"name":"RegionEmergencySet","type":"event"},{"inputs":[],"name":"admin","outputs":[{"internalType":"address","name":"","type":"address"}],"stateMutability":"view","type":"function"},{"inputs":[],"name":"globalEmergency","outputs":[{"internalType":"bool","name":"","type":"bool"}],"stateMutability":"view","type":"function"},{"inputs":[{"internalType":"address","name":"","type":"address"}],"name":"isAuthority","outputs":[{"internalType":"bool","name":"","type":"bool"}],"stateMutability":"view","type":"function"},{"inputs":[{"internalType":"bytes32","name":"region","type":"bytes32"}],"name":"isEmergency","outputs":[{"internalType":"bool","name":"","type":"bool"}],"stateMutability":"view","type":"function"},{"inputs":[{"internalType":"bytes32","name":"","type":"bytes32"}],"name":"regionEmergency","outputs":[{"internalType":"bool","name":"","type":"bool"}],"stateMutability":"view","type":"function"},{"inputs":[{"internalType":"address","name":"authority","type":"address"},{"internalType":"bool","name":"allowed","type":"bool"}],"name":"setAuthority","outputs":[],"stateMutability":"nonpayable","type":"function"},{"inputs":[{"internalType":"bool","name":"active","type":"bool"}],"name":"setGlobalEmergency","outputs":[],"stateMutability":"nonpayable","type":"function"},{"inputs":[{"internalType":"bytes32","name":"region","type":"bytes32"},{"internalType":"bool","name":"active","type":"bool"}],"name":"setRegionEmergency","outputs":[],"stateMutability":"nonpayable","type":"function"}],"evm":{"bytecode":{"linkReferences":{},"object":"60a060405234801561001057600080fd5b503360805260805161052a610045600039600081816101480152818161018d0152818161029b015261036a015261052a6000f3fe608060405234801561001057600080fd5b50600436106100885760003560e01c8063acbf1bbc1161005b578063acbf1bbc146100fa578063b5f0d35c1461010d578063e3ff02ba14610120578063f851a4401461014357600080fd5b80632330f2471461008d578063509387c4146100c55780635befabc2146100da5780638e43b912146100e7575b600080fd5b6100b061009b366004610438565b60026020526000908152604090205460ff1681565b60405190151581526020015b60405180910390f35b6100d86100d336600461046a565b610182565b005b6000546100b09060ff1681565b6100b06100f5366004610496565b61026a565b6100d86101083660046104af565b610290565b6100d861011b3660046104ca565b61035f565b6100b061012e366004610496565b60016020526000908152604090205460ff1681565b61016a7f000000000000000000000000000000000000000000000000000000000000000081565b6040516001600160a01b0390911681526020016100bc565b336001600160a01b037f00000000000000000000000000000000000000000000000000000000000000001614806101c857503360009081526002602052604090205460ff165b61020a5760405162461bcd60e51b815260206004820152600e60248201526d4f6e6c7920617574686f7269747960901b60448201526064015b60405180910390fd5b600082815260016020908152604091829020805460ff19168415159081179091558251908152429181019190915283917ff2c996101305866ee4e169ba588f51d0ffbf8a3f59ae11430f85f9815f3c3ace91015b60405180910390a25050565b6000805460ff168061028a575060008281526001602052604090205460ff165b92915050565b336001600160a01b037f00000000000000000000000000000000000000000000000000000000000000001614806102d657503360009081526002602052604090205460ff165b6103135760405162461bcd60e51b815260206004820152600e60248201526d4f6e6c7920617574686f7269747960901b6044820152606401610201565b6000805460ff1916821515908117909155604080519182524260208301527f8d4bbceee1104a14012c94eb089fd6104112ac482c4391482ee278fad434f2fc910160405180910390a150565b336001600160a01b037f000000000000000000000000000000000000000000000000000000000000000016146103c45760405162461bcd60e51b815260206004820152600a60248201526927b7363c9030b236b4b760b11b6044820152606401610201565b6001600160a01b038216600081815260026020908152604091829020805460ff191685151590811790915591519182527fc5238a63fa205f95e98807f6cbc91d2ad8555a2250075e47491f11d9c69db3bc910161025e565b80356001600160a01b038116811461043357600080fd5b919050565b60006020828403121561044a57600080fd5b6104538261041c565b9392505050565b8035801515811461043357600080fd5b6000806040838503121561047d57600080fd5b8235915061048d6020840161045a565b90509250929050565b6000602082840312156104a857600080fd5b5035919050565b6000602082840312156104c157600080fd5b6104538261045a565b600080604083850312156104dd57600080fd5b6104e68361041c565b915061048d6020840161045a56fea26469706673582212209a6358509f26ec9c8ccb4734a825cb08f02fc14f60eea36cb39268ad67f14b0864736f6c63430008180033","opcodes":"PUSH1 0xA0 PUSH1 0x40 MSTORE CALLVALUE DUP1 ISZERO PUSH2 0x10 JUMPI PUSH1 0x0 DUP1 REVERT JUMPDEST POP CALLER PUSH1 0x80 MSTORE PUSH1 0x80 MLOAD PUSH2 0x52A PUSH2 0x45 PUSH1 0x0 CODECOPY PUSH1 0x0 DUP2 DUP2 PUSH2 0x148 ADD MSTORE DUP2 DUP2 PUSH2 0x18D ADD MSTORE DUP2 DUP2 PUSH2 0x29B ADD MSTORE PUSH2 0x36A ADD MSTORE PUSH2 0x52A PUSH1 0x0 RETURN INVALID PUSH1 0x80 PUSH1 0x40 MSTORE CALLVALUE DUP1 ISZERO PUSH2 0x10 JUMPI PUSH1 0x0 DUP1 REVERT JUMPDEST POP PUSH1 0x4 CALLDATASIZE LT PUSH2 0x88 JUMPI PUSH1 0x0 CALLDATALOAD PUSH1 0xE0 SHR DUP1 PUSH4 0xACBF1BBC GT PUSH2 0x5B JUMPI DUP1 PUSH4 0xACBF1BBC EQ PUSH2 0xFA JUMPI DUP1 PUSH4 0xB5F0D35C EQ PUSH2 0x10D JUMPI DUP1 PUSH4 0xE3FF02BA EQ PUSH2 0x120 JUMPI DUP1 PUSH4 0xF851A440 EQ PUSH2 0x143 JUMPI PUSH1 0x0 DUP1 REVERT JUMPDEST DUP1 PUSH4 0x2330F247 EQ PUSH2 0x8D JUMPI DUP1 PUSH4 0x509387C4 EQ PUSH2 0xC5 JUMPI DUP1 PUSH4 0x5BEFABC2 EQ PUSH2 0xDA JUMPI DUP1 PUSH4 0x8E43B912 EQ PUSH2 0xE7 JUMPI JUMPDEST PUSH1 0x0 DUP1 REVERT JUMPDEST PUSH2 0xB0 PUSH2 0x9B CALLDATASIZE PUSH1 0x4 PUSH2 0x438 JUMP JUMPDEST PUSH1 0x2 PUSH1 0x20 MSTORE PUSH1 0x0 SWAP1 DUP2 MSTORE PUSH1 0x40 SWAP1 KECCAK256 SLOAD PUSH1 0xFF AND DUP2 JUMP JUMPDEST PUSH1 0x40 MLOAD SWAP1 ISZERO ISZERO DUP2 MSTORE PUSH1 0x20 ADD JUMPDEST PUSH1 0x40 MLOAD DUP1 SWAP2 SUB SWAP1 RETURN JUMPDEST PUSH2 0xD8 PUSH2 0xD3 CALLDATASIZE PUSH1 0x4 PUSH2 0x46A JUMP JUMPDEST PUSH2 0x182 JUMP JUMPDEST STOP JUMPDEST PUSH1 0x0 SLOAD PUSH2 0xB0 SWAP1 PUSH1 0xFF AND DUP2 JUMP JUMPDEST PUSH2 0xB0 PUSH2 0xF5 CALLDATASIZE PUSH1 0x4 PUSH2 0x496 JUMP JUMPDEST PUSH2 0x26A JUMP JUMPDEST PUSH2 0xD8 PUSH2 0x108 CALLDATASIZE PUSH1 0x4 PUSH2 0x4AF JUMP JUMPDEST PUSH2 0x290 JUMP JUMPDEST PUSH2 0xD8 PUSH2 0x11B CALLDATASIZE PUSH1 0x4 PUSH2 0x4CA JUMP JUMPDEST PUSH2 0x35F JUMP JUMPDEST PUSH2 0xB0 PUSH2 0x12E CALLDATASIZE PUSH1 0x4 PUSH2 0x496 JUMP JUMPDEST PUSH1 0x1 PUSH1 0x20 MSTORE PUSH1 0x0 SWAP1 DUP2 MSTORE PUSH1 0x40 SWAP1 KECCAK256 SLOAD PUSH1 0xFF AND DUP2 JUMP JUMPDEST PUSH2 0x16A PUSH32 0x0 DUP2 JUMP JUMPDEST PUSH1 0x40 MLOAD PUSH1 0x1 PUSH1 0x1 PUSH1 0xA0 SHL SUB SWAP1 SWAP2 AND DUP2 MSTORE PUSH1 0x20 ADD PUSH2 0xBC JUMP JUMPDEST CALLER PUSH1 0x1 PUSH1 0x1 PUSH1 0xA0 SHL SUB PUSH32 0x0 AND EQ DUP1 PUSH2 0x1C8 JUMPI POP CALLER PUSH1 0x0 SWAP1 DUP2 MSTORE PUSH1 0x2 PUSH1 0x20 MSTORE PUSH1 0x40 SWAP1 KECCAK256 SLOAD PUSH1 0xFF AND JUMPDEST PUSH2 0x20A JUMPI PUSH1 0x40 MLOAD PUSH3 0x461BCD PUSH1 0xE5 SHL DUP2 MSTORE PUSH1 0x20 PUSH1 0x4 DUP3 ADD MSTORE PUSH1 0xE PUSH1 0x24 DUP3 ADD MSTORE PUSH14 0x4F6E6C7920617574686F72697479 PUSH1 0x90 SHL PUSH1 0x44 DUP3 ADD MSTORE PUSH1 0x64 ADD JUMPDEST PUSH1 0x40 MLOAD DUP1 SWAP2 SUB SWAP1 REVERT JUMPDEST PUSH1 0x0 DUP3 DUP2 MSTORE PUSH1 0x1 PUSH1 0x20 SWAP1 DUP2 MSTORE PUSH1 0x40 SWAP2 DUP3 SWAP1 KECCAK256 DUP1 SLOAD PUSH1 0xFF NOT AND DUP5 ISZERO ISZERO SWAP1 DUP2 OR SWAP1 SWAP2 SSTORE DUP3 MLOAD SWAP1 DUP2 MSTORE TIMESTAMP SWAP2 DUP2 ADD SWAP2 SWAP1 SWAP2 MSTORE DUP4 SWAP2 PUSH32 0xF2C996101305866EE4E169BA588F51D0FFBF8A3F59AE11430F85F9815F3C3ACE SWAP2 ADD JUMPDEST PUSH1 0x40 MLOAD DUP1 SWAP2 SUB SWAP1 LOG2 POP POP JUMP JUMPDEST PUSH1 0x0 DUP1 SLOAD PUSH1 0xFF AND DUP1 PUSH2 0x28A JUMPI POP PUSH1 0x0 DUP3 DUP2 MSTORE PUSH1 0x1 PUSH1 0x20 MSTORE PUSH1 0x40 SWAP1 KECCAK256 SLOAD PUSH1 0xFF AND JUMPDEST SWAP3 SWAP2 POP POP JUMP JUMPDEST CALLER PUSH1 0x1 PUSH1 0x1 PUSH1 0xA0 SHL SUB PUSH32 0x0 AND EQ DUP1 PUSH2 0x2D6 JUMPI POP CALLER PUSH1 0x0 SWAP1 DUP2 MSTORE PUSH1 0x2 PUSH1 0x20 MSTORE PUSH1 0x40 SWAP1 KECCAK256 SLOAD PUSH1 0xFF AND JUMPDEST PUSH2 0x313 JUMPI PUSH1 0x40 MLOAD PUSH3 0x461BCD PUSH1 0xE5 SHL DUP2 MSTORE PUSH1 0x20 PUSH1 0x4 DUP3 ADD MSTORE PUSH1 0xE PUSH1 0x24 DUP3 ADD MSTORE PUSH14 0x4F6E6C7920617574686F72697479 PUSH1 0x90 SHL PUSH1 0x44 DUP3 ADD MSTORE PUSH1 0x64 ADD PUSH2 0x201 JUMP JUMPDEST PUSH1 0x0 DUP1 SLOAD PUSH1 0xFF NOT AND DUP3 ISZERO ISZERO SWAP1 DUP2 OR SWAP1 SWAP2 SSTORE PUSH1 0x40 DUP1 MLOAD SWAP2 DUP3 MSTORE TIMESTAMP PUSH1 0x20 DUP4 ADD MSTORE PUSH32 0x8D4BBCEEE1104A14012C94EB089FD6104112AC482C4391482EE278FAD434F2FC SWAP2 ADD PUSH1 0x40 MLOAD DUP1 SWAP2 SUB SWAP1 LOG1 POP JUMP JUMPDEST CALLER PUSH1 0x1 PUSH1 0x1 PUSH1 0xA0 SHL SUB PUSH32 0x0 AND EQ PUSH2 0x3C4 JUMPI PUSH1 0x40 MLOAD PUSH3 0x461BCD PUSH1 0xE5 SHL DUP2 MSTORE PUSH1 0x20 PUSH1 0x4 DUP3 ADD MSTORE PUSH1 0xA PUSH1 0x24 DUP3 ADD MSTORE PUSH10 0x27B7363C9030B236B4B7 PUSH1 0xB1 SHL PUSH1 0x44 DUP3 ADD MSTORE PUSH1 0x64 ADD PUSH2 0x201 JUMP JUMPDEST PUSH1 0x1 PUSH1 0x1 PUSH1 0xA0 SHL SUB DUP3 AND PUSH1 0x0 DUP2 DUP2 MSTORE PUSH1 0x2 PUSH1 0x20 SWAP1 DUP2 MSTORE PUSH1 0x40 SWAP2 DUP3 SWAP1 KECCAK256 DUP1 SLOAD PUSH1 0xFF NOT AND DUP6 ISZERO ISZERO SWAP1 DUP2 OR SWAP1 SWAP2 SSTORE SWAP2 MLOAD SWAP2 DUP3 MSTORE PUSH32 0xC5238A63FA205F95E98807F6CBC91D2AD8555A2250075E47491F11D9C69DB3BC SWAP2 ADD PUSH2 0x25E JUMP JUMPDEST DUP1 CALLDATALOAD PUSH1 0x1 PUSH1 0x1 PUSH1 0xA0 SHL SUB DUP2 AND DUP2 EQ PUSH2 0x433 JUMPI PUSH1 0x0 DUP1 REVERT JUMPDEST SWAP2 SWAP1 POP JUMP JUMPDEST PUSH1 0x0 PUSH1 0x20 DUP3 DUP5 SUB SLT ISZERO PUSH2 0x44A JUMPI PUSH1 0x0 DUP1 REVERT JUMPDEST PUSH2 0x453 DUP3 PUSH2 0x41C JUMP JUMPDEST SWAP4 SWAP3 POP POP POP JUMP JUMPDEST DUP1 CALLDATALOAD DUP1 ISZERO ISZERO DUP2 EQ PUSH2 0x433 JUMPI PUSH1 0x0 DUP1 REVERT JUMPDEST PUSH1 0x0 DUP1 PUSH1 0x40 DUP4 DUP6 SUB SLT ISZERO PUSH2 0x47D JUMPI PUSH1 0x0 DUP1 REVERT JUMPDEST DUP3 CALLDATALOAD SWAP2 POP PUSH2 0x48D PUSH1 0x20 DUP5 ADD PUSH2 0x45A JUMP JUMPDEST SWAP1 POP SWAP3 POP SWAP3 SWAP1 POP JUMP JUMPDEST PUSH1 0x0 PUSH1 0x20 DUP3 DUP5 SUB SLT ISZERO PUSH2 0x4A8 JUMPI PUSH1 0x0 DUP1 REVERT JUMPDEST POP CALLDATALOAD SWAP2 SWAP1 POP JUMP JUMPDEST PUSH1 0x0 PUSH1 0x20 DUP3 DUP5 SUB SLT ISZERO PUSH2 0x4C1 JUMPI PUSH1 0x0 DUP1 REVERT JUMPDEST PUSH2 0x453 DUP3 PUSH2 0x45A JUMP JUMPDEST PUSH1 0x0 DUP1 PUSH1 0x40 DUP4 DUP6 SUB SLT ISZERO PUSH2 0x4DD JUMPI PUSH1 0x0 DUP1 REVERT JUMPDEST PUSH2 0x4E6 DUP4 PUSH2 0x41C JUMP JUMPDEST SWAP2 POP PUSH2 0x48D PUSH1 0x20 DUP5 ADD PUSH2 0x45A JUMP INVALID LOG2 PUSH5 0x6970667358 0x22 SLT KECCAK256 SWAP11 PUSH4 0x58509F26 0xEC SWAP13 DUP13 0xCB SELFBALANCE CALLVALUE 0xA8 0x25 0xCB ADDMOD CREATE 0x2F 0xC1 0x4F PUSH1 0xEE LOG3 PUSH13 0xB39268AD67F14B0864736F6C63 NUMBER STOP ADDMOD XOR STOP CALLER "},"methodIdentifiers":{"admin()":"f851a440","globalEmergency()":"5befabc2","isAuthority(address)":"2330f247","isEmergency(bytes32)":"8e43b912","regionEmergency(bytes32)":"e3ff02ba","setAuthority(address,bool)":"b5f0d35c","setGlobalEmergency(bool)":"acbf1bbc","setRegionEmergency(bytes32,bool)":"509387c4"}}}}}