{"contracts/SavingsCircles.sol":{"SavingsCircles":{"abi":[{"anonymous":false,"inputs":[{"indexed":true,"internalType":"uint256","name":"id","type":"uint256"},{"indexed":true,"internalType":"address","name":"organizer","type":"address"},{"indexed":false,"internalType":"address","name":"token","type":"address"},{"indexed":false,"internalType":"uint256","name":"contribution","type":"uint256"},{"indexed":false,"internalType":"uint256","name":"period","type":"uint256"},{"indexed":false,"internalType":"address[]","name":"members","type":"address[]"}],"name":"CircleCreated","type":"event"},{"anonymous":false,"inputs":[{"indexed":true,"internalType":"uint256","name":"id","type":"uint256"},{"indexed":false,"internalType":"uint256","name":"completedRound","type":"uint256"}],"name":"CycleCompleted","type":"event"},{"anonymous":false,"inputs":[{"indexed":true,"internalType":"uint256","name":"id","type":"uint256"},{"indexed":true,"internalType":"uint256","name":"round","type":"uint256"},{"indexed":true,"internalType":"address","name":"member","type":"address"},{"indexed":false,"internalType":"uint256","name":"amount","type":"uint256"}],"name":"Deposited","type":"event"},{"anonymous":false,"inputs":[{"indexed":true,"internalType":"uint256","name":"id","type":"uint256"},{"indexed":true,"internalType":"address","name":"newMember","type":"address"}],"name":"MemberJoined","type":"event"},{"anonymous":false,"inputs":[{"indexed":true,"internalType":"uint256","name":"id","type":"uint256"},{"indexed":false,"internalType":"bool","name":"open","type":"bool"}],"name":"OpenToJoinSet","type":"event"},{"anonymous":false,"inputs":[{"indexed":true,"internalType":"uint256","name":"id","type":"uint256"},{"indexed":true,"internalType":"uint256","name":"round","type":"uint256"},{"indexed":true,"internalType":"address","name":"recipient","type":"address"},{"indexed":false,"internalType":"uint256","name":"amount","type":"uint256"}],"name":"Payout","type":"event"},{"anonymous":false,"inputs":[{"indexed":true,"internalType":"uint256","name":"id","type":"uint256"},{"indexed":false,"internalType":"uint256","name":"nextPayoutTime","type":"uint256"}],"name":"Restarted","type":"event"},{"anonymous":false,"inputs":[{"indexed":true,"internalType":"uint256","name":"id","type":"uint256"}],"name":"Terminated","type":"event"},{"inputs":[{"internalType":"uint256","name":"id","type":"uint256"}],"name":"canPayout","outputs":[{"internalType":"bool","name":"","type":"bool"}],"stateMutability":"view","type":"function"},{"inputs":[{"internalType":"contract IERC20","name":"token","type":"address"},{"internalType":"address[]","name":"members","type":"address[]"},{"internalType":"uint256","name":"contribution","type":"uint256"},{"internalType":"uint256","name":"periodSeconds","type":"uint256"}],"name":"createCircle","outputs":[{"internalType":"uint256","name":"id","type":"uint256"}],"stateMutability":"nonpayable","type":"function"},{"inputs":[{"internalType":"uint256","name":"id","type":"uint256"}],"name":"deposit","outputs":[],"stateMutability":"nonpayable","type":"function"},{"inputs":[{"internalType":"uint256","name":"id","type":"uint256"}],"name":"getCircle","outputs":[{"internalType":"address","name":"organizer","type":"address"},{"internalType":"address","name":"token","type":"address"},{"internalType":"uint256","name":"contribution","type":"uint256"},{"internalType":"uint256","name":"periodSeconds","type":"uint256"},{"internalType":"address[]","name":"members","type":"address[]"},{"internalType":"uint256","name":"currentIndex","type":"uint256"},{"internalType":"uint256","name":"nextPayoutTime","type":"uint256"},{"internalType":"uint256","name":"round","type":"uint256"},{"internalType":"bool","name":"active","type":"bool"},{"internalType":"bool","name":"openToJoin","type":"bool"}],"stateMutability":"view","type":"function"},{"inputs":[{"internalType":"uint256","name":"id","type":"uint256"}],"name":"joinCircle","outputs":[],"stateMutability":"nonpayable","type":"function"},{"inputs":[],"name":"nextId","outputs":[{"internalType":"uint256","name":"","type":"uint256"}],"stateMutability":"view","type":"function"},{"inputs":[{"internalType":"uint256","name":"id","type":"uint256"}],"name":"payout","outputs":[],"stateMutability":"nonpayable","type":"function"},{"inputs":[{"internalType":"uint256","name":"id","type":"uint256"}],"name":"restart","outputs":[],"stateMutability":"nonpayable","type":"function"},{"inputs":[{"internalType":"uint256","name":"id","type":"uint256"},{"internalType":"bool","name":"open","type":"bool"}],"name":"setOpenToJoin","outputs":[],"stateMutability":"nonpayable","type":"function"},{"inputs":[{"internalType":"uint256","name":"id","type":"uint256"}],"name":"terminate","outputs":[],"stateMutability":"nonpayable","type":"function"},{"inputs":[],"name":"totalCircles","outputs":[{"internalType":"uint256","name":"","type":"uint256"}],"stateMutability":"view","type":"function"}],"evm":{"bytecode":{"linkReferences":{},"object":"6080604052600160005534801561001557600080fd5b50611274806100256000396000f3fe608060405234801561001057600080fd5b50600436106100a95760003560e01c806386d6cfb31161007157806386d6cfb31461012e5780639c67a19814610141578063b6b55f2514610154578063b90b553b14610167578063e11523431461018a578063e63e686b1461019d57600080fd5b80631801f38e146100ae57806361b8ce8c146100c357806364ccecde146100df5780637a828b28146101085780637b8ec3661461011b575b600080fd5b6100c16100bc366004610eee565b6101a5565b005b6100cc60005481565b6040519081526020015b60405180910390f35b6100f26100ed366004610eee565b6102c4565b6040516100d69a99989796959493929190610f07565b6100c1610116366004610eee565b6103a8565b6100cc610129366004610fc7565b61043c565b6100c161013c366004610eee565b610627565b6100c161014f36600461106c565b61075f565b6100c1610162366004610eee565b61084b565b61017a610175366004610eee565b610aa1565b60405190151581526020016100d6565b6100c1610198366004610eee565b610b60565b6100cc610dea565b6000818152600160205260409020600981015460ff166101e05760405162461bcd60e51b81526004016101d79061109c565b60405180910390fd5b80546001600160a01b031633146102095760405162461bcd60e51b81526004016101d7906110be565b60058101541561022b5760405162461bcd60e51b81526004016101d7906110e5565b60098101805461ff001916905560038101546102479042611121565b60068201556040516000815282907f6cfd9f3be022d590d5b4ffb779dd0033cb73548908f22505d5a675602d18ebd49060200160405180910390a2817ff7f9dd40fb7c61a0ff2dbaa93e5d03fe96aa9b61fc247bdb06c91ad4dfd6a11782600601546040516102b891815260200190565b60405180910390a25050565b6000818152600160208181526040808420805493810154600282015460038301546004840180548651818902810189019097528087526001600160a01b0398891699949098169792969195606095859485948594859492909183018282801561035657602002820191906000526020600020905b81546001600160a01b03168152600190910190602001808311610338575b505050505096508060050154955080600601549450806008015493508060090160009054906101000a900460ff1692508060090160019054906101000a900460ff169150509193959799509193959799565b600081815260016020526040902080546001600160a01b031633146103df5760405162461bcd60e51b81526004016101d7906110be565b6005810154156104015760405162461bcd60e51b81526004016101d7906110e5565b60098101805460ff1916905560405182907f9a9cad27a1bdce3d7cb0602aaf727dfaad03ba6524d9bca7b9615867fa6802b490600090a25050565b60006001600160a01b03861661047e5760405162461bcd60e51b81526020600482015260076024820152660746f6b656e3d360cc1b60448201526064016101d7565b60028410156104bb5760405162461bcd60e51b815260206004820152600960248201526836b2b6b132b9399e1960b91b60448201526064016101d7565b600083116104fc5760405162461bcd60e51b815260206004820152600e60248201526d0636f6e747269627574696f6e3d360941b60448201526064016101d7565b603c8210156105405760405162461bcd60e51b815260206004820152601060248201526f1c195c9a5bd9081d1bdbc81cdb585b1b60821b60448201526064016101d7565b60008054908061054f83611134565b9091555060008181526001602081905260409091208054336001600160a01b031991821617825591810180549092166001600160a01b038a161790915560028101859055600381018490559091506105ab600482018787610e76565b50600060058201556105bd8342611121565b60068201556000600882015560098101805461ffff19166001179055604051339083907f1b7faafd587ac3424c216f8622c311882e2f188d4cfe2269a5f19efb2d027cd690610615908b90899089908d908d9061114d565b60405180910390a35095945050505050565b6000818152600160205260409020600981015460ff166106595760405162461bcd60e51b81526004016101d79061109c565b6009810154610100900460ff1661069d5760405162461bcd60e51b81526020600482015260086024820152673737ba1037b832b760c11b60448201526064016101d7565b6106a78133610e0f565b156106e55760405162461bcd60e51b815260206004820152600e60248201526d30b63932b0b23c9036b2b6b132b960911b60448201526064016101d7565b6005810154156107075760405162461bcd60e51b81526004016101d7906110e5565b6004810180546001810182556000918252602082200180546001600160a01b03191633908117909155604051909184917f78da64a590c3052953ad9e0a5546bbf12bb68ae7634e3fb2a774e22a8c6557c19190a35050565b600082815260016020526040902080546001600160a01b031633146107965760405162461bcd60e51b81526004016101d7906110be565b600981015460ff166107ba5760405162461bcd60e51b81526004016101d79061109c565b81156107e2576005810154156107e25760405162461bcd60e51b81526004016101d7906110e5565b600981018054831580156101000261ff00199092169190911790915561080a57600060068201555b827f6cfd9f3be022d590d5b4ffb779dd0033cb73548908f22505d5a675602d18ebd48360405161083e911515815260200190565b60405180910390a2505050565b6000818152600160205260409020600981015460ff1661087d5760405162461bcd60e51b81526004016101d79061109c565b6108878133610e0f565b6108c05760405162461bcd60e51b815260206004820152600a6024820152693737ba1036b2b6b132b960b11b60448201526064016101d7565b6009810154610100900460ff161561090d5760405162461bcd60e51b815260206004820152601060248201526f3537b4b7103bb4b73237bb9037b832b760811b60448201526064016101d7565b60088101546000908152600782016020908152604080832033845290915290205460ff16156109685760405162461bcd60e51b8152602060048201526007602482015266616c726561647960c81b60448201526064016101d7565b600181015460028201546040516323b872dd60e01b815233600482015230602482015260448101919091526001600160a01b03909116906323b872dd906064016020604051808303816000875af11580156109c7573d6000803e3d6000fd5b505050506040513d601f19601f820116820180604052508101906109eb91906111b8565b610a2b5760405162461bcd60e51b81526020600482015260116024820152701d1c985b9cd9995c919c9bdb4819985a5b607a1b60448201526064016101d7565b6008810180546000908152600783016020908152604080832033808552925291829020805460ff19166001179055915460028401549151909185917fb7cac5b0031d5e68c72f4b2668a3ac6ac661109e52d629a1c57dae09f882e29a91610a959190815260200190565b60405180910390a45050565b6000818152600160205260408120600981015460ff16610ac45750600092915050565b8060060154421015610ad95750600092915050565b60005b6004820154811015610b5657816007016000836008015481526020019081526020016000206000836004018381548110610b1857610b186111dc565b60009182526020808320909101546001600160a01b0316835282019290925260400190205460ff16610b4e575060009392505050565b600101610adc565b5060019392505050565b6000818152600160205260409020610b7782610aa1565b610baf5760405162461bcd60e51b81526020600482015260096024820152686e6f7420726561647960b81b60448201526064016101d7565b600081600401826005015481548110610bca57610bca6111dc565b6000918252602082200154600484015460028501546001600160a01b039092169350610bf5916111f2565b600184015460405163a9059cbb60e01b81526001600160a01b0385811660048301526024820184905292935091169063a9059cbb906044016020604051808303816000875af1158015610c4c573d6000803e3d6000fd5b505050506040513d601f19601f82011682018060405250810190610c7091906111b8565b610cac5760405162461bcd60e51b815260206004820152600d60248201526c1d1c985b9cd9995c8819985a5b609a1b60448201526064016101d7565b816001600160a01b03168360080154857fb9784fd5c9ad4fac836b13940c6cdb47dff51b96c0d6b74e32b35be81c46f90984604051610ced91815260200190565b60405180910390a46001836008016000828254610d0a9190611121565b909155505060048301546005840154610d24906001611121565b610d2e9190611209565b60058401819055600003610dcf5760098301805461ff00191661010017905560006006840155600883015460405185917f5d6ce35d8b5a0cd1f552bd0ce68f81bf96eadebd1159905a8dd503fbbb02966091610d8c91815260200190565b60405180910390a26040516001815284907f6cfd9f3be022d590d5b4ffb779dd0033cb73548908f22505d5a675602d18ebd49060200160405180910390a2610de4565b6003830154610dde9042611121565b60068401555b50505050565b60008054600003610dfb5750600090565b6001600054610e0a919061122b565b905090565b6000805b6004840154811015610e6a57826001600160a01b0316846004018281548110610e3e57610e3e6111dc565b6000918252602090912001546001600160a01b031603610e62576001915050610e70565b600101610e13565b50600090505b92915050565b828054828255906000526020600020908101928215610ec9579160200282015b82811115610ec95781546001600160a01b0319166001600160a01b03843516178255602090920191600190910190610e96565b50610ed5929150610ed9565b5090565b5b80821115610ed55760008155600101610eda565b600060208284031215610f0057600080fd5b5035919050565b6001600160a01b038b811682528a8116602080840191909152604083018b9052606083018a90526101406080840181905289519084018190526000926101608501928b810192855b81811015610f6d578451841686529482019493820193600101610f4f565b5050505050809150508660a08301528560c08301528460e0830152610f9761010083018515159052565b8215156101208301529b9a5050505050505050505050565b6001600160a01b0381168114610fc457600080fd5b50565b600080600080600060808688031215610fdf57600080fd5b8535610fea81610faf565b9450602086013567ffffffffffffffff8082111561100757600080fd5b818801915088601f83011261101b57600080fd5b81358181111561102a57600080fd5b8960208260051b850101111561103f57600080fd5b9699602092909201985095966040810135965060600135945092505050565b8015158114610fc457600080fd5b6000806040838503121561107f57600080fd5b8235915060208301356110918161105e565b809150509250929050565b602080825260089082015267696e61637469766560c01b604082015260600190565b6020808252600d908201526c3737ba1037b933b0b734bd32b960991b604082015260600190565b6020808252600c908201526b6e6f7420626f756e6461727960a01b604082015260600190565b634e487b7160e01b600052601160045260246000fd5b80820180821115610e7057610e7061110b565b6000600182016111465761114661110b565b5060010190565b6001600160a01b0386811682526020808301879052604083018690526080606084018190528301849052600091859160a08501845b878110156111a957843561119581610faf565b841682529382019390820190600101611182565b509a9950505050505050505050565b6000602082840312156111ca57600080fd5b81516111d58161105e565b9392505050565b634e487b7160e01b600052603260045260246000fd5b8082028115828204841417610e7057610e7061110b565b60008261122657634e487b7160e01b600052601260045260246000fd5b500690565b81810381811115610e7057610e7061110b56fea26469706673582212206593d24d220b7f4c7c09cb866755a1f9b8ef5a8ccd3495c9e056d0666d10288a64736f6c63430008180033","opcodes":"PUSH1 0x80 PUSH1 0x40 MSTORE PUSH1 0x1 PUSH1 0x0 SSTORE CALLVALUE DUP1 ISZERO PUSH2 0x15 JUMPI PUSH1 0x0 DUP1 REVERT JUMPDEST POP PUSH2 0x1274 DUP1 PUSH2 0x25 PUSH1 0x0 CODECOPY PUSH1 0x0 RETURN INVALID PUSH1 0x80 PUSH1 0x40 MSTORE CALLVALUE DUP1 ISZERO PUSH2 0x10 JUMPI PUSH1 0x0 DUP1 REVERT JUMPDEST POP PUSH1 0x4 CALLDATASIZE LT PUSH2 0xA9 JUMPI PUSH1 0x0 CALLDATALOAD PUSH1 0xE0 SHR DUP1 PUSH4 0x86D6CFB3 GT PUSH2 0x71 JUMPI DUP1 PUSH4 0x86D6CFB3 EQ PUSH2 0x12E JUMPI DUP1 PUSH4 0x9C67A198 EQ PUSH2 0x141 JUMPI DUP1 PUSH4 0xB6B55F25 EQ PUSH2 0x154 JUMPI DUP1 PUSH4 0xB90B553B EQ PUSH2 0x167 JUMPI DUP1 PUSH4 0xE1152343 EQ PUSH2 0x18A JUMPI DUP1 PUSH4 0xE63E686B EQ PUSH2 0x19D JUMPI PUSH1 0x0 DUP1 REVERT JUMPDEST DUP1 PUSH4 0x1801F38E EQ PUSH2 0xAE JUMPI DUP1 PUSH4 0x61B8CE8C EQ PUSH2 0xC3 JUMPI DUP1 PUSH4 0x64CCECDE EQ PUSH2 0xDF JUMPI DUP1 PUSH4 0x7A828B28 EQ PUSH2 0x108 JUMPI DUP1 PUSH4 0x7B8EC366 EQ PUSH2 0x11B JUMPI JUMPDEST PUSH1 0x0 DUP1 REVERT JUMPDEST PUSH2 0xC1 PUSH2 0xBC CALLDATASIZE PUSH1 0x4 PUSH2 0xEEE JUMP JUMPDEST PUSH2 0x1A5 JUMP JUMPDEST STOP JUMPDEST PUSH2 0xCC PUSH1 0x0 SLOAD DUP2 JUMP JUMPDEST PUSH1 0x40 MLOAD SWAP1 DUP2 MSTORE PUSH1 0x20 ADD JUMPDEST PUSH1 0x40 MLOAD DUP1 SWAP2 SUB SWAP1 RETURN JUMPDEST PUSH2 0xF2 PUSH2 0xED CALLDATASIZE PUSH1 0x4 PUSH2 0xEEE JUMP JUMPDEST PUSH2 0x2C4 JUMP JUMPDEST PUSH1 0x40 MLOAD PUSH2 0xD6 SWAP11 SWAP10 SWAP9 SWAP8 SWAP7 SWAP6 SWAP5 SWAP4 SWAP3 SWAP2 SWAP1 PUSH2 0xF07 JUMP JUMPDEST PUSH2 0xC1 PUSH2 0x116 CALLDATASIZE PUSH1 0x4 PUSH2 0xEEE JUMP JUMPDEST PUSH2 0x3A8 JUMP JUMPDEST PUSH2 0xCC PUSH2 0x129 CALLDATASIZE PUSH1 0x4 PUSH2 0xFC7 JUMP JUMPDEST PUSH2 0x43C JUMP JUMPDEST PUSH2 0xC1 PUSH2 0x13C CALLDATASIZE PUSH1 0x4 PUSH2 0xEEE JUMP JUMPDEST PUSH2 0x627 JUMP JUMPDEST PUSH2 0xC1 PUSH2 0x14F CALLDATASIZE PUSH1 0x4 PUSH2 0x106C JUMP JUMPDEST PUSH2 0x75F JUMP JUMPDEST PUSH2 0xC1 PUSH2 0x162 CALLDATASIZE PUSH1 0x4 PUSH2 0xEEE JUMP JUMPDEST PUSH2 0x84B JUMP JUMPDEST PUSH2 0x17A PUSH2 0x175 CALLDATASIZE PUSH1 0x4 PUSH2 0xEEE JUMP JUMPDEST PUSH2 0xAA1 JUMP JUMPDEST PUSH1 0x40 MLOAD SWAP1 ISZERO ISZERO DUP2 MSTORE PUSH1 0x20 ADD PUSH2 0xD6 JUMP JUMPDEST PUSH2 0xC1 PUSH2 0x198 CALLDATASIZE PUSH1 0x4 PUSH2 0xEEE JUMP JUMPDEST PUSH2 0xB60 JUMP JUMPDEST PUSH2 0xCC PUSH2 0xDEA JUMP JUMPDEST PUSH1 0x0 DUP2 DUP2 MSTORE PUSH1 0x1 PUSH1 0x20 MSTORE PUSH1 0x40 SWAP1 KECCAK256 PUSH1 0x9 DUP2 ADD SLOAD PUSH1 0xFF AND PUSH2 0x1E0 JUMPI PUSH1 0x40 MLOAD PUSH3 0x461BCD PUSH1 0xE5 SHL DUP2 MSTORE PUSH1 0x4 ADD PUSH2 0x1D7 SWAP1 PUSH2 0x109C JUMP JUMPDEST PUSH1 0x40 MLOAD DUP1 SWAP2 SUB SWAP1 REVERT JUMPDEST DUP1 SLOAD PUSH1 0x1 PUSH1 0x1 PUSH1 0xA0 SHL SUB AND CALLER EQ PUSH2 0x209 JUMPI PUSH1 0x40 MLOAD PUSH3 0x461BCD PUSH1 0xE5 SHL DUP2 MSTORE PUSH1 0x4 ADD PUSH2 0x1D7 SWAP1 PUSH2 0x10BE JUMP JUMPDEST PUSH1 0x5 DUP2 ADD SLOAD ISZERO PUSH2 0x22B JUMPI PUSH1 0x40 MLOAD PUSH3 0x461BCD PUSH1 0xE5 SHL DUP2 MSTORE PUSH1 0x4 ADD PUSH2 0x1D7 SWAP1 PUSH2 0x10E5 JUMP JUMPDEST PUSH1 0x9 DUP2 ADD DUP1 SLOAD PUSH2 0xFF00 NOT AND SWAP1 SSTORE PUSH1 0x3 DUP2 ADD SLOAD PUSH2 0x247 SWAP1 TIMESTAMP PUSH2 0x1121 JUMP JUMPDEST PUSH1 0x6 DUP3 ADD SSTORE PUSH1 0x40 MLOAD PUSH1 0x0 DUP2 MSTORE DUP3 SWAP1 PUSH32 0x6CFD9F3BE022D590D5B4FFB779DD0033CB73548908F22505D5A675602D18EBD4 SWAP1 PUSH1 0x20 ADD PUSH1 0x40 MLOAD DUP1 SWAP2 SUB SWAP1 LOG2 DUP2 PUSH32 0xF7F9DD40FB7C61A0FF2DBAA93E5D03FE96AA9B61FC247BDB06C91AD4DFD6A117 DUP3 PUSH1 0x6 ADD SLOAD PUSH1 0x40 MLOAD PUSH2 0x2B8 SWAP2 DUP2 MSTORE PUSH1 0x20 ADD SWAP1 JUMP JUMPDEST PUSH1 0x40 MLOAD DUP1 SWAP2 SUB SWAP1 LOG2 POP POP JUMP JUMPDEST PUSH1 0x0 DUP2 DUP2 MSTORE PUSH1 0x1 PUSH1 0x20 DUP2 DUP2 MSTORE PUSH1 0x40 DUP1 DUP5 KECCAK256 DUP1 SLOAD SWAP4 DUP2 ADD SLOAD PUSH1 0x2 DUP3 ADD SLOAD PUSH1 0x3 DUP4 ADD SLOAD PUSH1 0x4 DUP5 ADD DUP1 SLOAD DUP7 MLOAD DUP2 DUP10 MUL DUP2 ADD DUP10 ADD SWAP1 SWAP8 MSTORE DUP1 DUP8 MSTORE PUSH1 0x1 PUSH1 0x1 PUSH1 0xA0 SHL SUB SWAP9 DUP10 AND SWAP10 SWAP5 SWAP1 SWAP9 AND SWAP8 SWAP3 SWAP7 SWAP2 SWAP6 PUSH1 0x60 SWAP6 DUP6 SWAP5 DUP6 SWAP5 DUP6 SWAP5 DUP6 SWAP5 SWAP3 SWAP1 SWAP2 DUP4 ADD DUP3 DUP3 DUP1 ISZERO PUSH2 0x356 JUMPI PUSH1 0x20 MUL DUP3 ADD SWAP2 SWAP1 PUSH1 0x0 MSTORE PUSH1 0x20 PUSH1 0x0 KECCAK256 SWAP1 JUMPDEST DUP2 SLOAD PUSH1 0x1 PUSH1 0x1 PUSH1 0xA0 SHL SUB AND DUP2 MSTORE PUSH1 0x1 SWAP1 SWAP2 ADD SWAP1 PUSH1 0x20 ADD DUP1 DUP4 GT PUSH2 0x338 JUMPI JUMPDEST POP POP POP POP POP SWAP7 POP DUP1 PUSH1 0x5 ADD SLOAD SWAP6 POP DUP1 PUSH1 0x6 ADD SLOAD SWAP5 POP DUP1 PUSH1 0x8 ADD SLOAD SWAP4 POP DUP1 PUSH1 0x9 ADD PUSH1 0x0 SWAP1 SLOAD SWAP1 PUSH2 0x100 EXP SWAP1 DIV PUSH1 0xFF AND SWAP3 POP DUP1 PUSH1 0x9 ADD PUSH1 0x1 SWAP1 SLOAD SWAP1 PUSH2 0x100 EXP SWAP1 DIV PUSH1 0xFF AND SWAP2 POP POP SWAP2 SWAP4 SWAP6 SWAP8 SWAP10 POP SWAP2 SWAP4 SWAP6 SWAP8 SWAP10 JUMP JUMPDEST PUSH1 0x0 DUP2 DUP2 MSTORE PUSH1 0x1 PUSH1 0x20 MSTORE PUSH1 0x40 SWAP1 KECCAK256 DUP1 SLOAD PUSH1 0x1 PUSH1 0x1 PUSH1 0xA0 SHL SUB AND CALLER EQ PUSH2 0x3DF JUMPI PUSH1 0x40 MLOAD PUSH3 0x461BCD PUSH1 0xE5 SHL DUP2 MSTORE PUSH1 0x4 ADD PUSH2 0x1D7 SWAP1 PUSH2 0x10BE JUMP JUMPDEST PUSH1 0x5 DUP2 ADD SLOAD ISZERO PUSH2 0x401 JUMPI PUSH1 0x40 MLOAD PUSH3 0x461BCD PUSH1 0xE5 SHL DUP2 MSTORE PUSH1 0x4 ADD PUSH2 0x1D7 SWAP1 PUSH2 0x10E5 JUMP JUMPDEST PUSH1 0x9 DUP2 ADD DUP1 SLOAD PUSH1 0xFF NOT AND SWAP1 SSTORE PUSH1 0x40 MLOAD DUP3 SWAP1 PUSH32 0x9A9CAD27A1BDCE3D7CB0602AAF727DFAAD03BA6524D9BCA7B9615867FA6802B4 SWAP1 PUSH1 0x0 SWAP1 LOG2 POP POP JUMP JUMPDEST PUSH1 0x0 PUSH1 0x1 PUSH1 0x1 PUSH1 0xA0 SHL SUB DUP7 AND PUSH2 0x47E JUMPI PUSH1 0x40 MLOAD PUSH3 0x461BCD PUSH1 0xE5 SHL DUP2 MSTORE PUSH1 0x20 PUSH1 0x4 DUP3 ADD MSTORE PUSH1 0x7 PUSH1 0x24 DUP3 ADD MSTORE PUSH7 0x746F6B656E3D3 PUSH1 0xCC SHL PUSH1 0x44 DUP3 ADD MSTORE PUSH1 0x64 ADD PUSH2 0x1D7 JUMP JUMPDEST PUSH1 0x2 DUP5 LT ISZERO PUSH2 0x4BB JUMPI PUSH1 0x40 MLOAD PUSH3 0x461BCD PUSH1 0xE5 SHL DUP2 MSTORE PUSH1 0x20 PUSH1 0x4 DUP3 ADD MSTORE PUSH1 0x9 PUSH1 0x24 DUP3 ADD MSTORE PUSH9 0x36B2B6B132B9399E19 PUSH1 0xB9 SHL PUSH1 0x44 DUP3 ADD MSTORE PUSH1 0x64 ADD PUSH2 0x1D7 JUMP JUMPDEST PUSH1 0x0 DUP4 GT PUSH2 0x4FC JUMPI PUSH1 0x40 MLOAD PUSH3 0x461BCD PUSH1 0xE5 SHL DUP2 MSTORE PUSH1 0x20 PUSH1 0x4 DUP3 ADD MSTORE PUSH1 0xE PUSH1 0x24 DUP3 ADD MSTORE PUSH14 0x636F6E747269627574696F6E3D3 PUSH1 0x94 SHL PUSH1 0x44 DUP3 ADD MSTORE PUSH1 0x64 ADD PUSH2 0x1D7 JUMP JUMPDEST PUSH1 0x3C DUP3 LT ISZERO PUSH2 0x540 JUMPI PUSH1 0x40 MLOAD PUSH3 0x461BCD PUSH1 0xE5 SHL DUP2 MSTORE PUSH1 0x20 PUSH1 0x4 DUP3 ADD MSTORE PUSH1 0x10 PUSH1 0x24 DUP3 ADD MSTORE PUSH16 0x1C195C9A5BD9081D1BDBC81CDB585B1B PUSH1 0x82 SHL PUSH1 0x44 DUP3 ADD MSTORE PUSH1 0x64 ADD PUSH2 0x1D7 JUMP JUMPDEST PUSH1 0x0 DUP1 SLOAD SWAP1 DUP1 PUSH2 0x54F DUP4 PUSH2 0x1134 JUMP JUMPDEST SWAP1 SWAP2 SSTORE POP PUSH1 0x0 DUP2 DUP2 MSTORE PUSH1 0x1 PUSH1 0x20 DUP2 SWAP1 MSTORE PUSH1 0x40 SWAP1 SWAP2 KECCAK256 DUP1 SLOAD CALLER PUSH1 0x1 PUSH1 0x1 PUSH1 0xA0 SHL SUB NOT SWAP2 DUP3 AND OR DUP3 SSTORE SWAP2 DUP2 ADD DUP1 SLOAD SWAP1 SWAP3 AND PUSH1 0x1 PUSH1 0x1 PUSH1 0xA0 SHL SUB DUP11 AND OR SWAP1 SWAP2 SSTORE PUSH1 0x2 DUP2 ADD DUP6 SWAP1 SSTORE PUSH1 0x3 DUP2 ADD DUP5 SWAP1 SSTORE SWAP1 SWAP2 POP PUSH2 0x5AB PUSH1 0x4 DUP3 ADD DUP8 DUP8 PUSH2 0xE76 JUMP JUMPDEST POP PUSH1 0x0 PUSH1 0x5 DUP3 ADD SSTORE PUSH2 0x5BD DUP4 TIMESTAMP PUSH2 0x1121 JUMP JUMPDEST PUSH1 0x6 DUP3 ADD SSTORE PUSH1 0x0 PUSH1 0x8 DUP3 ADD SSTORE PUSH1 0x9 DUP2 ADD DUP1 SLOAD PUSH2 0xFFFF NOT AND PUSH1 0x1 OR SWAP1 SSTORE PUSH1 0x40 MLOAD CALLER SWAP1 DUP4 SWAP1 PUSH32 0x1B7FAAFD587AC3424C216F8622C311882E2F188D4CFE2269A5F19EFB2D027CD6 SWAP1 PUSH2 0x615 SWAP1 DUP12 SWAP1 DUP10 SWAP1 DUP10 SWAP1 DUP14 SWAP1 DUP14 SWAP1 PUSH2 0x114D JUMP JUMPDEST PUSH1 0x40 MLOAD DUP1 SWAP2 SUB SWAP1 LOG3 POP SWAP6 SWAP5 POP POP POP POP POP JUMP JUMPDEST PUSH1 0x0 DUP2 DUP2 MSTORE PUSH1 0x1 PUSH1 0x20 MSTORE PUSH1 0x40 SWAP1 KECCAK256 PUSH1 0x9 DUP2 ADD SLOAD PUSH1 0xFF AND PUSH2 0x659 JUMPI PUSH1 0x40 MLOAD PUSH3 0x461BCD PUSH1 0xE5 SHL DUP2 MSTORE PUSH1 0x4 ADD PUSH2 0x1D7 SWAP1 PUSH2 0x109C JUMP JUMPDEST PUSH1 0x9 DUP2 ADD SLOAD PUSH2 0x100 SWAP1 DIV PUSH1 0xFF AND PUSH2 0x69D JUMPI PUSH1 0x40 MLOAD PUSH3 0x461BCD PUSH1 0xE5 SHL DUP2 MSTORE PUSH1 0x20 PUSH1 0x4 DUP3 ADD MSTORE PUSH1 0x8 PUSH1 0x24 DUP3 ADD MSTORE PUSH8 0x3737BA1037B832B7 PUSH1 0xC1 SHL PUSH1 0x44 DUP3 ADD MSTORE PUSH1 0x64 ADD PUSH2 0x1D7 JUMP JUMPDEST PUSH2 0x6A7 DUP2 CALLER PUSH2 0xE0F JUMP JUMPDEST ISZERO PUSH2 0x6E5 JUMPI PUSH1 0x40 MLOAD PUSH3 0x461BCD PUSH1 0xE5 SHL DUP2 MSTORE PUSH1 0x20 PUSH1 0x4 DUP3 ADD MSTORE PUSH1 0xE PUSH1 0x24 DUP3 ADD MSTORE PUSH14 0x30B63932B0B23C9036B2B6B132B9 PUSH1 0x91 SHL PUSH1 0x44 DUP3 ADD MSTORE PUSH1 0x64 ADD PUSH2 0x1D7 JUMP JUMPDEST PUSH1 0x5 DUP2 ADD SLOAD ISZERO PUSH2 0x707 JUMPI PUSH1 0x40 MLOAD PUSH3 0x461BCD PUSH1 0xE5 SHL DUP2 MSTORE PUSH1 0x4 ADD PUSH2 0x1D7 SWAP1 PUSH2 0x10E5 JUMP JUMPDEST PUSH1 0x4 DUP2 ADD DUP1 SLOAD PUSH1 0x1 DUP2 ADD DUP3 SSTORE PUSH1 0x0 SWAP2 DUP3 MSTORE PUSH1 0x20 DUP3 KECCAK256 ADD DUP1 SLOAD PUSH1 0x1 PUSH1 0x1 PUSH1 0xA0 SHL SUB NOT AND CALLER SWAP1 DUP2 OR SWAP1 SWAP2 SSTORE PUSH1 0x40 MLOAD SWAP1 SWAP2 DUP5 SWAP2 PUSH32 0x78DA64A590C3052953AD9E0A5546BBF12BB68AE7634E3FB2A774E22A8C6557C1 SWAP2 SWAP1 LOG3 POP POP JUMP JUMPDEST PUSH1 0x0 DUP3 DUP2 MSTORE PUSH1 0x1 PUSH1 0x20 MSTORE PUSH1 0x40 SWAP1 KECCAK256 DUP1 SLOAD PUSH1 0x1 PUSH1 0x1 PUSH1 0xA0 SHL SUB AND CALLER EQ PUSH2 0x796 JUMPI PUSH1 0x40 MLOAD PUSH3 0x461BCD PUSH1 0xE5 SHL DUP2 MSTORE PUSH1 0x4 ADD PUSH2 0x1D7 SWAP1 PUSH2 0x10BE JUMP JUMPDEST PUSH1 0x9 DUP2 ADD SLOAD PUSH1 0xFF AND PUSH2 0x7BA JUMPI PUSH1 0x40 MLOAD PUSH3 0x461BCD PUSH1 0xE5 SHL DUP2 MSTORE PUSH1 0x4 ADD PUSH2 0x1D7 SWAP1 PUSH2 0x109C JUMP JUMPDEST DUP2 ISZERO PUSH2 0x7E2 JUMPI PUSH1 0x5 DUP2 ADD SLOAD ISZERO PUSH2 0x7E2 JUMPI PUSH1 0x40 MLOAD PUSH3 0x461BCD PUSH1 0xE5 SHL DUP2 MSTORE PUSH1 0x4 ADD PUSH2 0x1D7 SWAP1 PUSH2 0x10E5 JUMP JUMPDEST PUSH1 0x9 DUP2 ADD DUP1 SLOAD DUP4 ISZERO DUP1 ISZERO PUSH2 0x100 MUL PUSH2 0xFF00 NOT SWAP1 SWAP3 AND SWAP2 SWAP1 SWAP2 OR SWAP1 SWAP2 SSTORE PUSH2 0x80A JUMPI PUSH1 0x0 PUSH1 0x6 DUP3 ADD SSTORE JUMPDEST DUP3 PUSH32 0x6CFD9F3BE022D590D5B4FFB779DD0033CB73548908F22505D5A675602D18EBD4 DUP4 PUSH1 0x40 MLOAD PUSH2 0x83E SWAP2 ISZERO ISZERO DUP2 MSTORE PUSH1 0x20 ADD SWAP1 JUMP JUMPDEST PUSH1 0x40 MLOAD DUP1 SWAP2 SUB SWAP1 LOG2 POP POP POP JUMP JUMPDEST PUSH1 0x0 DUP2 DUP2 MSTORE PUSH1 0x1 PUSH1 0x20 MSTORE PUSH1 0x40 SWAP1 KECCAK256 PUSH1 0x9 DUP2 ADD SLOAD PUSH1 0xFF AND PUSH2 0x87D JUMPI PUSH1 0x40 MLOAD PUSH3 0x461BCD PUSH1 0xE5 SHL DUP2 MSTORE PUSH1 0x4 ADD PUSH2 0x1D7 SWAP1 PUSH2 0x109C JUMP JUMPDEST PUSH2 0x887 DUP2 CALLER PUSH2 0xE0F JUMP JUMPDEST PUSH2 0x8C0 JUMPI PUSH1 0x40 MLOAD PUSH3 0x461BCD PUSH1 0xE5 SHL DUP2 MSTORE PUSH1 0x20 PUSH1 0x4 DUP3 ADD MSTORE PUSH1 0xA PUSH1 0x24 DUP3 ADD MSTORE PUSH10 0x3737BA1036B2B6B132B9 PUSH1 0xB1 SHL PUSH1 0x44 DUP3 ADD MSTORE PUSH1 0x64 ADD PUSH2 0x1D7 JUMP JUMPDEST PUSH1 0x9 DUP2 ADD SLOAD PUSH2 0x100 SWAP1 DIV PUSH1 0xFF AND ISZERO PUSH2 0x90D JUMPI PUSH1 0x40 MLOAD PUSH3 0x461BCD PUSH1 0xE5 SHL DUP2 MSTORE PUSH1 0x20 PUSH1 0x4 DUP3 ADD MSTORE PUSH1 0x10 PUSH1 0x24 DUP3 ADD MSTORE PUSH16 0x3537B4B7103BB4B73237BB9037B832B7 PUSH1 0x81 SHL PUSH1 0x44 DUP3 ADD MSTORE PUSH1 0x64 ADD PUSH2 0x1D7 JUMP JUMPDEST PUSH1 0x8 DUP2 ADD SLOAD PUSH1 0x0 SWAP1 DUP2 MSTORE PUSH1 0x7 DUP3 ADD PUSH1 0x20 SWAP1 DUP2 MSTORE PUSH1 0x40 DUP1 DUP4 KECCAK256 CALLER DUP5 MSTORE SWAP1 SWAP2 MSTORE SWAP1 KECCAK256 SLOAD PUSH1 0xFF AND ISZERO PUSH2 0x968 JUMPI PUSH1 0x40 MLOAD PUSH3 0x461BCD PUSH1 0xE5 SHL DUP2 MSTORE PUSH1 0x20 PUSH1 0x4 DUP3 ADD MSTORE PUSH1 0x7 PUSH1 0x24 DUP3 ADD MSTORE PUSH7 0x616C7265616479 PUSH1 0xC8 SHL PUSH1 0x44 DUP3 ADD MSTORE PUSH1 0x64 ADD PUSH2 0x1D7 JUMP JUMPDEST PUSH1 0x1 DUP2 ADD SLOAD PUSH1 0x2 DUP3 ADD SLOAD PUSH1 0x40 MLOAD PUSH4 0x23B872DD PUSH1 0xE0 SHL DUP2 MSTORE CALLER PUSH1 0x4 DUP3 ADD MSTORE ADDRESS PUSH1 0x24 DUP3 ADD MSTORE PUSH1 0x44 DUP2 ADD SWAP2 SWAP1 SWAP2 MSTORE PUSH1 0x1 PUSH1 0x1 PUSH1 0xA0 SHL SUB SWAP1 SWAP2 AND SWAP1 PUSH4 0x23B872DD SWAP1 PUSH1 0x64 ADD PUSH1 0x20 PUSH1 0x40 MLOAD DUP1 DUP4 SUB DUP2 PUSH1 0x0 DUP8 GAS CALL ISZERO DUP1 ISZERO PUSH2 0x9C7 JUMPI RETURNDATASIZE PUSH1 0x0 DUP1 RETURNDATACOPY RETURNDATASIZE PUSH1 0x0 REVERT JUMPDEST POP POP POP POP PUSH1 0x40 MLOAD RETURNDATASIZE PUSH1 0x1F NOT PUSH1 0x1F DUP3 ADD AND DUP3 ADD DUP1 PUSH1 0x40 MSTORE POP DUP2 ADD SWAP1 PUSH2 0x9EB SWAP2 SWAP1 PUSH2 0x11B8 JUMP JUMPDEST PUSH2 0xA2B JUMPI PUSH1 0x40 MLOAD PUSH3 0x461BCD PUSH1 0xE5 SHL DUP2 MSTORE PUSH1 0x20 PUSH1 0x4 DUP3 ADD MSTORE PUSH1 0x11 PUSH1 0x24 DUP3 ADD MSTORE PUSH17 0x1D1C985B9CD9995C919C9BDB4819985A5B PUSH1 0x7A SHL PUSH1 0x44 DUP3 ADD MSTORE PUSH1 0x64 ADD PUSH2 0x1D7 JUMP JUMPDEST PUSH1 0x8 DUP2 ADD DUP1 SLOAD PUSH1 0x0 SWAP1 DUP2 MSTORE PUSH1 0x7 DUP4 ADD PUSH1 0x20 SWAP1 DUP2 MSTORE PUSH1 0x40 DUP1 DUP4 KECCAK256 CALLER DUP1 DUP6 MSTORE SWAP3 MSTORE SWAP2 DUP3 SWAP1 KECCAK256 DUP1 SLOAD PUSH1 0xFF NOT AND PUSH1 0x1 OR SWAP1 SSTORE SWAP2 SLOAD PUSH1 0x2 DUP5 ADD SLOAD SWAP2 MLOAD SWAP1 SWAP2 DUP6 SWAP2 PUSH32 0xB7CAC5B0031D5E68C72F4B2668A3AC6AC661109E52D629A1C57DAE09F882E29A SWAP2 PUSH2 0xA95 SWAP2 SWAP1 DUP2 MSTORE PUSH1 0x20 ADD SWAP1 JUMP JUMPDEST PUSH1 0x40 MLOAD DUP1 SWAP2 SUB SWAP1 LOG4 POP POP JUMP JUMPDEST PUSH1 0x0 DUP2 DUP2 MSTORE PUSH1 0x1 PUSH1 0x20 MSTORE PUSH1 0x40 DUP2 KECCAK256 PUSH1 0x9 DUP2 ADD SLOAD PUSH1 0xFF AND PUSH2 0xAC4 JUMPI POP PUSH1 0x0 SWAP3 SWAP2 POP POP JUMP JUMPDEST DUP1 PUSH1 0x6 ADD SLOAD TIMESTAMP LT ISZERO PUSH2 0xAD9 JUMPI POP PUSH1 0x0 SWAP3 SWAP2 POP POP JUMP JUMPDEST PUSH1 0x0 JUMPDEST PUSH1 0x4 DUP3 ADD SLOAD DUP2 LT ISZERO PUSH2 0xB56 JUMPI DUP2 PUSH1 0x7 ADD PUSH1 0x0 DUP4 PUSH1 0x8 ADD SLOAD DUP2 MSTORE PUSH1 0x20 ADD SWAP1 DUP2 MSTORE PUSH1 0x20 ADD PUSH1 0x0 KECCAK256 PUSH1 0x0 DUP4 PUSH1 0x4 ADD DUP4 DUP2 SLOAD DUP2 LT PUSH2 0xB18 JUMPI PUSH2 0xB18 PUSH2 0x11DC JUMP JUMPDEST PUSH1 0x0 SWAP2 DUP3 MSTORE PUSH1 0x20 DUP1 DUP4 KECCAK256 SWAP1 SWAP2 ADD SLOAD PUSH1 0x1 PUSH1 0x1 PUSH1 0xA0 SHL SUB AND DUP4 MSTORE DUP3 ADD SWAP3 SWAP1 SWAP3 MSTORE PUSH1 0x40 ADD SWAP1 KECCAK256 SLOAD PUSH1 0xFF AND PUSH2 0xB4E JUMPI POP PUSH1 0x0 SWAP4 SWAP3 POP POP POP JUMP JUMPDEST PUSH1 0x1 ADD PUSH2 0xADC JUMP JUMPDEST POP PUSH1 0x1 SWAP4 SWAP3 POP POP POP JUMP JUMPDEST PUSH1 0x0 DUP2 DUP2 MSTORE PUSH1 0x1 PUSH1 0x20 MSTORE PUSH1 0x40 SWAP1 KECCAK256 PUSH2 0xB77 DUP3 PUSH2 0xAA1 JUMP JUMPDEST PUSH2 0xBAF JUMPI PUSH1 0x40 MLOAD PUSH3 0x461BCD PUSH1 0xE5 SHL DUP2 MSTORE PUSH1 0x20 PUSH1 0x4 DUP3 ADD MSTORE PUSH1 0x9 PUSH1 0x24 DUP3 ADD MSTORE PUSH9 0x6E6F74207265616479 PUSH1 0xB8 SHL PUSH1 0x44 DUP3 ADD MSTORE PUSH1 0x64 ADD PUSH2 0x1D7 JUMP JUMPDEST PUSH1 0x0 DUP2 PUSH1 0x4 ADD DUP3 PUSH1 0x5 ADD SLOAD DUP2 SLOAD DUP2 LT PUSH2 0xBCA JUMPI PUSH2 0xBCA PUSH2 0x11DC JUMP JUMPDEST PUSH1 0x0 SWAP2 DUP3 MSTORE PUSH1 0x20 DUP3 KECCAK256 ADD SLOAD PUSH1 0x4 DUP5 ADD SLOAD PUSH1 0x2 DUP6 ADD SLOAD PUSH1 0x1 PUSH1 0x1 PUSH1 0xA0 SHL SUB SWAP1 SWAP3 AND SWAP4 POP PUSH2 0xBF5 SWAP2 PUSH2 0x11F2 JUMP JUMPDEST PUSH1 0x1 DUP5 ADD SLOAD PUSH1 0x40 MLOAD PUSH4 0xA9059CBB PUSH1 0xE0 SHL DUP2 MSTORE PUSH1 0x1 PUSH1 0x1 PUSH1 0xA0 SHL SUB DUP6 DUP2 AND PUSH1 0x4 DUP4 ADD MSTORE PUSH1 0x24 DUP3 ADD DUP5 SWAP1 MSTORE SWAP3 SWAP4 POP SWAP2 AND SWAP1 PUSH4 0xA9059CBB SWAP1 PUSH1 0x44 ADD PUSH1 0x20 PUSH1 0x40 MLOAD DUP1 DUP4 SUB DUP2 PUSH1 0x0 DUP8 GAS CALL ISZERO DUP1 ISZERO PUSH2 0xC4C JUMPI RETURNDATASIZE PUSH1 0x0 DUP1 RETURNDATACOPY RETURNDATASIZE PUSH1 0x0 REVERT JUMPDEST POP POP POP POP PUSH1 0x40 MLOAD RETURNDATASIZE PUSH1 0x1F NOT PUSH1 0x1F DUP3 ADD AND DUP3 ADD DUP1 PUSH1 0x40 MSTORE POP DUP2 ADD SWAP1 PUSH2 0xC70 SWAP2 SWAP1 PUSH2 0x11B8 JUMP JUMPDEST PUSH2 0xCAC JUMPI PUSH1 0x40 MLOAD PUSH3 0x461BCD PUSH1 0xE5 SHL DUP2 MSTORE PUSH1 0x20 PUSH1 0x4 DUP3 ADD MSTORE PUSH1 0xD PUSH1 0x24 DUP3 ADD MSTORE PUSH13 0x1D1C985B9CD9995C8819985A5B PUSH1 0x9A SHL PUSH1 0x44 DUP3 ADD MSTORE PUSH1 0x64 ADD PUSH2 0x1D7 JUMP JUMPDEST DUP2 PUSH1 0x1 PUSH1 0x1 PUSH1 0xA0 SHL SUB AND DUP4 PUSH1 0x8 ADD SLOAD DUP6 PUSH32 0xB9784FD5C9AD4FAC836B13940C6CDB47DFF51B96C0D6B74E32B35BE81C46F909 DUP5 PUSH1 0x40 MLOAD PUSH2 0xCED SWAP2 DUP2 MSTORE PUSH1 0x20 ADD SWAP1 JUMP JUMPDEST PUSH1 0x40 MLOAD DUP1 SWAP2 SUB SWAP1 LOG4 PUSH1 0x1 DUP4 PUSH1 0x8 ADD PUSH1 0x0 DUP3 DUP3 SLOAD PUSH2 0xD0A SWAP2 SWAP1 PUSH2 0x1121 JUMP JUMPDEST SWAP1 SWAP2 SSTORE POP POP PUSH1 0x4 DUP4 ADD SLOAD PUSH1 0x5 DUP5 ADD SLOAD PUSH2 0xD24 SWAP1 PUSH1 0x1 PUSH2 0x1121 JUMP JUMPDEST PUSH2 0xD2E SWAP2 SWAP1 PUSH2 0x1209 JUMP JUMPDEST PUSH1 0x5 DUP5 ADD DUP2 SWAP1 SSTORE PUSH1 0x0 SUB PUSH2 0xDCF JUMPI PUSH1 0x9 DUP4 ADD DUP1 SLOAD PUSH2 0xFF00 NOT AND PUSH2 0x100 OR SWAP1 SSTORE PUSH1 0x0 PUSH1 0x6 DUP5 ADD SSTORE PUSH1 0x8 DUP4 ADD SLOAD PUSH1 0x40 MLOAD DUP6 SWAP2 PUSH32 0x5D6CE35D8B5A0CD1F552BD0CE68F81BF96EADEBD1159905A8DD503FBBB029660 SWAP2 PUSH2 0xD8C SWAP2 DUP2 MSTORE PUSH1 0x20 ADD SWAP1 JUMP JUMPDEST PUSH1 0x40 MLOAD DUP1 SWAP2 SUB SWAP1 LOG2 PUSH1 0x40 MLOAD PUSH1 0x1 DUP2 MSTORE DUP5 SWAP1 PUSH32 0x6CFD9F3BE022D590D5B4FFB779DD0033CB73548908F22505D5A675602D18EBD4 SWAP1 PUSH1 0x20 ADD PUSH1 0x40 MLOAD DUP1 SWAP2 SUB SWAP1 LOG2 PUSH2 0xDE4 JUMP JUMPDEST PUSH1 0x3 DUP4 ADD SLOAD PUSH2 0xDDE SWAP1 TIMESTAMP PUSH2 0x1121 JUMP JUMPDEST PUSH1 0x6 DUP5 ADD SSTORE JUMPDEST POP POP POP POP JUMP JUMPDEST PUSH1 0x0 DUP1 SLOAD PUSH1 0x0 SUB PUSH2 0xDFB JUMPI POP PUSH1 0x0 SWAP1 JUMP JUMPDEST PUSH1 0x1 PUSH1 0x0 SLOAD PUSH2 0xE0A SWAP2 SWAP1 PUSH2 0x122B JUMP JUMPDEST SWAP1 POP SWAP1 JUMP JUMPDEST PUSH1 0x0 DUP1 JUMPDEST PUSH1 0x4 DUP5 ADD SLOAD DUP2 LT ISZERO PUSH2 0xE6A JUMPI DUP3 PUSH1 0x1 PUSH1 0x1 PUSH1 0xA0 SHL SUB AND DUP5 PUSH1 0x4 ADD DUP3 DUP2 SLOAD DUP2 LT PUSH2 0xE3E JUMPI PUSH2 0xE3E PUSH2 0x11DC JUMP JUMPDEST PUSH1 0x0 SWAP2 DUP3 MSTORE PUSH1 0x20 SWAP1 SWAP2 KECCAK256 ADD SLOAD PUSH1 0x1 PUSH1 0x1 PUSH1 0xA0 SHL SUB AND SUB PUSH2 0xE62 JUMPI PUSH1 0x1 SWAP2 POP POP PUSH2 0xE70 JUMP JUMPDEST PUSH1 0x1 ADD PUSH2 0xE13 JUMP JUMPDEST POP PUSH1 0x0 SWAP1 POP JUMPDEST SWAP3 SWAP2 POP POP JUMP JUMPDEST DUP3 DUP1 SLOAD DUP3 DUP3 SSTORE SWAP1 PUSH1 0x0 MSTORE PUSH1 0x20 PUSH1 0x0 KECCAK256 SWAP1 DUP2 ADD SWAP3 DUP3 ISZERO PUSH2 0xEC9 JUMPI SWAP2 PUSH1 0x20 MUL DUP3 ADD JUMPDEST DUP3 DUP2 GT ISZERO PUSH2 0xEC9 JUMPI DUP2 SLOAD PUSH1 0x1 PUSH1 0x1 PUSH1 0xA0 SHL SUB NOT AND PUSH1 0x1 PUSH1 0x1 PUSH1 0xA0 SHL SUB DUP5 CALLDATALOAD AND OR DUP3 SSTORE PUSH1 0x20 SWAP1 SWAP3 ADD SWAP2 PUSH1 0x1 SWAP1 SWAP2 ADD SWAP1 PUSH2 0xE96 JUMP JUMPDEST POP PUSH2 0xED5 SWAP3 SWAP2 POP PUSH2 0xED9 JUMP JUMPDEST POP SWAP1 JUMP JUMPDEST JUMPDEST DUP1 DUP3 GT ISZERO PUSH2 0xED5 JUMPI PUSH1 0x0 DUP2 SSTORE PUSH1 0x1 ADD PUSH2 0xEDA JUMP JUMPDEST PUSH1 0x0 PUSH1 0x20 DUP3 DUP5 SUB SLT ISZERO PUSH2 0xF00 JUMPI PUSH1 0x0 DUP1 REVERT JUMPDEST POP CALLDATALOAD SWAP2 SWAP1 POP JUMP JUMPDEST PUSH1 0x1 PUSH1 0x1 PUSH1 0xA0 SHL SUB DUP12 DUP2 AND DUP3 MSTORE DUP11 DUP2 AND PUSH1 0x20 DUP1 DUP5 ADD SWAP2 SWAP1 SWAP2 MSTORE PUSH1 0x40 DUP4 ADD DUP12 SWAP1 MSTORE PUSH1 0x60 DUP4 ADD DUP11 SWAP1 MSTORE PUSH2 0x140 PUSH1 0x80 DUP5 ADD DUP2 SWAP1 MSTORE DUP10 MLOAD SWAP1 DUP5 ADD DUP2 SWAP1 MSTORE PUSH1 0x0 SWAP3 PUSH2 0x160 DUP6 ADD SWAP3 DUP12 DUP2 ADD SWAP3 DUP6 JUMPDEST DUP2 DUP2 LT ISZERO PUSH2 0xF6D JUMPI DUP5 MLOAD DUP5 AND DUP7 MSTORE SWAP5 DUP3 ADD SWAP5 SWAP4 DUP3 ADD SWAP4 PUSH1 0x1 ADD PUSH2 0xF4F JUMP JUMPDEST POP POP POP POP POP DUP1 SWAP2 POP POP DUP7 PUSH1 0xA0 DUP4 ADD MSTORE DUP6 PUSH1 0xC0 DUP4 ADD MSTORE DUP5 PUSH1 0xE0 DUP4 ADD MSTORE PUSH2 0xF97 PUSH2 0x100 DUP4 ADD DUP6 ISZERO ISZERO SWAP1 MSTORE JUMP JUMPDEST DUP3 ISZERO ISZERO PUSH2 0x120 DUP4 ADD MSTORE SWAP12 SWAP11 POP POP POP POP POP POP POP POP POP POP POP JUMP JUMPDEST PUSH1 0x1 PUSH1 0x1 PUSH1 0xA0 SHL SUB DUP2 AND DUP2 EQ PUSH2 0xFC4 JUMPI PUSH1 0x0 DUP1 REVERT JUMPDEST POP JUMP JUMPDEST PUSH1 0x0 DUP1 PUSH1 0x0 DUP1 PUSH1 0x0 PUSH1 0x80 DUP7 DUP9 SUB SLT ISZERO PUSH2 0xFDF JUMPI PUSH1 0x0 DUP1 REVERT JUMPDEST DUP6 CALLDATALOAD PUSH2 0xFEA DUP2 PUSH2 0xFAF JUMP JUMPDEST SWAP5 POP PUSH1 0x20 DUP7 ADD CALLDATALOAD PUSH8 0xFFFFFFFFFFFFFFFF DUP1 DUP3 GT ISZERO PUSH2 0x1007 JUMPI PUSH1 0x0 DUP1 REVERT JUMPDEST DUP2 DUP9 ADD SWAP2 POP DUP9 PUSH1 0x1F DUP4 ADD SLT PUSH2 0x101B JUMPI PUSH1 0x0 DUP1 REVERT JUMPDEST DUP2 CALLDATALOAD DUP2 DUP2 GT ISZERO PUSH2 0x102A JUMPI PUSH1 0x0 DUP1 REVERT JUMPDEST DUP10 PUSH1 0x20 DUP3 PUSH1 0x5 SHL DUP6 ADD ADD GT ISZERO PUSH2 0x103F JUMPI PUSH1 0x0 DUP1 REVERT JUMPDEST SWAP7 SWAP10 PUSH1 0x20 SWAP3 SWAP1 SWAP3 ADD SWAP9 POP SWAP6 SWAP7 PUSH1 0x40 DUP2 ADD CALLDATALOAD SWAP7 POP PUSH1 0x60 ADD CALLDATALOAD SWAP5 POP SWAP3 POP POP POP JUMP JUMPDEST DUP1 ISZERO ISZERO DUP2 EQ PUSH2 0xFC4 JUMPI PUSH1 0x0 DUP1 REVERT JUMPDEST PUSH1 0x0 DUP1 PUSH1 0x40 DUP4 DUP6 SUB SLT ISZERO PUSH2 0x107F JUMPI PUSH1 0x0 DUP1 REVERT JUMPDEST DUP3 CALLDATALOAD SWAP2 POP PUSH1 0x20 DUP4 ADD CALLDATALOAD PUSH2 0x1091 DUP2 PUSH2 0x105E JUMP JUMPDEST DUP1 SWAP2 POP POP SWAP3 POP SWAP3 SWAP1 POP JUMP JUMPDEST PUSH1 0x20 DUP1 DUP3 MSTORE PUSH1 0x8 SWAP1 DUP3 ADD MSTORE PUSH8 0x696E616374697665 PUSH1 0xC0 SHL PUSH1 0x40 DUP3 ADD MSTORE PUSH1 0x60 ADD SWAP1 JUMP JUMPDEST PUSH1 0x20 DUP1 DUP3 MSTORE PUSH1 0xD SWAP1 DUP3 ADD MSTORE PUSH13 0x3737BA1037B933B0B734BD32B9 PUSH1 0x99 SHL PUSH1 0x40 DUP3 ADD MSTORE PUSH1 0x60 ADD SWAP1 JUMP JUMPDEST PUSH1 0x20 DUP1 DUP3 MSTORE PUSH1 0xC SWAP1 DUP3 ADD MSTORE PUSH12 0x6E6F7420626F756E64617279 PUSH1 0xA0 SHL PUSH1 0x40 DUP3 ADD MSTORE PUSH1 0x60 ADD SWAP1 JUMP JUMPDEST PUSH4 0x4E487B71 PUSH1 0xE0 SHL PUSH1 0x0 MSTORE PUSH1 0x11 PUSH1 0x4 MSTORE PUSH1 0x24 PUSH1 0x0 REVERT JUMPDEST DUP1 DUP3 ADD DUP1 DUP3 GT ISZERO PUSH2 0xE70 JUMPI PUSH2 0xE70 PUSH2 0x110B JUMP JUMPDEST PUSH1 0x0 PUSH1 0x1 DUP3 ADD PUSH2 0x1146 JUMPI PUSH2 0x1146 PUSH2 0x110B JUMP JUMPDEST POP PUSH1 0x1 ADD SWAP1 JUMP JUMPDEST PUSH1 0x1 PUSH1 0x1 PUSH1 0xA0 SHL SUB DUP7 DUP2 AND DUP3 MSTORE PUSH1 0x20 DUP1 DUP4 ADD DUP8 SWAP1 MSTORE PUSH1 0x40 DUP4 ADD DUP7 SWAP1 MSTORE PUSH1 0x80 PUSH1 0x60 DUP5 ADD DUP2 SWAP1 MSTORE DUP4 ADD DUP5 SWAP1 MSTORE PUSH1 0x0 SWAP2 DUP6 SWAP2 PUSH1 0xA0 DUP6 ADD DUP5 JUMPDEST DUP8 DUP2 LT ISZERO PUSH2 0x11A9 JUMPI DUP5 CALLDATALOAD PUSH2 0x1195 DUP2 PUSH2 0xFAF JUMP JUMPDEST DUP5 AND DUP3 MSTORE SWAP4 DUP3 ADD SWAP4 SWAP1 DUP3 ADD SWAP1 PUSH1 0x1 ADD PUSH2 0x1182 JUMP JUMPDEST POP SWAP11 SWAP10 POP POP POP POP POP POP POP POP POP POP JUMP JUMPDEST PUSH1 0x0 PUSH1 0x20 DUP3 DUP5 SUB SLT ISZERO PUSH2 0x11CA JUMPI PUSH1 0x0 DUP1 REVERT JUMPDEST DUP2 MLOAD PUSH2 0x11D5 DUP2 PUSH2 0x105E JUMP JUMPDEST SWAP4 SWAP3 POP POP POP JUMP JUMPDEST PUSH4 0x4E487B71 PUSH1 0xE0 SHL PUSH1 0x0 MSTORE PUSH1 0x32 PUSH1 0x4 MSTORE PUSH1 0x24 PUSH1 0x0 REVERT JUMPDEST DUP1 DUP3 MUL DUP2 ISZERO DUP3 DUP3 DIV DUP5 EQ OR PUSH2 0xE70 JUMPI PUSH2 0xE70 PUSH2 0x110B JUMP JUMPDEST PUSH1 0x0 DUP3 PUSH2 0x1226 JUMPI PUSH4 0x4E487B71 PUSH1 0xE0 SHL PUSH1 0x0 MSTORE PUSH1 0x12 PUSH1 0x4 MSTORE PUSH1 0x24 PUSH1 0x0 REVERT JUMPDEST POP MOD SWAP1 JUMP JUMPDEST DUP2 DUP2 SUB DUP2 DUP2 GT ISZERO PUSH2 0xE70 JUMPI PUSH2 0xE70 PUSH2 0x110B JUMP INVALID LOG2 PUSH5 0x6970667358 0x22 SLT KECCAK256 PUSH6 0x93D24D220B7F 0x4C PUSH29 0x9CB866755A1F9B8EF5A8CCD3495C9E056D0666D10288A64736F6C6343 STOP ADDMOD XOR STOP CALLER "},"methodIdentifiers":{"canPayout(uint256)":"b90b553b","createCircle(address,address[],uint256,uint256)":"7b8ec366","deposit(uint256)":"b6b55f25","getCircle(uint256)":"64ccecde","joinCircle(uint256)":"86d6cfb3","nextId()":"61b8ce8c","payout(uint256)":"e1152343","restart(uint256)":"1801f38e","setOpenToJoin(uint256,bool)":"9c67a198","terminate(uint256)":"7a828b28","totalCircles()":"e63e686b"}}}}}