{
  "_format": "hh-sol-artifact-1",
  "contractName": "EmergencyMode",
  "sourceName": "contracts/EmergencyMode.sol",
  "abi": [
    {
      "inputs": [],
      "stateMutability": "nonpayable",
      "type": "constructor"
    },
    {
      "anonymous": false,
      "inputs": [
        {
          "indexed": true,
          "internalType": "address",
          "name": "authority",
          "type": "address"
        },
        {
          "indexed": false,
          "internalType": "bool",
          "name": "allowed",
          "type": "bool"
        }
      ],
      "name": "AuthorityUpdated",
      "type": "event"
    },
    {
      "anonymous": false,
      "inputs": [
        {
          "indexed": false,
          "internalType": "bool",
          "name": "active",
          "type": "bool"
        },
        {
          "indexed": false,
          "internalType": "uint256",
          "name": "timestamp",
          "type": "uint256"
        }
      ],
      "name": "GlobalEmergencySet",
      "type": "event"
    },
    {
      "anonymous": false,
      "inputs": [
        {
          "indexed": true,
          "internalType": "bytes32",
          "name": "region",
          "type": "bytes32"
        },
        {
          "indexed": false,
          "internalType": "bool",
          "name": "active",
          "type": "bool"
        },
        {
          "indexed": false,
          "internalType": "uint256",
          "name": "timestamp",
          "type": "uint256"
        }
      ],
      "name": "RegionEmergencySet",
      "type": "event"
    },
    {
      "inputs": [],
      "name": "admin",
      "outputs": [
        {
          "internalType": "address",
          "name": "",
          "type": "address"
        }
      ],
      "stateMutability": "view",
      "type": "function"
    },
    {
      "inputs": [],
      "name": "globalEmergency",
      "outputs": [
        {
          "internalType": "bool",
          "name": "",
          "type": "bool"
        }
      ],
      "stateMutability": "view",
      "type": "function"
    },
    {
      "inputs": [
        {
          "internalType": "address",
          "name": "",
          "type": "address"
        }
      ],
      "name": "isAuthority",
      "outputs": [
        {
          "internalType": "bool",
          "name": "",
          "type": "bool"
        }
      ],
      "stateMutability": "view",
      "type": "function"
    },
    {
      "inputs": [
        {
          "internalType": "bytes32",
          "name": "region",
          "type": "bytes32"
        }
      ],
      "name": "isEmergency",
      "outputs": [
        {
          "internalType": "bool",
          "name": "",
          "type": "bool"
        }
      ],
      "stateMutability": "view",
      "type": "function"
    },
    {
      "inputs": [
        {
          "internalType": "bytes32",
          "name": "",
          "type": "bytes32"
        }
      ],
      "name": "regionEmergency",
      "outputs": [
        {
          "internalType": "bool",
          "name": "",
          "type": "bool"
        }
      ],
      "stateMutability": "view",
      "type": "function"
    },
    {
      "inputs": [
        {
          "internalType": "address",
          "name": "authority",
          "type": "address"
        },
        {
          "internalType": "bool",
          "name": "allowed",
          "type": "bool"
        }
      ],
      "name": "setAuthority",
      "outputs": [],
      "stateMutability": "nonpayable",
      "type": "function"
    },
    {
      "inputs": [
        {
          "internalType": "bool",
          "name": "active",
          "type": "bool"
        }
      ],
      "name": "setGlobalEmergency",
      "outputs": [],
      "stateMutability": "nonpayable",
      "type": "function"
    },
    {
      "inputs": [
        {
          "internalType": "bytes32",
          "name": "region",
          "type": "bytes32"
        },
        {
          "internalType": "bool",
          "name": "active",
          "type": "bool"
        }
      ],
      "name": "setRegionEmergency",
      "outputs": [],
      "stateMutability": "nonpayable",
      "type": "function"
    }
  ],
  "bytecode": "0x60a060405234801561001057600080fd5b503360805260805161052a610045600039600081816101480152818161018d0152818161029b015261036a015261052a6000f3fe608060405234801561001057600080fd5b50600436106100885760003560e01c8063acbf1bbc1161005b578063acbf1bbc146100fa578063b5f0d35c1461010d578063e3ff02ba14610120578063f851a4401461014357600080fd5b80632330f2471461008d578063509387c4146100c55780635befabc2146100da5780638e43b912146100e7575b600080fd5b6100b061009b366004610438565b60026020526000908152604090205460ff1681565b60405190151581526020015b60405180910390f35b6100d86100d336600461046a565b610182565b005b6000546100b09060ff1681565b6100b06100f5366004610496565b61026a565b6100d86101083660046104af565b610290565b6100d861011b3660046104ca565b61035f565b6100b061012e366004610496565b60016020526000908152604090205460ff1681565b61016a7f000000000000000000000000000000000000000000000000000000000000000081565b6040516001600160a01b0390911681526020016100bc565b336001600160a01b037f00000000000000000000000000000000000000000000000000000000000000001614806101c857503360009081526002602052604090205460ff165b61020a5760405162461bcd60e51b815260206004820152600e60248201526d4f6e6c7920617574686f7269747960901b60448201526064015b60405180910390fd5b600082815260016020908152604091829020805460ff19168415159081179091558251908152429181019190915283917ff2c996101305866ee4e169ba588f51d0ffbf8a3f59ae11430f85f9815f3c3ace91015b60405180910390a25050565b6000805460ff168061028a575060008281526001602052604090205460ff165b92915050565b336001600160a01b037f00000000000000000000000000000000000000000000000000000000000000001614806102d657503360009081526002602052604090205460ff165b6103135760405162461bcd60e51b815260206004820152600e60248201526d4f6e6c7920617574686f7269747960901b6044820152606401610201565b6000805460ff1916821515908117909155604080519182524260208301527f8d4bbceee1104a14012c94eb089fd6104112ac482c4391482ee278fad434f2fc910160405180910390a150565b336001600160a01b037f000000000000000000000000000000000000000000000000000000000000000016146103c45760405162461bcd60e51b815260206004820152600a60248201526927b7363c9030b236b4b760b11b6044820152606401610201565b6001600160a01b038216600081815260026020908152604091829020805460ff191685151590811790915591519182527fc5238a63fa205f95e98807f6cbc91d2ad8555a2250075e47491f11d9c69db3bc910161025e565b80356001600160a01b038116811461043357600080fd5b919050565b60006020828403121561044a57600080fd5b6104538261041c565b9392505050565b8035801515811461043357600080fd5b6000806040838503121561047d57600080fd5b8235915061048d6020840161045a565b90509250929050565b6000602082840312156104a857600080fd5b5035919050565b6000602082840312156104c157600080fd5b6104538261045a565b600080604083850312156104dd57600080fd5b6104e68361041c565b915061048d6020840161045a56fea2646970667358221220461f847073b9f7a09d8ebf5df1c8add582d48af0d8505df59aee700b7072343064736f6c63430008180033",
  "linkReferences": {},
  "deployedLinkReferences": {}
}