{
  "_format": "hh-sol-artifact-1",
  "contractName": "SocialReputation",
  "sourceName": "contracts/SocialReputation.sol",
  "abi": [
    {
      "inputs": [
        {
          "internalType": "contract IERC20",
          "name": "_loanToken",
          "type": "address"
        }
      ],
      "stateMutability": "nonpayable",
      "type": "constructor"
    },
    {
      "anonymous": false,
      "inputs": [
        {
          "indexed": true,
          "internalType": "address",
          "name": "caller",
          "type": "address"
        },
        {
          "indexed": false,
          "internalType": "bool",
          "name": "allowed",
          "type": "bool"
        }
      ],
      "name": "AuthorizedCaller",
      "type": "event"
    },
    {
      "anonymous": false,
      "inputs": [
        {
          "indexed": true,
          "internalType": "address",
          "name": "borrower",
          "type": "address"
        },
        {
          "indexed": false,
          "internalType": "uint256",
          "name": "amount",
          "type": "uint256"
        }
      ],
      "name": "Borrowed",
      "type": "event"
    },
    {
      "anonymous": false,
      "inputs": [
        {
          "indexed": true,
          "internalType": "address",
          "name": "endorser",
          "type": "address"
        },
        {
          "indexed": true,
          "internalType": "address",
          "name": "target",
          "type": "address"
        }
      ],
      "name": "Endorsed",
      "type": "event"
    },
    {
      "anonymous": false,
      "inputs": [
        {
          "indexed": true,
          "internalType": "address",
          "name": "from",
          "type": "address"
        },
        {
          "indexed": true,
          "internalType": "address",
          "name": "to",
          "type": "address"
        },
        {
          "indexed": false,
          "internalType": "address",
          "name": "token",
          "type": "address"
        },
        {
          "indexed": false,
          "internalType": "uint256",
          "name": "amount",
          "type": "uint256"
        }
      ],
      "name": "PaymentReported",
      "type": "event"
    },
    {
      "anonymous": false,
      "inputs": [
        {
          "indexed": true,
          "internalType": "address",
          "name": "from",
          "type": "address"
        },
        {
          "indexed": false,
          "internalType": "uint256",
          "name": "amount",
          "type": "uint256"
        }
      ],
      "name": "PoolFunded",
      "type": "event"
    },
    {
      "anonymous": false,
      "inputs": [
        {
          "indexed": true,
          "internalType": "address",
          "name": "borrower",
          "type": "address"
        },
        {
          "indexed": false,
          "internalType": "uint256",
          "name": "amount",
          "type": "uint256"
        }
      ],
      "name": "Repaid",
      "type": "event"
    },
    {
      "anonymous": false,
      "inputs": [
        {
          "indexed": true,
          "internalType": "address",
          "name": "endorser",
          "type": "address"
        },
        {
          "indexed": true,
          "internalType": "address",
          "name": "target",
          "type": "address"
        }
      ],
      "name": "Unendorsed",
      "type": "event"
    },
    {
      "inputs": [],
      "name": "admin",
      "outputs": [
        {
          "internalType": "address",
          "name": "",
          "type": "address"
        }
      ],
      "stateMutability": "view",
      "type": "function"
    },
    {
      "inputs": [
        {
          "internalType": "uint256",
          "name": "amount",
          "type": "uint256"
        }
      ],
      "name": "borrow",
      "outputs": [],
      "stateMutability": "nonpayable",
      "type": "function"
    },
    {
      "inputs": [
        {
          "internalType": "address",
          "name": "target",
          "type": "address"
        }
      ],
      "name": "endorse",
      "outputs": [],
      "stateMutability": "nonpayable",
      "type": "function"
    },
    {
      "inputs": [
        {
          "internalType": "uint256",
          "name": "amount",
          "type": "uint256"
        }
      ],
      "name": "fundPool",
      "outputs": [],
      "stateMutability": "nonpayable",
      "type": "function"
    },
    {
      "inputs": [
        {
          "internalType": "address",
          "name": "user",
          "type": "address"
        }
      ],
      "name": "getScore",
      "outputs": [
        {
          "internalType": "uint256",
          "name": "",
          "type": "uint256"
        }
      ],
      "stateMutability": "view",
      "type": "function"
    },
    {
      "inputs": [
        {
          "internalType": "address",
          "name": "",
          "type": "address"
        }
      ],
      "name": "isAuthorizedCaller",
      "outputs": [
        {
          "internalType": "bool",
          "name": "",
          "type": "bool"
        }
      ],
      "stateMutability": "view",
      "type": "function"
    },
    {
      "inputs": [],
      "name": "loanToken",
      "outputs": [
        {
          "internalType": "contract IERC20",
          "name": "",
          "type": "address"
        }
      ],
      "stateMutability": "view",
      "type": "function"
    },
    {
      "inputs": [
        {
          "internalType": "address",
          "name": "user",
          "type": "address"
        }
      ],
      "name": "maxBorrowable",
      "outputs": [
        {
          "internalType": "uint256",
          "name": "",
          "type": "uint256"
        }
      ],
      "stateMutability": "view",
      "type": "function"
    },
    {
      "inputs": [
        {
          "internalType": "address",
          "name": "",
          "type": "address"
        }
      ],
      "name": "outstandingDebt",
      "outputs": [
        {
          "internalType": "uint256",
          "name": "",
          "type": "uint256"
        }
      ],
      "stateMutability": "view",
      "type": "function"
    },
    {
      "inputs": [
        {
          "internalType": "uint256",
          "name": "amount",
          "type": "uint256"
        }
      ],
      "name": "repay",
      "outputs": [],
      "stateMutability": "nonpayable",
      "type": "function"
    },
    {
      "inputs": [
        {
          "internalType": "address",
          "name": "from",
          "type": "address"
        },
        {
          "internalType": "address",
          "name": "to",
          "type": "address"
        },
        {
          "internalType": "address",
          "name": "token",
          "type": "address"
        },
        {
          "internalType": "uint256",
          "name": "amountNormalized1e18",
          "type": "uint256"
        }
      ],
      "name": "reportPayment",
      "outputs": [],
      "stateMutability": "nonpayable",
      "type": "function"
    },
    {
      "inputs": [
        {
          "internalType": "address",
          "name": "caller",
          "type": "address"
        },
        {
          "internalType": "bool",
          "name": "allowed",
          "type": "bool"
        }
      ],
      "name": "setAuthorizedCaller",
      "outputs": [],
      "stateMutability": "nonpayable",
      "type": "function"
    },
    {
      "inputs": [],
      "name": "totalPool",
      "outputs": [
        {
          "internalType": "uint256",
          "name": "",
          "type": "uint256"
        }
      ],
      "stateMutability": "view",
      "type": "function"
    },
    {
      "inputs": [
        {
          "internalType": "address",
          "name": "target",
          "type": "address"
        }
      ],
      "name": "unendorse",
      "outputs": [],
      "stateMutability": "nonpayable",
      "type": "function"
    }
  ],
  "bytecode": "0x60c060405234801561001057600080fd5b50604051610fb1380380610fb183398101604081905261002f91610044565b336080526001600160a01b031660a052610074565b60006020828403121561005657600080fd5b81516001600160a01b038116811461006d57600080fd5b9392505050565b60805160a051610ef66100bb6000396000818160f40152818161035801528181610546015281816108a50152610b2e01526000818161024f01526104890152610ef66000f3fe608060405234801561001057600080fd5b50600436106100ea5760003560e01c8063c06cc7d41161008c578063d47875d011610066578063d47875d01461021b578063da3a5f721461022e578063ecfb49a314610241578063f851a4401461024a57600080fd5b8063c06cc7d4146101e2578063c5ebeaec146101f5578063d100dab31461020857600080fd5b8063454bbd29116100c8578063454bbd291461017657806353696eb81461018957806359d14b411461019c5780636ea5511f146101cf57600080fd5b806306d37817146100ef57806320b9c82a14610133578063371fd8e614610161575b600080fd5b6101167f000000000000000000000000000000000000000000000000000000000000000081565b6040516001600160a01b0390911681526020015b60405180910390f35b610153610141366004610c4b565b60026020526000908152604090205481565b60405190815260200161012a565b61017461016f366004610c66565b610271565b005b610174610184366004610c90565b61047e565b610153610197366004610c4b565b610541565b6101bf6101aa366004610c4b565b60006020819052908152604090205460ff1681565b604051901515815260200161012a565b6101746101dd366004610c4b565b610612565b6101746101f0366004610cc7565b6106dd565b610174610203366004610c66565b6107bc565b610174610216366004610c4b565b610988565b610153610229366004610c4b565b610a49565b61017461023c366004610c66565b610ace565b61015360035481565b6101167f000000000000000000000000000000000000000000000000000000000000000081565b600081116102b15760405162461bcd60e51b81526020600482015260086024820152670616d6f756e743d360c41b60448201526064015b60405180910390fd5b33600090815260026020526040902054806102f85760405162461bcd60e51b81526020600482015260076024820152661b9bc81919589d60ca1b60448201526064016102a8565b808211156103335760405162461bcd60e51b81526020600482015260086024820152670e8dede40daeac6d60c31b60448201526064016102a8565b6040516323b872dd60e01b8152336004820152306024820152604481018390526000907f00000000000000000000000000000000000000000000000000000000000000006001600160a01b0316906323b872dd906064016020604051808303816000875af11580156103a9573d6000803e3d6000fd5b505050506040513d601f19601f820116820180604052508101906103cd9190610d12565b9050806104105760405162461bcd60e51b81526020600482015260116024820152701d1c985b9cd9995c919c9bdb4819985a5b607a1b60448201526064016102a8565b61041a8383610d45565b336000908152600260205260408120919091556003805485929061043f908490610d5e565b909155505060405183815233907f0516911bcc3a0a7412a44601057c0a0a1ec628bde049a84284bc4288665344889060200160405180910390a2505050565b336001600160a01b037f000000000000000000000000000000000000000000000000000000000000000016146104e35760405162461bcd60e51b815260206004820152600a60248201526927b7363c9030b236b4b760b11b60448201526064016102a8565b6001600160a01b03821660008181526020818152604091829020805460ff191685151590811790915591519182527fb266b84e4ebe1ce46621cd60b98a479f375f552e5ef00830edebdfef8c77278191015b60405180910390a25050565b6000807f00000000000000000000000000000000000000000000000000000000000000006001600160a01b031663313ce5676040518163ffffffff1660e01b8152600401602060405180830381865afa1580156105a2573d6000803e3d6000fd5b505050506040513d601f19601f820116820180604052508101906105c69190610d71565b9050600060646105d783600a610e78565b6105e086610a49565b6105ea9190610e87565b6105f49190610e9e565b905060035481111561060b57505060035492915050565b9392505050565b6001600160a01b0381166000908152600160209081526040808320338452600481019092529091205460ff161561067e5760405162461bcd60e51b815260206004820152601060248201526f105b1c9958591e48195b991bdc9cd95960821b60448201526064016102a8565b336000818152600483016020526040808220805460ff191660019081179091556003850180549091019055516001600160a01b03851692917f23bca93d1f21ae32b587bcfa6c4c3310685b7d09d5a18b30f748e0af6d7ee0fb91a35050565b3360009081526020819052604090205460ff1661072d5760405162461bcd60e51b815260206004820152600e60248201526d139bdd08185d5d1a1bdc9a5e995960921b60448201526064016102a8565b6001600160a01b038481166000818152600160208181526040808420898716808652948290208154850182558085018054909501909455600280820180548a01905584018054890190558151968916875291860187905290949193917fbb9a3e9ac9f016f7bc97843a50400e2c550e4c875a845b4aa82cc3c39f8dcff1910160405180910390a3505050505050565b33600090815260026020526040902054156108075760405162461bcd60e51b815260206004820152600b60248201526a446562742065786973747360a81b60448201526064016102a8565b600061081233610541565b90506000821180156108245750808211155b6108605760405162461bcd60e51b815260206004820152600d60248201526c195e18d959591cc81b1a5b5a5d609a1b60448201526064016102a8565b33600090815260026020526040812083905560038054849290610884908490610d45565b909155505060405163a9059cbb60e01b8152336004820152602481018390527f00000000000000000000000000000000000000000000000000000000000000006001600160a01b03169063a9059cbb906044016020604051808303816000875af11580156108f6573d6000803e3d6000fd5b505050506040513d601f19601f8201168201806040525081019061091a9190610d12565b6109565760405162461bcd60e51b815260206004820152600d60248201526c1d1c985b9cd9995c8819985a5b609a1b60448201526064016102a8565b60405182815233907fac59582e5396aca512fa873a2047e7f4c80f8f55d4a06cb34a78a0187f62719f90602001610535565b6001600160a01b0381166000908152600160209081526040808320338452600481019092529091205460ff166109ef5760405162461bcd60e51b815260206004820152600c60248201526b139bdd08195b991bdc9cd95960a21b60448201526064016102a8565b336000818152600483016020526040808220805460ff19169055600384018054600019019055516001600160a01b03851692917f97394cbfef09957a2f2c87de5c38650f389066007313a045cfbe05e0599c48df91a35050565b6001600160a01b038116600090815260016020526040812060028101548290610a7c9068056bc75e2d6310000090610e9e565b6003830154610a8c90600a610e87565b600180850154610a9b91610e87565b8454610aa8906002610e87565b610ab29190610d5e565b610abc9190610d5e565b610ac69190610d5e565b949350505050565b60008111610b095760405162461bcd60e51b81526020600482015260086024820152670616d6f756e743d360c41b60448201526064016102a8565b6040516323b872dd60e01b8152336004820152306024820152604481018290526000907f00000000000000000000000000000000000000000000000000000000000000006001600160a01b0316906323b872dd906064016020604051808303816000875af1158015610b7f573d6000803e3d6000fd5b505050506040513d601f19601f82011682018060405250810190610ba39190610d12565b905080610be65760405162461bcd60e51b81526020600482015260116024820152701d1c985b9cd9995c919c9bdb4819985a5b607a1b60448201526064016102a8565b8160036000828254610bf89190610d5e565b909155505060405182815233907f32173d8e51cec3a6fe484b7a1c3febe760cdf96e03d4cca36a43563a4333e83890602001610535565b80356001600160a01b0381168114610c4657600080fd5b919050565b600060208284031215610c5d57600080fd5b61060b82610c2f565b600060208284031215610c7857600080fd5b5035919050565b8015158114610c8d57600080fd5b50565b60008060408385031215610ca357600080fd5b610cac83610c2f565b91506020830135610cbc81610c7f565b809150509250929050565b60008060008060808587031215610cdd57600080fd5b610ce685610c2f565b9350610cf460208601610c2f565b9250610d0260408601610c2f565b9396929550929360600135925050565b600060208284031215610d2457600080fd5b815161060b81610c7f565b634e487b7160e01b600052601160045260246000fd5b81810381811115610d5857610d58610d2f565b92915050565b80820180821115610d5857610d58610d2f565b600060208284031215610d8357600080fd5b815160ff8116811461060b57600080fd5b600181815b80851115610dcf578160001904821115610db557610db5610d2f565b80851615610dc257918102915b93841c9390800290610d99565b509250929050565b600082610de657506001610d58565b81610df357506000610d58565b8160018114610e095760028114610e1357610e2f565b6001915050610d58565b60ff841115610e2457610e24610d2f565b50506001821b610d58565b5060208310610133831016604e8410600b8410161715610e52575081810a610d58565b610e5c8383610d94565b8060001904821115610e7057610e70610d2f565b029392505050565b600061060b60ff841683610dd7565b8082028115828204841417610d5857610d58610d2f565b600082610ebb57634e487b7160e01b600052601260045260246000fd5b50049056fea2646970667358221220456b5313e42ea7528ac09b8502f26a24782f6e5a18197276e47b347f53e0dcd964736f6c63430008180033",
  "linkReferences": {},
  "deployedLinkReferences": {}
}