{
  "_format": "hh-sol-artifact-1",
  "contractName": "SocialReputation",
  "sourceName": "contracts/SocialReputation.sol",
  "abi": [
    {
      "inputs": [
        {
          "internalType": "contract IERC20",
          "name": "_loanToken",
          "type": "address"
        }
      ],
      "stateMutability": "nonpayable",
      "type": "constructor"
    },
    {
      "anonymous": false,
      "inputs": [
        {
          "indexed": true,
          "internalType": "address",
          "name": "caller",
          "type": "address"
        },
        {
          "indexed": false,
          "internalType": "bool",
          "name": "allowed",
          "type": "bool"
        }
      ],
      "name": "AuthorizedCaller",
      "type": "event"
    },
    {
      "anonymous": false,
      "inputs": [
        {
          "indexed": true,
          "internalType": "address",
          "name": "borrower",
          "type": "address"
        },
        {
          "indexed": false,
          "internalType": "uint256",
          "name": "amount",
          "type": "uint256"
        }
      ],
      "name": "Borrowed",
      "type": "event"
    },
    {
      "anonymous": false,
      "inputs": [
        {
          "indexed": true,
          "internalType": "address",
          "name": "endorser",
          "type": "address"
        },
        {
          "indexed": true,
          "internalType": "address",
          "name": "target",
          "type": "address"
        }
      ],
      "name": "Endorsed",
      "type": "event"
    },
    {
      "anonymous": false,
      "inputs": [
        {
          "indexed": true,
          "internalType": "address",
          "name": "from",
          "type": "address"
        },
        {
          "indexed": true,
          "internalType": "address",
          "name": "to",
          "type": "address"
        },
        {
          "indexed": false,
          "internalType": "address",
          "name": "token",
          "type": "address"
        },
        {
          "indexed": false,
          "internalType": "uint256",
          "name": "amount",
          "type": "uint256"
        }
      ],
      "name": "PaymentReported",
      "type": "event"
    },
    {
      "anonymous": false,
      "inputs": [
        {
          "indexed": true,
          "internalType": "address",
          "name": "from",
          "type": "address"
        },
        {
          "indexed": false,
          "internalType": "uint256",
          "name": "amount",
          "type": "uint256"
        },
        {
          "indexed": false,
          "internalType": "uint256",
          "name": "sharesMinted",
          "type": "uint256"
        }
      ],
      "name": "PoolFunded",
      "type": "event"
    },
    {
      "anonymous": false,
      "inputs": [
        {
          "indexed": true,
          "internalType": "address",
          "name": "to",
          "type": "address"
        },
        {
          "indexed": false,
          "internalType": "uint256",
          "name": "amount",
          "type": "uint256"
        },
        {
          "indexed": false,
          "internalType": "uint256",
          "name": "sharesBurned",
          "type": "uint256"
        }
      ],
      "name": "PoolWithdrawn",
      "type": "event"
    },
    {
      "anonymous": false,
      "inputs": [
        {
          "indexed": true,
          "internalType": "address",
          "name": "borrower",
          "type": "address"
        },
        {
          "indexed": false,
          "internalType": "uint256",
          "name": "amount",
          "type": "uint256"
        }
      ],
      "name": "Repaid",
      "type": "event"
    },
    {
      "anonymous": false,
      "inputs": [
        {
          "indexed": true,
          "internalType": "address",
          "name": "endorser",
          "type": "address"
        },
        {
          "indexed": true,
          "internalType": "address",
          "name": "target",
          "type": "address"
        }
      ],
      "name": "Unendorsed",
      "type": "event"
    },
    {
      "inputs": [],
      "name": "admin",
      "outputs": [
        {
          "internalType": "address",
          "name": "",
          "type": "address"
        }
      ],
      "stateMutability": "view",
      "type": "function"
    },
    {
      "inputs": [
        {
          "internalType": "uint256",
          "name": "amount",
          "type": "uint256"
        }
      ],
      "name": "borrow",
      "outputs": [],
      "stateMutability": "nonpayable",
      "type": "function"
    },
    {
      "inputs": [
        {
          "internalType": "address",
          "name": "target",
          "type": "address"
        }
      ],
      "name": "endorse",
      "outputs": [],
      "stateMutability": "nonpayable",
      "type": "function"
    },
    {
      "inputs": [
        {
          "internalType": "uint256",
          "name": "amount",
          "type": "uint256"
        }
      ],
      "name": "fundPool",
      "outputs": [],
      "stateMutability": "nonpayable",
      "type": "function"
    },
    {
      "inputs": [
        {
          "internalType": "address",
          "name": "",
          "type": "address"
        }
      ],
      "name": "fundingPoints1e18",
      "outputs": [
        {
          "internalType": "uint256",
          "name": "",
          "type": "uint256"
        }
      ],
      "stateMutability": "view",
      "type": "function"
    },
    {
      "inputs": [
        {
          "internalType": "address",
          "name": "user",
          "type": "address"
        }
      ],
      "name": "getScore",
      "outputs": [
        {
          "internalType": "uint256",
          "name": "",
          "type": "uint256"
        }
      ],
      "stateMutability": "view",
      "type": "function"
    },
    {
      "inputs": [
        {
          "internalType": "address",
          "name": "user",
          "type": "address"
        }
      ],
      "name": "getUserStakeValue",
      "outputs": [
        {
          "internalType": "uint256",
          "name": "",
          "type": "uint256"
        }
      ],
      "stateMutability": "view",
      "type": "function"
    },
    {
      "inputs": [],
      "name": "interestBps",
      "outputs": [
        {
          "internalType": "uint256",
          "name": "",
          "type": "uint256"
        }
      ],
      "stateMutability": "view",
      "type": "function"
    },
    {
      "inputs": [
        {
          "internalType": "address",
          "name": "",
          "type": "address"
        }
      ],
      "name": "isAuthorizedCaller",
      "outputs": [
        {
          "internalType": "bool",
          "name": "",
          "type": "bool"
        }
      ],
      "stateMutability": "view",
      "type": "function"
    },
    {
      "inputs": [],
      "name": "loanToken",
      "outputs": [
        {
          "internalType": "contract IERC20",
          "name": "",
          "type": "address"
        }
      ],
      "stateMutability": "view",
      "type": "function"
    },
    {
      "inputs": [
        {
          "internalType": "address",
          "name": "user",
          "type": "address"
        }
      ],
      "name": "maxBorrowable",
      "outputs": [
        {
          "internalType": "uint256",
          "name": "",
          "type": "uint256"
        }
      ],
      "stateMutability": "view",
      "type": "function"
    },
    {
      "inputs": [
        {
          "internalType": "address",
          "name": "",
          "type": "address"
        }
      ],
      "name": "outstandingDebt",
      "outputs": [
        {
          "internalType": "uint256",
          "name": "",
          "type": "uint256"
        }
      ],
      "stateMutability": "view",
      "type": "function"
    },
    {
      "inputs": [
        {
          "internalType": "uint256",
          "name": "amount",
          "type": "uint256"
        }
      ],
      "name": "repay",
      "outputs": [],
      "stateMutability": "nonpayable",
      "type": "function"
    },
    {
      "inputs": [
        {
          "internalType": "address",
          "name": "from",
          "type": "address"
        },
        {
          "internalType": "address",
          "name": "to",
          "type": "address"
        },
        {
          "internalType": "address",
          "name": "token",
          "type": "address"
        },
        {
          "internalType": "uint256",
          "name": "amountNormalized1e18",
          "type": "uint256"
        }
      ],
      "name": "reportPayment",
      "outputs": [],
      "stateMutability": "nonpayable",
      "type": "function"
    },
    {
      "inputs": [],
      "name": "selfEndorse",
      "outputs": [],
      "stateMutability": "nonpayable",
      "type": "function"
    },
    {
      "inputs": [
        {
          "internalType": "address",
          "name": "caller",
          "type": "address"
        },
        {
          "internalType": "bool",
          "name": "allowed",
          "type": "bool"
        }
      ],
      "name": "setAuthorizedCaller",
      "outputs": [],
      "stateMutability": "nonpayable",
      "type": "function"
    },
    {
      "inputs": [],
      "name": "totalPool",
      "outputs": [
        {
          "internalType": "uint256",
          "name": "",
          "type": "uint256"
        }
      ],
      "stateMutability": "view",
      "type": "function"
    },
    {
      "inputs": [],
      "name": "totalShares",
      "outputs": [
        {
          "internalType": "uint256",
          "name": "",
          "type": "uint256"
        }
      ],
      "stateMutability": "view",
      "type": "function"
    },
    {
      "inputs": [
        {
          "internalType": "address",
          "name": "target",
          "type": "address"
        }
      ],
      "name": "unendorse",
      "outputs": [],
      "stateMutability": "nonpayable",
      "type": "function"
    },
    {
      "inputs": [
        {
          "internalType": "address",
          "name": "",
          "type": "address"
        }
      ],
      "name": "userShares",
      "outputs": [
        {
          "internalType": "uint256",
          "name": "",
          "type": "uint256"
        }
      ],
      "stateMutability": "view",
      "type": "function"
    },
    {
      "inputs": [
        {
          "internalType": "uint256",
          "name": "amount",
          "type": "uint256"
        }
      ],
      "name": "withdrawAmount",
      "outputs": [],
      "stateMutability": "nonpayable",
      "type": "function"
    },
    {
      "inputs": [
        {
          "internalType": "uint256",
          "name": "shares",
          "type": "uint256"
        }
      ],
      "name": "withdrawShares",
      "outputs": [],
      "stateMutability": "nonpayable",
      "type": "function"
    }
  ],
  "bytecode": "0x60c060405260c860065534801561001557600080fd5b5060405161170838038061170883398101604081905261003491610049565b336080526001600160a01b031660a052610079565b60006020828403121561005b57600080fd5b81516001600160a01b038116811461007257600080fd5b9392505050565b60805160a0516116396100cf60003960008181610161015281816104b2015281816106a90152818161086c01528181610a4801528181610ead015261113501526000818161033a015261099301526116396000f3fe608060405234801561001057600080fd5b50600436106101425760003560e01c80636ea5511f116100b8578063d100dab31161007c578063d100dab3146102d3578063d47875d0146102e6578063da3a5f72146102f9578063de69b3aa1461030c578063ecfb49a31461032c578063f851a4401461033557600080fd5b80636ea5511f1461027f5780637a11cf5b146102925780638c1c3cc7146102a5578063c06cc7d4146102ad578063c5ebeaec146102c057600080fd5b80632d9db4c71161010a5780632d9db4c7146101ea578063371fd8e61461020a5780633a98ef391461021d578063454bbd291461022657806353696eb81461023957806359d14b411461024c57600080fd5b80630562b9f71461014757806306d378171461015c57806319810f3c146101a057806320b9c82a146101b357806329de1371146101e1575b600080fd5b61015a61015536600461132f565b61035c565b005b6101837f000000000000000000000000000000000000000000000000000000000000000081565b6040516001600160a01b0390911681526020015b60405180910390f35b61015a6101ae36600461132f565b610583565b6101d36101c1366004611364565b60056020526000908152604090205481565b604051908152602001610197565b6101d360065481565b6101d36101f8366004611364565b60076020526000908152604090205481565b61015a61021836600461132f565b610772565b6101d360035481565b61015a610234366004611390565b610988565b6101d3610247366004611364565b610a43565b61026f61025a366004611364565b60006020819052908152604090205460ff1681565b6040519015158152602001610197565b61015a61028d366004611364565b610b14565b6101d36102a0366004611364565b610bdf565b61015a610c2c565b61015a6102bb3660046113c7565b610ce5565b61015a6102ce36600461132f565b610dc4565b61015a6102e1366004611364565b610f70565b6101d36102f4366004611364565b611031565b61015a61030736600461132f565b6110f0565b6101d361031a366004611364565b60046020526000908152604090205481565b6101d360025481565b6101837f000000000000000000000000000000000000000000000000000000000000000081565b600081116103855760405162461bcd60e51b815260040161037c90611412565b60405180910390fd5b600060025411801561039957506000600354115b6103cd5760405162461bcd60e51b8152602060048201526005602482015264656d70747960d81b604482015260640161037c565b6000600254600354836103e0919061144a565b6103ea9190611461565b905060008111801561040b5750336000908152600460205260409020548111155b6104405760405162461bcd60e51b815260206004820152600660248201526573686172657360d01b604482015260640161037c565b336000908152600460205260408120805483929061045f908490611483565b9250508190555080600360008282546104789190611483565b9250508190555081600260008282546104919190611483565b909155505060405163a9059cbb60e01b8152336004820152602481018390527f00000000000000000000000000000000000000000000000000000000000000006001600160a01b03169063a9059cbb906044016020604051808303816000875af1158015610503573d6000803e3d6000fd5b505050506040513d601f19601f820116820180604052508101906105279190611496565b6105435760405162461bcd60e51b815260040161037c906114b3565b604080518381526020810183905233917f4e263f66e088b39f0d0855a71de61fdd97a363015db80b9b27791e61c1feb32391015b60405180910390a25050565b6000811180156105a25750336000908152600460205260409020548111155b6105d75760405162461bcd60e51b815260206004820152600660248201526573686172657360d01b604482015260640161037c565b6000600354116106155760405162461bcd60e51b81526020600482015260096024820152686e6f2073686172657360b81b604482015260640161037c565b600060035460025483610628919061144a565b6106329190611461565b33600090815260046020526040812080549293508492909190610656908490611483565b92505081905550816003600082825461066f9190611483565b9250508190555080600260008282546106889190611483565b909155505060405163a9059cbb60e01b8152336004820152602481018290527f00000000000000000000000000000000000000000000000000000000000000006001600160a01b03169063a9059cbb906044016020604051808303816000875af11580156106fa573d6000803e3d6000fd5b505050506040513d601f19601f8201168201806040525081019061071e9190611496565b61073a5760405162461bcd60e51b815260040161037c906114b3565b604080518281526020810184905233917f4e263f66e088b39f0d0855a71de61fdd97a363015db80b9b27791e61c1feb3239101610577565b600081116107925760405162461bcd60e51b815260040161037c90611412565b33600090815260056020526040902054806107d95760405162461bcd60e51b81526020600482015260076024820152661b9bc81919589d60ca1b604482015260640161037c565b6000612710600654836107ec919061144a565b6107f69190611461565b61080090836114da565b9050808310156108475760405162461bcd60e51b8152602060048201526012602482015271696e73756666696369656e7420726570617960701b604482015260640161037c565b6040516323b872dd60e01b8152336004820152306024820152604481018490526000907f00000000000000000000000000000000000000000000000000000000000000006001600160a01b0316906323b872dd906064016020604051808303816000875af11580156108bd573d6000803e3d6000fd5b505050506040513d601f19601f820116820180604052508101906108e19190611496565b9050806109245760405162461bcd60e51b81526020600482015260116024820152701d1c985b9cd9995c919c9bdb4819985a5b607a1b604482015260640161037c565b336000908152600560205260408120819055600280548692906109489084906114da565b909155505060405184815233907f0516911bcc3a0a7412a44601057c0a0a1ec628bde049a84284bc4288665344889060200160405180910390a250505050565b336001600160a01b037f000000000000000000000000000000000000000000000000000000000000000016146109ed5760405162461bcd60e51b815260206004820152600a60248201526927b7363c9030b236b4b760b11b604482015260640161037c565b6001600160a01b03821660008181526020818152604091829020805460ff191685151590811790915591519182527fb266b84e4ebe1ce46621cd60b98a479f375f552e5ef00830edebdfef8c7727819101610577565b6000807f00000000000000000000000000000000000000000000000000000000000000006001600160a01b031663313ce5676040518163ffffffff1660e01b8152600401602060405180830381865afa158015610aa4573d6000803e3d6000fd5b505050506040513d601f19601f82011682018060405250810190610ac891906114ed565b905060006064610ad983600a6115f4565b610ae286611031565b610aec919061144a565b610af69190611461565b9050600254811115610b0d57505060025492915050565b9392505050565b6001600160a01b0381166000908152600160209081526040808320338452600481019092529091205460ff1615610b805760405162461bcd60e51b815260206004820152601060248201526f105b1c9958591e48195b991bdc9cd95960821b604482015260640161037c565b336000818152600483016020526040808220805460ff191660019081179091556003850180549091019055516001600160a01b03851692917f23bca93d1f21ae32b587bcfa6c4c3310685b7d09d5a18b30f748e0af6d7ee0fb91a35050565b6000600354600003610bf357506000919050565b6003546002546001600160a01b038416600090815260046020526040902054610c1c919061144a565b610c269190611461565b92915050565b336000908152600160209081526040808320600481019092529091205460ff1615610c915760405162461bcd60e51b8152602060048201526015602482015274105b1c9958591e481cd95b198b595b991bdc9cd959605a1b604482015260640161037c565b336000818152600483016020526040808220805460ff1916600190811790915560038501805490910190555182917f23bca93d1f21ae32b587bcfa6c4c3310685b7d09d5a18b30f748e0af6d7ee0fb91a350565b3360009081526020819052604090205460ff16610d355760405162461bcd60e51b815260206004820152600e60248201526d139bdd08185d5d1a1bdc9a5e995960921b604482015260640161037c565b6001600160a01b038481166000818152600160208181526040808420898716808652948290208154850182558085018054909501909455600280820180548a01905584018054890190558151968916875291860187905290949193917fbb9a3e9ac9f016f7bc97843a50400e2c550e4c875a845b4aa82cc3c39f8dcff1910160405180910390a3505050505050565b3360009081526005602052604090205415610e0f5760405162461bcd60e51b815260206004820152600b60248201526a446562742065786973747360a81b604482015260640161037c565b6000610e1a33610a43565b9050600082118015610e2c5750808211155b610e685760405162461bcd60e51b815260206004820152600d60248201526c195e18d959591cc81b1a5b5a5d609a1b604482015260640161037c565b33600090815260056020526040812083905560028054849290610e8c908490611483565b909155505060405163a9059cbb60e01b8152336004820152602481018390527f00000000000000000000000000000000000000000000000000000000000000006001600160a01b03169063a9059cbb906044016020604051808303816000875af1158015610efe573d6000803e3d6000fd5b505050506040513d601f19601f82011682018060405250810190610f229190611496565b610f3e5760405162461bcd60e51b815260040161037c906114b3565b60405182815233907fac59582e5396aca512fa873a2047e7f4c80f8f55d4a06cb34a78a0187f62719f90602001610577565b6001600160a01b0381166000908152600160209081526040808320338452600481019092529091205460ff16610fd75760405162461bcd60e51b815260206004820152600c60248201526b139bdd08195b991bdc9cd95960a21b604482015260640161037c565b336000818152600483016020526040808220805460ff19169055600384018054600019019055516001600160a01b03851692917f97394cbfef09957a2f2c87de5c38650f389066007313a045cfbe05e0599c48df91a35050565b6001600160a01b0381166000908152600160205260408120600281015482906110649068056bc75e2d6310000090611461565b600383015461107490600a61144a565b6001808501546110839161144a565b845461109090600261144a565b61109a91906114da565b6110a491906114da565b6110ae91906114da565b6001600160a01b0385166000908152600760205260409020549091506110de9068056bc75e2d6310000090611461565b6110e890826114da565b949350505050565b600081116111105760405162461bcd60e51b815260040161037c90611412565b6040516323b872dd60e01b8152336004820152306024820152604481018290526000907f00000000000000000000000000000000000000000000000000000000000000006001600160a01b0316906323b872dd906064016020604051808303816000875af1158015611186573d6000803e3d6000fd5b505050506040513d601f19601f820116820180604052508101906111aa9190611496565b9050806111ed5760405162461bcd60e51b81526020600482015260116024820152701d1c985b9cd9995c919c9bdb4819985a5b607a1b604482015260640161037c565b6000600354600014806112005750600254155b1561120c575081611229565b60025460035461121c908561144a565b6112269190611461565b90505b600081116112645760405162461bcd60e51b815260206004820152600860248201526707368617265733d360c41b604482015260640161037c565b826002600082825461127691906114da565b92505081905550806003600082825461128f91906114da565b909155505033600090815260046020526040812080548392906112b39084906114da565b909155506112cb905083670de0b6b3a764000061144a565b33600090815260076020526040812080549091906112ea9084906114da565b9091555050604080518481526020810183905233917fce66f10ae4269ec7bfd83e4659aed202bd4efb93d241bae453642969c2f079d3910160405180910390a2505050565b60006020828403121561134157600080fd5b5035919050565b80356001600160a01b038116811461135f57600080fd5b919050565b60006020828403121561137657600080fd5b610b0d82611348565b801515811461138d57600080fd5b50565b600080604083850312156113a357600080fd5b6113ac83611348565b915060208301356113bc8161137f565b809150509250929050565b600080600080608085870312156113dd57600080fd5b6113e685611348565b93506113f460208601611348565b925061140260408601611348565b9396929550929360600135925050565b6020808252600890820152670616d6f756e743d360c41b604082015260600190565b634e487b7160e01b600052601160045260246000fd5b8082028115828204841417610c2657610c26611434565b60008261147e57634e487b7160e01b600052601260045260246000fd5b500490565b81810381811115610c2657610c26611434565b6000602082840312156114a857600080fd5b8151610b0d8161137f565b6020808252600d908201526c1d1c985b9cd9995c8819985a5b609a1b604082015260600190565b80820180821115610c2657610c26611434565b6000602082840312156114ff57600080fd5b815160ff81168114610b0d57600080fd5b600181815b8085111561154b57816000190482111561153157611531611434565b8085161561153e57918102915b93841c9390800290611515565b509250929050565b60008261156257506001610c26565b8161156f57506000610c26565b8160018114611585576002811461158f576115ab565b6001915050610c26565b60ff8411156115a0576115a0611434565b50506001821b610c26565b5060208310610133831016604e8410600b84101617156115ce575081810a610c26565b6115d88383611510565b80600019048211156115ec576115ec611434565b029392505050565b6000610b0d60ff84168361155356fea2646970667358221220edb0026d892a04dcd02ee10d148231d2009753630a78e32526b6f9fbd38881e564736f6c63430008180033",
  "linkReferences": {},
  "deployedLinkReferences": {}
}