{
  "_format": "hh-sol-artifact-1",
  "contractName": "MiniToken",
  "sourceName": "contracts/MiniToken.sol",
  "abi": [
    {
      "inputs": [],
      "stateMutability": "nonpayable",
      "type": "constructor"
    },
    {
      "anonymous": false,
      "inputs": [
        {
          "indexed": true,
          "internalType": "address",
          "name": "owner",
          "type": "address"
        },
        {
          "indexed": true,
          "internalType": "address",
          "name": "spender",
          "type": "address"
        },
        {
          "indexed": false,
          "internalType": "uint256",
          "name": "value",
          "type": "uint256"
        }
      ],
      "name": "Approval",
      "type": "event"
    },
    {
      "anonymous": false,
      "inputs": [
        {
          "indexed": true,
          "internalType": "address",
          "name": "from",
          "type": "address"
        },
        {
          "indexed": true,
          "internalType": "address",
          "name": "to",
          "type": "address"
        },
        {
          "indexed": false,
          "internalType": "uint256",
          "name": "value",
          "type": "uint256"
        }
      ],
      "name": "Transfer",
      "type": "event"
    },
    {
      "inputs": [
        {
          "internalType": "address",
          "name": "",
          "type": "address"
        },
        {
          "internalType": "address",
          "name": "",
          "type": "address"
        }
      ],
      "name": "allowance",
      "outputs": [
        {
          "internalType": "uint256",
          "name": "",
          "type": "uint256"
        }
      ],
      "stateMutability": "view",
      "type": "function"
    },
    {
      "inputs": [
        {
          "internalType": "address",
          "name": "sp",
          "type": "address"
        },
        {
          "internalType": "uint256",
          "name": "amount",
          "type": "uint256"
        }
      ],
      "name": "approve",
      "outputs": [
        {
          "internalType": "bool",
          "name": "",
          "type": "bool"
        }
      ],
      "stateMutability": "nonpayable",
      "type": "function"
    },
    {
      "inputs": [
        {
          "internalType": "address",
          "name": "",
          "type": "address"
        }
      ],
      "name": "balanceOf",
      "outputs": [
        {
          "internalType": "uint256",
          "name": "",
          "type": "uint256"
        }
      ],
      "stateMutability": "view",
      "type": "function"
    },
    {
      "inputs": [],
      "name": "decimals",
      "outputs": [
        {
          "internalType": "uint8",
          "name": "",
          "type": "uint8"
        }
      ],
      "stateMutability": "view",
      "type": "function"
    },
    {
      "inputs": [],
      "name": "name",
      "outputs": [
        {
          "internalType": "string",
          "name": "",
          "type": "string"
        }
      ],
      "stateMutability": "view",
      "type": "function"
    },
    {
      "inputs": [],
      "name": "symbol",
      "outputs": [
        {
          "internalType": "string",
          "name": "",
          "type": "string"
        }
      ],
      "stateMutability": "view",
      "type": "function"
    },
    {
      "inputs": [
        {
          "internalType": "address",
          "name": "to",
          "type": "address"
        },
        {
          "internalType": "uint256",
          "name": "amount",
          "type": "uint256"
        }
      ],
      "name": "transfer",
      "outputs": [
        {
          "internalType": "bool",
          "name": "",
          "type": "bool"
        }
      ],
      "stateMutability": "nonpayable",
      "type": "function"
    },
    {
      "inputs": [
        {
          "internalType": "address",
          "name": "from",
          "type": "address"
        },
        {
          "internalType": "address",
          "name": "to",
          "type": "address"
        },
        {
          "internalType": "uint256",
          "name": "amount",
          "type": "uint256"
        }
      ],
      "name": "transferFrom",
      "outputs": [
        {
          "internalType": "bool",
          "name": "",
          "type": "bool"
        }
      ],
      "stateMutability": "nonpayable",
      "type": "function"
    }
  ],
  "bytecode": "0x60c060405260046080908152634d696e6960e01b60a0526000906100239082610128565b5060408051808201909152600381526226a4a760e91b602082015260019061004b9082610128565b506002805460ff1916601217905534801561006557600080fd5b5033600090815260036020526040902069d3c21bcecceda100000090556101e7565b634e487b7160e01b600052604160045260246000fd5b600181811c908216806100b157607f821691505b6020821081036100d157634e487b7160e01b600052602260045260246000fd5b50919050565b601f821115610123576000816000526020600020601f850160051c810160208610156101005750805b601f850160051c820191505b8181101561011f5782815560010161010c565b5050505b505050565b81516001600160401b0381111561014157610141610087565b6101558161014f845461009d565b846100d7565b602080601f83116001811461018a57600084156101725750858301515b600019600386901b1c1916600185901b17855561011f565b600085815260208120601f198616915b828110156101b95788860151825594840194600190910190840161019a565b50858210156101d75787850151600019600388901b60f8161c191681555b5050505050600190811b01905550565b6105eb806101f66000396000f3fe608060405234801561001057600080fd5b50600436106100885760003560e01c806370a082311161005b57806370a082311461010057806395d89b411461012e578063a9059cbb14610136578063dd62ed3e1461014957600080fd5b806306fdde031461008d578063095ea7b3146100ab57806323b872dd146100ce578063313ce567146100e1575b600080fd5b610095610174565b6040516100a29190610455565b60405180910390f35b6100be6100b93660046104c0565b610202565b60405190151581526020016100a2565b6100be6100dc3660046104ea565b61026e565b6002546100ee9060ff1681565b60405160ff90911681526020016100a2565b61012061010e366004610526565b60036020526000908152604090205481565b6040519081526020016100a2565b6100956103a4565b6100be6101443660046104c0565b6103b1565b610120610157366004610548565b600460209081526000928352604080842090915290825290205481565b600080546101819061057b565b80601f01602080910402602001604051908101604052809291908181526020018280546101ad9061057b565b80156101fa5780601f106101cf576101008083540402835291602001916101fa565b820191906000526020600020905b8154815290600101906020018083116101dd57829003601f168201915b505050505081565b3360008181526004602090815260408083206001600160a01b038716808552925280832085905551919290917f8c5be1e5ebec7d5bd14f71427d1e84f3dd0314c0f7b2291e5b200ac8c7c3b9259061025d9086815260200190565b60405180910390a350600192915050565b6001600160a01b0383166000908152600360205260408120548211156102c15760405162461bcd60e51b815260206004820152600360248201526218985b60ea1b60448201526064015b60405180910390fd5b6001600160a01b038416600090815260046020908152604080832033845290915290205482111561031c5760405162461bcd60e51b8152602060048201526005602482015264616c6c6f7760d81b60448201526064016102b8565b6001600160a01b038481166000818152600460209081526040808320338452825280832080548890039055838352600382528083208054889003905593871680835291849020805487019055925185815290927fddf252ad1be2c89b69c2b068fc378daa952ba7f163c4a11628f55a4df523b3ef910160405180910390a35060019392505050565b600180546101819061057b565b336000908152600360205260408120548211156103f65760405162461bcd60e51b815260206004820152600360248201526218985b60ea1b60448201526064016102b8565b336000818152600360209081526040808320805487900390556001600160a01b03871680845292819020805487019055518581529192917fddf252ad1be2c89b69c2b068fc378daa952ba7f163c4a11628f55a4df523b3ef910161025d565b60006020808352835180602085015260005b8181101561048357858101830151858201604001528201610467565b506000604082860101526040601f19601f8301168501019250505092915050565b80356001600160a01b03811681146104bb57600080fd5b919050565b600080604083850312156104d357600080fd5b6104dc836104a4565b946020939093013593505050565b6000806000606084860312156104ff57600080fd5b610508846104a4565b9250610516602085016104a4565b9150604084013590509250925092565b60006020828403121561053857600080fd5b610541826104a4565b9392505050565b6000806040838503121561055b57600080fd5b610564836104a4565b9150610572602084016104a4565b90509250929050565b600181811c9082168061058f57607f821691505b6020821081036105af57634e487b7160e01b600052602260045260246000fd5b5091905056fea2646970667358221220f76fe734a9330aa1584040eb3e97e05240cf342483f0da252c29912346bc13d464736f6c63430008180033",
  "linkReferences": {},
  "deployedLinkReferences": {}
}